{
  "address": "0x1d2324BC8b9290EE35aa5D6705D67ec147f07D13",
  "abi": [
    {
      "inputs": [
        {
          "components": [
            {
              "internalType": "address",
              "name": "target",
              "type": "address"
            },
            {
              "internalType": "bytes",
              "name": "callData",
              "type": "bytes"
            }
          ],
          "internalType": "struct Multicall3.Call[]",
          "name": "calls",
          "type": "tuple[]"
        }
      ],
      "name": "aggregate",
      "outputs": [
        {
          "internalType": "uint256",
          "name": "blockNumber",
          "type": "uint256"
        },
        {
          "internalType": "bytes[]",
          "name": "returnData",
          "type": "bytes[]"
        }
      ],
      "stateMutability": "payable",
      "type": "function"
    },
    {
      "inputs": [
        {
          "components": [
            {
              "internalType": "address",
              "name": "target",
              "type": "address"
            },
            {
              "internalType": "bool",
              "name": "allowFailure",
              "type": "bool"
            },
            {
              "internalType": "bytes",
              "name": "callData",
              "type": "bytes"
            }
          ],
          "internalType": "struct Multicall3.Call3[]",
          "name": "calls",
          "type": "tuple[]"
        }
      ],
      "name": "aggregate3",
      "outputs": [
        {
          "components": [
            {
              "internalType": "bool",
              "name": "success",
              "type": "bool"
            },
            {
              "internalType": "bytes",
              "name": "returnData",
              "type": "bytes"
            }
          ],
          "internalType": "struct Multicall3.Result[]",
          "name": "returnData",
          "type": "tuple[]"
        }
      ],
      "stateMutability": "payable",
      "type": "function"
    },
    {
      "inputs": [
        {
          "components": [
            {
              "internalType": "address",
              "name": "target",
              "type": "address"
            },
            {
              "internalType": "bool",
              "name": "allowFailure",
              "type": "bool"
            },
            {
              "internalType": "uint256",
              "name": "value",
              "type": "uint256"
            },
            {
              "internalType": "bytes",
              "name": "callData",
              "type": "bytes"
            }
          ],
          "internalType": "struct Multicall3.Call3Value[]",
          "name": "calls",
          "type": "tuple[]"
        }
      ],
      "name": "aggregate3Value",
      "outputs": [
        {
          "components": [
            {
              "internalType": "bool",
              "name": "success",
              "type": "bool"
            },
            {
              "internalType": "bytes",
              "name": "returnData",
              "type": "bytes"
            }
          ],
          "internalType": "struct Multicall3.Result[]",
          "name": "returnData",
          "type": "tuple[]"
        }
      ],
      "stateMutability": "payable",
      "type": "function"
    },
    {
      "inputs": [
        {
          "components": [
            {
              "internalType": "address",
              "name": "target",
              "type": "address"
            },
            {
              "internalType": "bytes",
              "name": "callData",
              "type": "bytes"
            }
          ],
          "internalType": "struct Multicall3.Call[]",
          "name": "calls",
          "type": "tuple[]"
        }
      ],
      "name": "blockAndAggregate",
      "outputs": [
        {
          "internalType": "uint256",
          "name": "blockNumber",
          "type": "uint256"
        },
        {
          "internalType": "bytes32",
          "name": "blockHash",
          "type": "bytes32"
        },
        {
          "components": [
            {
              "internalType": "bool",
              "name": "success",
              "type": "bool"
            },
            {
              "internalType": "bytes",
              "name": "returnData",
              "type": "bytes"
            }
          ],
          "internalType": "struct Multicall3.Result[]",
          "name": "returnData",
          "type": "tuple[]"
        }
      ],
      "stateMutability": "payable",
      "type": "function"
    },
    {
      "inputs": [],
      "name": "getBasefee",
      "outputs": [
        {
          "internalType": "uint256",
          "name": "basefee",
          "type": "uint256"
        }
      ],
      "stateMutability": "view",
      "type": "function"
    },
    {
      "inputs": [
        {
          "internalType": "uint256",
          "name": "blockNumber",
          "type": "uint256"
        }
      ],
      "name": "getBlockHash",
      "outputs": [
        {
          "internalType": "bytes32",
          "name": "blockHash",
          "type": "bytes32"
        }
      ],
      "stateMutability": "view",
      "type": "function"
    },
    {
      "inputs": [],
      "name": "getBlockNumber",
      "outputs": [
        {
          "internalType": "uint256",
          "name": "blockNumber",
          "type": "uint256"
        }
      ],
      "stateMutability": "view",
      "type": "function"
    },
    {
      "inputs": [],
      "name": "getChainId",
      "outputs": [
        {
          "internalType": "uint256",
          "name": "chainid",
          "type": "uint256"
        }
      ],
      "stateMutability": "view",
      "type": "function"
    },
    {
      "inputs": [],
      "name": "getCurrentBlockCoinbase",
      "outputs": [
        {
          "internalType": "address",
          "name": "coinbase",
          "type": "address"
        }
      ],
      "stateMutability": "view",
      "type": "function"
    },
    {
      "inputs": [],
      "name": "getCurrentBlockDifficulty",
      "outputs": [
        {
          "internalType": "uint256",
          "name": "difficulty",
          "type": "uint256"
        }
      ],
      "stateMutability": "view",
      "type": "function"
    },
    {
      "inputs": [],
      "name": "getCurrentBlockGasLimit",
      "outputs": [
        {
          "internalType": "uint256",
          "name": "gaslimit",
          "type": "uint256"
        }
      ],
      "stateMutability": "view",
      "type": "function"
    },
    {
      "inputs": [],
      "name": "getCurrentBlockTimestamp",
      "outputs": [
        {
          "internalType": "uint256",
          "name": "timestamp",
          "type": "uint256"
        }
      ],
      "stateMutability": "view",
      "type": "function"
    },
    {
      "inputs": [
        {
          "internalType": "address",
          "name": "addr",
          "type": "address"
        }
      ],
      "name": "getEthBalance",
      "outputs": [
        {
          "internalType": "uint256",
          "name": "balance",
          "type": "uint256"
        }
      ],
      "stateMutability": "view",
      "type": "function"
    },
    {
      "inputs": [],
      "name": "getLastBlockHash",
      "outputs": [
        {
          "internalType": "bytes32",
          "name": "blockHash",
          "type": "bytes32"
        }
      ],
      "stateMutability": "view",
      "type": "function"
    },
    {
      "inputs": [
        {
          "internalType": "bool",
          "name": "requireSuccess",
          "type": "bool"
        },
        {
          "components": [
            {
              "internalType": "address",
              "name": "target",
              "type": "address"
            },
            {
              "internalType": "bytes",
              "name": "callData",
              "type": "bytes"
            }
          ],
          "internalType": "struct Multicall3.Call[]",
          "name": "calls",
          "type": "tuple[]"
        }
      ],
      "name": "tryAggregate",
      "outputs": [
        {
          "components": [
            {
              "internalType": "bool",
              "name": "success",
              "type": "bool"
            },
            {
              "internalType": "bytes",
              "name": "returnData",
              "type": "bytes"
            }
          ],
          "internalType": "struct Multicall3.Result[]",
          "name": "returnData",
          "type": "tuple[]"
        }
      ],
      "stateMutability": "payable",
      "type": "function"
    },
    {
      "inputs": [
        {
          "internalType": "bool",
          "name": "requireSuccess",
          "type": "bool"
        },
        {
          "components": [
            {
              "internalType": "address",
              "name": "target",
              "type": "address"
            },
            {
              "internalType": "bytes",
              "name": "callData",
              "type": "bytes"
            }
          ],
          "internalType": "struct Multicall3.Call[]",
          "name": "calls",
          "type": "tuple[]"
        }
      ],
      "name": "tryBlockAndAggregate",
      "outputs": [
        {
          "internalType": "uint256",
          "name": "blockNumber",
          "type": "uint256"
        },
        {
          "internalType": "bytes32",
          "name": "blockHash",
          "type": "bytes32"
        },
        {
          "components": [
            {
              "internalType": "bool",
              "name": "success",
              "type": "bool"
            },
            {
              "internalType": "bytes",
              "name": "returnData",
              "type": "bytes"
            }
          ],
          "internalType": "struct Multicall3.Result[]",
          "name": "returnData",
          "type": "tuple[]"
        }
      ],
      "stateMutability": "payable",
      "type": "function"
    }
  ],
  "transactionHash": "0xf3a4df93a010817afab061edba23dec3dfc70a67d38b5e154d4d76e879c47017",
  "args": [],
  "numDeployments": 1,
  "solcInputHash": "8189cc6b68853efbf6f7333ad90dc6d0",
  "bytecode": "0x608060405234801561001057600080fd5b506115b0806100206000396000f3fe6080604052600436106100f35760003560e01c80634d2301cc1161008a578063a8b0574e11610059578063a8b0574e14610325578063bce38bd714610350578063c3077fa914610380578063ee82ac5e146103b2576100f3565b80634d2301cc1461026257806372425d9d1461029f57806382ad56cb146102ca57806386d516e8146102fa576100f3565b80633408e470116100c65780633408e470146101af578063399542e9146101da5780633e64a6961461020c57806342cbb15c14610237576100f3565b80630f28c97d146100f8578063174dea7114610123578063252dba421461015357806327e86d6e14610184575b600080fd5b34801561010457600080fd5b5061010d6103ef565b60405161011a9190610c0a565b60405180910390f35b61013d60048036038101906101389190610c94565b6103f7565b60405161014a9190610e8b565b60405180910390f35b61016d60048036038101906101689190610f03565b610615565b60405161017b929190611012565b60405180910390f35b34801561019057600080fd5b506101996107ab565b6040516101a6919061105b565b60405180910390f35b3480156101bb57600080fd5b506101c46107b7565b6040516101d19190610c0a565b60405180910390f35b6101f460048036038101906101ef91906110a2565b6107bf565b60405161020393929190611102565b60405180910390f35b34801561021857600080fd5b506102216107e1565b60405161022e9190610c0a565b60405180910390f35b34801561024357600080fd5b5061024c6107e9565b6040516102599190610c0a565b60405180910390f35b34801561026e57600080fd5b506102896004803603810190610284919061119e565b6107f1565b6040516102969190610c0a565b60405180910390f35b3480156102ab57600080fd5b506102b4610812565b6040516102c19190610c0a565b60405180910390f35b6102e460048036038101906102df9190611221565b61081a565b6040516102f19190610e8b565b60405180910390f35b34801561030657600080fd5b5061030f6109e4565b60405161031c9190610c0a565b60405180910390f35b34801561033157600080fd5b5061033a6109ec565b604051610347919061127d565b60405180910390f35b61036a600480360381019061036591906110a2565b6109f4565b6040516103779190610e8b565b60405180910390f35b61039a60048036038101906103959190610f03565b610ba6565b6040516103a993929190611102565b60405180910390f35b3480156103be57600080fd5b506103d960048036038101906103d491906112c4565b610bca565b6040516103e6919061105b565b60405180910390f35b600042905090565b60606000808484905090508067ffffffffffffffff81111561041c5761041b6112f1565b5b60405190808252806020026020018201604052801561045557816020015b610442610bd5565b81526020019060019003908161043a5790505b5092503660005b828110156105c957600085828151811061047957610478611320565b5b6020026020010151905087878381811061049657610495611320565b5b90506020028101906104a8919061135e565b925060008360400135905080860195508360000160208101906104cb919061119e565b73ffffffffffffffffffffffffffffffffffffffff16818580606001906104f29190611386565b604051610500929190611428565b60006040518083038185875af1925050503d806000811461053d576040519150601f19603f3d011682016040523d82523d6000602084013e610542565b606091505b5083600001846020018290528215151515815250505081516020850135176105bc577f08c379a000000000000000000000000000000000000000000000000000000000600052602060045260176024527f4d756c746963616c6c333a2063616c6c206661696c656400000000000000000060445260846000fd5b826001019250505061045c565b5082341461060c576040517f08c379a00000000000000000000000000000000000000000000000000000000081526004016106039061149e565b60405180910390fd5b50505092915050565b6000606043915060008484905090508067ffffffffffffffff81111561063e5761063d6112f1565b5b60405190808252806020026020018201604052801561067157816020015b606081526020019060019003908161065c5790505b5091503660005b828110156107a157600087878381811061069557610694611320565b5b90506020028101906106a791906114be565b92508260000160208101906106bc919061119e565b73ffffffffffffffffffffffffffffffffffffffff168380602001906106e29190611386565b6040516106f0929190611428565b6000604051808303816000865af19150503d806000811461072d576040519150601f19603f3d011682016040523d82523d6000602084013e610732565b606091505b5086848151811061074657610745611320565b5b60200260200101819052819250505080610795576040517f08c379a000000000000000000000000000000000000000000000000000000000815260040161078c90611532565b60405180910390fd5b81600101915050610678565b5050509250929050565b60006001430340905090565b600046905090565b6000806060439250434091506107d68686866109f4565b905093509350939050565b600048905090565b600043905090565b60008173ffffffffffffffffffffffffffffffffffffffff16319050919050565b600044905090565b606060008383905090508067ffffffffffffffff81111561083e5761083d6112f1565b5b60405190808252806020026020018201604052801561087757816020015b610864610bd5565b81526020019060019003908161085c5790505b5091503660005b828110156109db57600084828151811061089b5761089a611320565b5b602002602001015190508686838181106108b8576108b7611320565b5b90506020028101906108ca9190611552565b92508260000160208101906108df919061119e565b73ffffffffffffffffffffffffffffffffffffffff168380604001906109059190611386565b604051610913929190611428565b6000604051808303816000865af19150503d8060008114610950576040519150601f19603f3d011682016040523d82523d6000602084013e610955565b606091505b5082600001836020018290528215151515815250505080516020840135176109cf577f08c379a000000000000000000000000000000000000000000000000000000000600052602060045260176024527f4d756c746963616c6c333a2063616c6c206661696c656400000000000000000060445260646000fd5b8160010191505061087e565b50505092915050565b600045905090565b600041905090565b606060008383905090508067ffffffffffffffff811115610a1857610a176112f1565b5b604051908082528060200260200182016040528015610a5157816020015b610a3e610bd5565b815260200190600190039081610a365790505b5091503660005b82811015610b9c576000848281518110610a7557610a74611320565b5b60200260200101519050868683818110610a9257610a91611320565b5b9050602002810190610aa491906114be565b9250826000016020810190610ab9919061119e565b73ffffffffffffffffffffffffffffffffffffffff16838060200190610adf9190611386565b604051610aed929190611428565b6000604051808303816000865af19150503d8060008114610b2a576040519150601f19603f3d011682016040523d82523d6000602084013e610b2f565b606091505b508260000183602001829052821515151581525050508715610b90578060000151610b8f576040517f08c379a0000000000000000000000000000000000000000000000000000000008152600401610b8690611532565b60405180910390fd5b5b81600101915050610a58565b5050509392505050565b6000806060610bb7600186866107bf565b8093508194508295505050509250925092565b600081409050919050565b6040518060400160405280600015158152602001606081525090565b6000819050919050565b610c0481610bf1565b82525050565b6000602082019050610c1f6000830184610bfb565b92915050565b600080fd5b600080fd5b600080fd5b600080fd5b600080fd5b60008083601f840112610c5457610c53610c2f565b5b8235905067ffffffffffffffff811115610c7157610c70610c34565b5b602083019150836020820283011115610c8d57610c8c610c39565b5b9250929050565b60008060208385031215610cab57610caa610c25565b5b600083013567ffffffffffffffff811115610cc957610cc8610c2a565b5b610cd585828601610c3e565b92509250509250929050565b600081519050919050565b600082825260208201905092915050565b6000819050602082019050919050565b60008115159050919050565b610d2281610d0d565b82525050565b600081519050919050565b600082825260208201905092915050565b60005b83811015610d62578082015181840152602081019050610d47565b60008484015250505050565b6000601f19601f8301169050919050565b6000610d8a82610d28565b610d948185610d33565b9350610da4818560208601610d44565b610dad81610d6e565b840191505092915050565b6000604083016000830151610dd06000860182610d19565b5060208301518482036020860152610de88282610d7f565b9150508091505092915050565b6000610e018383610db8565b905092915050565b6000602082019050919050565b6000610e2182610ce1565b610e2b8185610cec565b935083602082028501610e3d85610cfd565b8060005b85811015610e795784840389528151610e5a8582610df5565b9450610e6583610e09565b925060208a01995050600181019050610e41565b50829750879550505050505092915050565b60006020820190508181036000830152610ea58184610e16565b905092915050565b60008083601f840112610ec357610ec2610c2f565b5b8235905067ffffffffffffffff811115610ee057610edf610c34565b5b602083019150836020820283011115610efc57610efb610c39565b5b9250929050565b60008060208385031215610f1a57610f19610c25565b5b600083013567ffffffffffffffff811115610f3857610f37610c2a565b5b610f4485828601610ead565b92509250509250929050565b600081519050919050565b600082825260208201905092915050565b6000819050602082019050919050565b6000610f888383610d7f565b905092915050565b6000602082019050919050565b6000610fa882610f50565b610fb28185610f5b565b935083602082028501610fc485610f6c565b8060005b858110156110005784840389528151610fe18582610f7c565b9450610fec83610f90565b925060208a01995050600181019050610fc8565b50829750879550505050505092915050565b60006040820190506110276000830185610bfb565b81810360208301526110398184610f9d565b90509392505050565b6000819050919050565b61105581611042565b82525050565b6000602082019050611070600083018461104c565b92915050565b61107f81610d0d565b811461108a57600080fd5b50565b60008135905061109c81611076565b92915050565b6000806000604084860312156110bb576110ba610c25565b5b60006110c98682870161108d565b935050602084013567ffffffffffffffff8111156110ea576110e9610c2a565b5b6110f686828701610ead565b92509250509250925092565b60006060820190506111176000830186610bfb565b611124602083018561104c565b81810360408301526111368184610e16565b9050949350505050565b600073ffffffffffffffffffffffffffffffffffffffff82169050919050565b600061116b82611140565b9050919050565b61117b81611160565b811461118657600080fd5b50565b60008135905061119881611172565b92915050565b6000602082840312156111b4576111b3610c25565b5b60006111c284828501611189565b91505092915050565b60008083601f8401126111e1576111e0610c2f565b5b8235905067ffffffffffffffff8111156111fe576111fd610c34565b5b60208301915083602082028301111561121a57611219610c39565b5b9250929050565b6000806020838503121561123857611237610c25565b5b600083013567ffffffffffffffff81111561125657611255610c2a565b5b611262858286016111cb565b92509250509250929050565b61127781611160565b82525050565b6000602082019050611292600083018461126e565b92915050565b6112a181610bf1565b81146112ac57600080fd5b50565b6000813590506112be81611298565b92915050565b6000602082840312156112da576112d9610c25565b5b60006112e8848285016112af565b91505092915050565b7f4e487b7100000000000000000000000000000000000000000000000000000000600052604160045260246000fd5b7f4e487b7100000000000000000000000000000000000000000000000000000000600052603260045260246000fd5b600080fd5b600080fd5b600080fd5b60008235600160800383360303811261137a5761137961134f565b5b80830191505092915050565b600080833560016020038436030381126113a3576113a261134f565b5b80840192508235915067ffffffffffffffff8211156113c5576113c4611354565b5b6020830192506001820236038313156113e1576113e0611359565b5b509250929050565b600081905092915050565b82818337600083830152505050565b600061140f83856113e9565b935061141c8385846113f4565b82840190509392505050565b6000611435828486611403565b91508190509392505050565b600082825260208201905092915050565b7f4d756c746963616c6c333a2076616c7565206d69736d61746368000000000000600082015250565b6000611488601a83611441565b915061149382611452565b602082019050919050565b600060208201905081810360008301526114b78161147b565b9050919050565b6000823560016040038336030381126114da576114d961134f565b5b80830191505092915050565b7f4d756c746963616c6c333a2063616c6c206661696c6564000000000000000000600082015250565b600061151c601783611441565b9150611527826114e6565b602082019050919050565b6000602082019050818103600083015261154b8161150f565b9050919050565b60008235600160600383360303811261156e5761156d61134f565b5b8083019150509291505056fea2646970667358221220ad622667a9afc2764a3edfe415e4d6b0057bab8cb6cda25f3c565ff6dbed115b64736f6c63430008140033",
  "devdoc": {
    "author": "Michael Elliot <mike@makerdao.com>Joshua Levine <joshua@makerdao.com>Nick Johnson <arachnid@notdot.net>Andreas Bigger <andreas@nascent.xyz>Matt Solomon <matt@mattsolomon.dev>",
    "details": "Multicall & Multicall2 backwards-compatibleAggregate methods are marked `payable` to save 24 gas per call",
    "kind": "dev",
    "methods": {
      "aggregate((address,bytes)[])": {
        "params": {
          "calls": "An array of Call structs"
        },
        "returns": {
          "blockNumber": "The block number where the calls were executed",
          "returnData": "An array of bytes containing the responses"
        }
      },
      "aggregate3((address,bool,bytes)[])": {
        "params": {
          "calls": "An array of Call3 structs"
        },
        "returns": {
          "returnData": "An array of Result structs"
        }
      },
      "aggregate3Value((address,bool,uint256,bytes)[])": {
        "params": {
          "calls": "An array of Call3Value structs"
        },
        "returns": {
          "returnData": "An array of Result structs"
        }
      },
      "blockAndAggregate((address,bytes)[])": {
        "params": {
          "calls": "An array of Call structs"
        },
        "returns": {
          "blockHash": "The hash of the block where the calls were executed",
          "blockNumber": "The block number where the calls were executed",
          "returnData": "An array of Result structs"
        }
      },
      "getBlockHash(uint256)": {
        "params": {
          "blockNumber": "The block number"
        }
      },
      "tryAggregate(bool,(address,bytes)[])": {
        "params": {
          "calls": "An array of Call structs",
          "requireSuccess": "If true, require all calls to succeed"
        },
        "returns": {
          "returnData": "An array of Result structs"
        }
      },
      "tryBlockAndAggregate(bool,(address,bytes)[])": {
        "params": {
          "calls": "An array of Call structs"
        },
        "returns": {
          "blockHash": "The hash of the block where the calls were executed",
          "blockNumber": "The block number where the calls were executed",
          "returnData": "An array of Result structs"
        }
      }
    },
    "title": "Multicall3",
    "version": 1
  },
  "userdoc": {
    "kind": "user",
    "methods": {
      "aggregate((address,bytes)[])": {
        "notice": "Backwards-compatible call aggregation with Multicall"
      },
      "aggregate3((address,bool,bytes)[])": {
        "notice": "Aggregate calls, ensuring each returns success if required"
      },
      "aggregate3Value((address,bool,uint256,bytes)[])": {
        "notice": "Aggregate calls with a msg valueReverts if msg.value is less than the sum of the call values"
      },
      "blockAndAggregate((address,bytes)[])": {
        "notice": "Backwards-compatible with Multicall2Aggregate calls and allow failures using tryAggregate"
      },
      "getBasefee()": {
        "notice": "Gets the base fee of the given blockCan revert if the BASEFEE opcode is not implemented by the given chain"
      },
      "getBlockHash(uint256)": {
        "notice": "Returns the block hash for the given block number"
      },
      "getBlockNumber()": {
        "notice": "Returns the block number"
      },
      "getChainId()": {
        "notice": "Returns the chain id"
      },
      "getCurrentBlockCoinbase()": {
        "notice": "Returns the block coinbase"
      },
      "getCurrentBlockDifficulty()": {
        "notice": "Returns the block difficulty"
      },
      "getCurrentBlockGasLimit()": {
        "notice": "Returns the block gas limit"
      },
      "getCurrentBlockTimestamp()": {
        "notice": "Returns the block timestamp"
      },
      "getEthBalance(address)": {
        "notice": "Returns the (ETH) balance of a given address"
      },
      "getLastBlockHash()": {
        "notice": "Returns the block hash of the last block"
      },
      "tryAggregate(bool,(address,bytes)[])": {
        "notice": "Backwards-compatible with Multicall2Aggregate calls without requiring success"
      },
      "tryBlockAndAggregate(bool,(address,bytes)[])": {
        "notice": "Backwards-compatible with Multicall2Aggregate calls and allow failures using tryAggregate"
      }
    },
    "notice": "Aggregate results from multiple function calls",
    "version": 1
  },
  "storageLayout": {
    "storage": [],
    "types": null
  }
}