{
  "address": "0x02523d920235dc6DC15D4A29A54cec021f543046",
  "abi": [
    {
      "inputs": [
        {
          "internalType": "uint256",
          "name": "protocolFee",
          "type": "uint256"
        },
        {
          "internalType": "address",
          "name": "feeWallet",
          "type": "address"
        }
      ],
      "stateMutability": "nonpayable",
      "type": "constructor"
    },
    {
      "inputs": [
        {
          "internalType": "address",
          "name": "target",
          "type": "address"
        }
      ],
      "name": "AddressEmptyCode",
      "type": "error"
    },
    {
      "inputs": [
        {
          "internalType": "address",
          "name": "account",
          "type": "address"
        }
      ],
      "name": "AddressInsufficientBalance",
      "type": "error"
    },
    {
      "inputs": [],
      "name": "FailedInnerCall",
      "type": "error"
    },
    {
      "inputs": [
        {
          "internalType": "address",
          "name": "owner",
          "type": "address"
        }
      ],
      "name": "OwnableInvalidOwner",
      "type": "error"
    },
    {
      "inputs": [
        {
          "internalType": "address",
          "name": "account",
          "type": "address"
        }
      ],
      "name": "OwnableUnauthorizedAccount",
      "type": "error"
    },
    {
      "inputs": [],
      "name": "ReentrancyGuardReentrantCall",
      "type": "error"
    },
    {
      "anonymous": false,
      "inputs": [
        {
          "indexed": true,
          "internalType": "address",
          "name": "previousOwner",
          "type": "address"
        },
        {
          "indexed": true,
          "internalType": "address",
          "name": "newOwner",
          "type": "address"
        }
      ],
      "name": "OwnershipTransferred",
      "type": "event"
    },
    {
      "anonymous": false,
      "inputs": [
        {
          "indexed": false,
          "internalType": "address",
          "name": "addr",
          "type": "address"
        }
      ],
      "name": "SetFeeWallet",
      "type": "event"
    },
    {
      "anonymous": false,
      "inputs": [
        {
          "indexed": false,
          "internalType": "uint256",
          "name": "",
          "type": "uint256"
        }
      ],
      "name": "SetProtocolFee",
      "type": "event"
    },
    {
      "anonymous": false,
      "inputs": [
        {
          "indexed": false,
          "internalType": "bytes32",
          "name": "routerId",
          "type": "bytes32"
        },
        {
          "indexed": false,
          "internalType": "uint256",
          "name": "amount",
          "type": "uint256"
        },
        {
          "indexed": false,
          "internalType": "address",
          "name": "tokenA",
          "type": "address"
        },
        {
          "indexed": false,
          "internalType": "uint256",
          "name": "feeBps",
          "type": "uint256"
        },
        {
          "indexed": false,
          "internalType": "address",
          "name": "account",
          "type": "address"
        }
      ],
      "name": "Swap",
      "type": "event"
    },
    {
      "stateMutability": "payable",
      "type": "fallback"
    },
    {
      "inputs": [
        {
          "internalType": "bytes32",
          "name": "id",
          "type": "bytes32"
        },
        {
          "internalType": "bytes32",
          "name": "adapter",
          "type": "bytes32"
        },
        {
          "internalType": "address payable",
          "name": "route",
          "type": "address"
        },
        {
          "internalType": "address",
          "name": "factory",
          "type": "address"
        },
        {
          "internalType": "address",
          "name": "weth",
          "type": "address"
        },
        {
          "internalType": "bool",
          "name": "enabled",
          "type": "bool"
        }
      ],
      "name": "addRouter",
      "outputs": [],
      "stateMutability": "nonpayable",
      "type": "function"
    },
    {
      "inputs": [
        {
          "internalType": "uint256",
          "name": "amount",
          "type": "uint256"
        },
        {
          "internalType": "uint256",
          "name": "bps",
          "type": "uint256"
        }
      ],
      "name": "calPercentage",
      "outputs": [
        {
          "internalType": "uint256",
          "name": "",
          "type": "uint256"
        }
      ],
      "stateMutability": "pure",
      "type": "function"
    },
    {
      "inputs": [
        {
          "internalType": "address",
          "name": "uniV2Router",
          "type": "address"
        }
      ],
      "name": "getUniV2RouterInfo",
      "outputs": [
        {
          "internalType": "address",
          "name": "factory",
          "type": "address"
        },
        {
          "internalType": "address",
          "name": "weth",
          "type": "address"
        }
      ],
      "stateMutability": "pure",
      "type": "function"
    },
    {
      "inputs": [
        {
          "internalType": "bytes[]",
          "name": "data",
          "type": "bytes[]"
        }
      ],
      "name": "multicall",
      "outputs": [
        {
          "internalType": "bytes[]",
          "name": "results",
          "type": "bytes[]"
        }
      ],
      "stateMutability": "nonpayable",
      "type": "function"
    },
    {
      "inputs": [],
      "name": "owner",
      "outputs": [
        {
          "internalType": "address",
          "name": "",
          "type": "address"
        }
      ],
      "stateMutability": "view",
      "type": "function"
    },
    {
      "inputs": [
        {
          "internalType": "bool",
          "name": "opt",
          "type": "bool"
        }
      ],
      "name": "pauseSwap",
      "outputs": [],
      "stateMutability": "nonpayable",
      "type": "function"
    },
    {
      "inputs": [],
      "name": "renounceOwnership",
      "outputs": [],
      "stateMutability": "nonpayable",
      "type": "function"
    },
    {
      "inputs": [
        {
          "internalType": "bytes32",
          "name": "",
          "type": "bytes32"
        }
      ],
      "name": "routers",
      "outputs": [
        {
          "internalType": "bytes32",
          "name": "id",
          "type": "bytes32"
        },
        {
          "internalType": "bytes32",
          "name": "adapter",
          "type": "bytes32"
        },
        {
          "internalType": "address payable",
          "name": "route",
          "type": "address"
        },
        {
          "internalType": "address",
          "name": "factory",
          "type": "address"
        },
        {
          "internalType": "address",
          "name": "weth",
          "type": "address"
        },
        {
          "internalType": "uint256",
          "name": "createdAt",
          "type": "uint256"
        },
        {
          "internalType": "bool",
          "name": "enabled",
          "type": "bool"
        }
      ],
      "stateMutability": "view",
      "type": "function"
    },
    {
      "inputs": [
        {
          "internalType": "uint256",
          "name": "",
          "type": "uint256"
        }
      ],
      "name": "routersIds",
      "outputs": [
        {
          "internalType": "bytes32",
          "name": "",
          "type": "bytes32"
        }
      ],
      "stateMutability": "view",
      "type": "function"
    },
    {
      "inputs": [
        {
          "internalType": "address",
          "name": "addr",
          "type": "address"
        }
      ],
      "name": "setFeeWallet",
      "outputs": [],
      "stateMutability": "nonpayable",
      "type": "function"
    },
    {
      "inputs": [
        {
          "internalType": "uint256",
          "name": "_feeBps",
          "type": "uint256"
        }
      ],
      "name": "setProtocolFee",
      "outputs": [],
      "stateMutability": "nonpayable",
      "type": "function"
    },
    {
      "inputs": [
        {
          "internalType": "bytes32",
          "name": "routerId",
          "type": "bytes32"
        },
        {
          "internalType": "uint256",
          "name": "amount",
          "type": "uint256"
        },
        {
          "internalType": "address",
          "name": "tokenA",
          "type": "address"
        },
        {
          "internalType": "bytes",
          "name": "payload",
          "type": "bytes"
        }
      ],
      "name": "swap",
      "outputs": [],
      "stateMutability": "payable",
      "type": "function"
    },
    {
      "inputs": [
        {
          "internalType": "address",
          "name": "newOwner",
          "type": "address"
        }
      ],
      "name": "transferOwnership",
      "outputs": [],
      "stateMutability": "nonpayable",
      "type": "function"
    },
    {
      "inputs": [
        {
          "internalType": "address",
          "name": "token",
          "type": "address"
        },
        {
          "internalType": "uint256",
          "name": "amount",
          "type": "uint256"
        }
      ],
      "name": "withdraw",
      "outputs": [],
      "stateMutability": "nonpayable",
      "type": "function"
    },
    {
      "stateMutability": "payable",
      "type": "receive"
    }
  ],
  "transactionHash": "0xeacd7eb9c335078e3c4c0824b988dbf5d28bb7da9d068501fad96be0d975606d",
  "args": [
    100,
    "0x92c9E17a2f02b2119350F3E90918bEd3c6e24F3c"
  ],
  "numDeployments": 1,
  "solcInputHash": "3b5bec2c79ba320ffbd7eca82a71fcec",
  "bytecode": "0x608060405273eeeeeeeeeeeeeeeeeeeeeeeeeeeeeeeeeeeeeeee600260006101000a81548173ffffffffffffffffffffffffffffffffffffffff021916908373ffffffffffffffffffffffffffffffffffffffff1602179055507f756e695f763200000000000000000000000000000000000000000000000000006003557f756e695f76330000000000000000000000000000000000000000000000000000600455348015620000ae57600080fd5b5060405162002ec438038062002ec48339818101604052810190620000d49190620003d0565b620000e46200019d60201b60201c565b600073ffffffffffffffffffffffffffffffffffffffff168173ffffffffffffffffffffffffffffffffffffffff1603620001595760006040517f1e4fbdf700000000000000000000000000000000000000000000000000000000815260040162000150919062000428565b60405180910390fd5b6200016a81620001a560201b60201c565b50600160088190555062000184826200026b60201b60201c565b6200019581620002ae60201b60201c565b505062000473565b600033905090565b6000600760009054906101000a900473ffffffffffffffffffffffffffffffffffffffff16905081600760006101000a81548173ffffffffffffffffffffffffffffffffffffffff021916908373ffffffffffffffffffffffffffffffffffffffff1602179055508173ffffffffffffffffffffffffffffffffffffffff168173ffffffffffffffffffffffffffffffffffffffff167f8be0079c531659141344cd1fd0a4f28419497f9722a3daafe3b4186f6b6457e060405160405180910390a35050565b806000819055507fdc0410a296e1e33943a772020d333d5f99319d7fcad932a484c53889f7aaa2b181604051620002a3919062000456565b60405180910390a150565b80600160006101000a81548173ffffffffffffffffffffffffffffffffffffffff021916908373ffffffffffffffffffffffffffffffffffffffff1602179055507f3d21e5a2b633291bd1ff5f9c654e402d063783c95759d2ea521b31fb30e4da418160405162000320919062000428565b60405180910390a150565b600080fd5b6000819050919050565b620003458162000330565b81146200035157600080fd5b50565b60008151905062000365816200033a565b92915050565b600073ffffffffffffffffffffffffffffffffffffffff82169050919050565b600062000398826200036b565b9050919050565b620003aa816200038b565b8114620003b657600080fd5b50565b600081519050620003ca816200039f565b92915050565b60008060408385031215620003ea57620003e96200032b565b5b6000620003fa8582860162000354565b92505060206200040d85828601620003b9565b9150509250929050565b62000422816200038b565b82525050565b60006020820190506200043f600083018462000417565b92915050565b620004508162000330565b82525050565b60006020820190506200046d600083018462000445565b92915050565b612a4180620004836000396000f3fe6080604052600436106100e15760003560e01c80638da5cb5b1161007f578063aa1fce6911610059578063aa1fce69146102a4578063ac9650d8146102e7578063f2fde38b14610324578063f3fef3a31461034d576100e8565b80638da5cb5b1461022757806390d49b9d146102525780639d6304211461027b576100e8565b8063438c74fd116100bb578063438c74fd1461018d5780636f8e6176146101cb578063715018a6146101e7578063787dce3d146101fe576100e8565b80631b80b510146100ea57806328b70aea1461012757806339691ed914610164576100e8565b366100e857005b005b3480156100f657600080fd5b50610111600480360381019061010c9190611880565b610376565b60405161011e91906118cf565b60405180910390f35b34801561013357600080fd5b5061014e600480360381019061014991906118ea565b6103b3565b60405161015b9190611930565b60405180910390f35b34801561017057600080fd5b5061018b60048036038101906101869190611983565b6103d7565b005b34801561019957600080fd5b506101b460048036038101906101af9190611a0e565b6103fc565b6040516101c2929190611a4a565b60405180910390f35b6101e560048036038101906101e09190611b04565b610582565b005b3480156101f357600080fd5b506101fc610a85565b005b34801561020a57600080fd5b50610225600480360381019061022091906118ea565b610a99565b005b34801561023357600080fd5b5061023c610aad565b6040516102499190611b8c565b60405180910390f35b34801561025e57600080fd5b5061027960048036038101906102749190611a0e565b610ad7565b005b34801561028757600080fd5b506102a2600480360381019061029d9190611be5565b610aeb565b005b3480156102b057600080fd5b506102cb60048036038101906102c69190611c72565b610e78565b6040516102de9796959493929190611cbd565b60405180910390f35b3480156102f357600080fd5b5061030e60048036038101906103099190611d82565b610f27565b60405161031b9190611f21565b60405180910390f35b34801561033057600080fd5b5061034b60048036038101906103469190611a0e565b611033565b005b34801561035957600080fd5b50610374600480360381019061036f9190611f43565b6110b9565b005b600061271082846103879190611fb2565b101561039257600080fd5b61271082846103a19190611fb2565b6103ab9190612023565b905092915050565b600681815481106103c357600080fd5b906000526020600020016000915090505481565b6103df6110d8565b80600960006101000a81548160ff02191690831515021790555050565b600080600083905060006040518060800160405280605081526020016129bc6050913990508173ffffffffffffffffffffffffffffffffffffffff1663c45a01556040518163ffffffff1660e01b8152600401602060405180830381865afa92505050801561048957506040513d601f19601f820116820180604052508101906104869190612069565b60015b6104ca57806040517f08c379a00000000000000000000000000000000000000000000000000000000081526004016104c191906120eb565b60405180910390fd5b809450508173ffffffffffffffffffffffffffffffffffffffff1663ad5c46486040518163ffffffff1660e01b8152600401602060405180830381865afa92505050801561053657506040513d601f19601f820116820180604052508101906105339190612069565b60015b61057757806040517f08c379a000000000000000000000000000000000000000000000000000000000815260040161056e91906120eb565b60405180910390fd5b809350505050915091565b61058a61115f565b600960009054906101000a900460ff16156105da576040517f08c379a00000000000000000000000000000000000000000000000000000000081526004016105d190612159565b60405180910390fd5b6000600560008781526020019081526020016000206005015411610633576040517f08c379a000000000000000000000000000000000000000000000000000000000815260040161062a906121c5565b60405180910390fd5b60008282905011610679576040517f08c379a000000000000000000000000000000000000000000000000000000000815260040161067090612231565b60405180910390fd5b600073ffffffffffffffffffffffffffffffffffffffff168373ffffffffffffffffffffffffffffffffffffffff16036106e8576040517f08c379a00000000000000000000000000000000000000000000000000000000081526004016106df9061229d565b60405180910390fd5b600260009054906101000a900473ffffffffffffffffffffffffffffffffffffffff1673ffffffffffffffffffffffffffffffffffffffff168373ffffffffffffffffffffffffffffffffffffffff16036107845783341461077f576040517f08c379a000000000000000000000000000000000000000000000000000000000815260040161077690612309565b60405180910390fd5b610798565b610797836107906111a5565b30876111ad565b5b60006107a685600054610376565b856107b19190612329565b90506107e8846107bf6111a5565b600160009054906101000a900473ffffffffffffffffffffffffffffffffffffffff16846111ad565b60006005600088815260200190815260200160002060020160009054906101000a900473ffffffffffffffffffffffffffffffffffffffff169050600082876108319190612329565b9050600260009054906101000a900473ffffffffffffffffffffffffffffffffffffffff1673ffffffffffffffffffffffffffffffffffffffff168673ffffffffffffffffffffffffffffffffffffffff16036108fd576108f785858080601f016020809104026020016040519081016040528093929190818152602001838380828437600081840152601f19601f82011690508083019250505050505050828473ffffffffffffffffffffffffffffffffffffffff166112249092919063ffffffff16565b50610a2b565b8573ffffffffffffffffffffffffffffffffffffffff1663095ea7b383836040518363ffffffff1660e01b815260040161093892919061235d565b6020604051808303816000875af1158015610957573d6000803e3d6000fd5b505050506040513d601f19601f8201168201806040525081019061097b919061239b565b6109ba576040517f08c379a00000000000000000000000000000000000000000000000000000000081526004016109b19061243a565b60405180910390fd5b610a2985858080601f016020809104026020016040519081016040528093929190818152602001838380828437600081840152601f19601f82011690508083019250505050505050348473ffffffffffffffffffffffffffffffffffffffff166112249092919063ffffffff16565b505b7fa1cf747ad001476b442e3c9c4a2b2180fbc1b3a710b44c90e2f2d23d2f2710c2888888600054610a5a6111a5565b604051610a6b95949392919061245a565b60405180910390a1505050610a7e6112f1565b5050505050565b610a8d6110d8565b610a9760006112fb565b565b610aa16110d8565b610aaa816113c1565b50565b6000600760009054906101000a900473ffffffffffffffffffffffffffffffffffffffff16905090565b610adf6110d8565b610ae881611402565b50565b610af36110d8565b600073ffffffffffffffffffffffffffffffffffffffff168473ffffffffffffffffffffffffffffffffffffffff1603610b62576040517f08c379a0000000000000000000000000000000000000000000000000000000008152600401610b599061251f565b60405180910390fd5b610b6b8461147d565b610baa576040517f08c379a0000000000000000000000000000000000000000000000000000000008152600401610ba1906125b1565b60405180910390fd5b6000806005600089815260200190815260200160002060050154149050600081610bea576005600089815260200190815260200160002060050154610bec565b425b90506003548703610c0d57610c00866103fc565b8095508196505050610c9e565b610c168561147d565b610c55576040517f08c379a0000000000000000000000000000000000000000000000000000000008152600401610c4c90612643565b60405180910390fd5b610c5e8461147d565b610c9d576040517f08c379a0000000000000000000000000000000000000000000000000000000008152600401610c94906126d5565b60405180910390fd5b5b6040518060e001604052808981526020018881526020018773ffffffffffffffffffffffffffffffffffffffff1681526020018673ffffffffffffffffffffffffffffffffffffffff1681526020018573ffffffffffffffffffffffffffffffffffffffff168152602001828152602001841515815250600560008a8152602001908152602001600020600082015181600001556020820151816001015560408201518160020160006101000a81548173ffffffffffffffffffffffffffffffffffffffff021916908373ffffffffffffffffffffffffffffffffffffffff16021790555060608201518160030160006101000a81548173ffffffffffffffffffffffffffffffffffffffff021916908373ffffffffffffffffffffffffffffffffffffffff16021790555060808201518160040160006101000a81548173ffffffffffffffffffffffffffffffffffffffff021916908373ffffffffffffffffffffffffffffffffffffffff16021790555060a0820151816005015560c08201518160060160006101000a81548160ff0219169083151502179055509050508115610e6e5760068890806001815401808255809150506001900390600052602060002001600090919091909150555b5050505050505050565b60056020528060005260406000206000915090508060000154908060010154908060020160009054906101000a900473ffffffffffffffffffffffffffffffffffffffff16908060030160009054906101000a900473ffffffffffffffffffffffffffffffffffffffff16908060040160009054906101000a900473ffffffffffffffffffffffffffffffffffffffff16908060050154908060060160009054906101000a900460ff16905087565b60608282905067ffffffffffffffff811115610f4657610f456126f5565b5b604051908082528060200260200182016040528015610f7957816020015b6060815260200190600190039081610f645790505b50905060005b8383905081101561102c57610ffb30858584818110610fa157610fa0612724565b5b9050602002810190610fb39190612762565b8080601f016020809104026020016040519081016040528093929190818152602001838380828437600081840152601f19601f82011690508083019250505050505050611490565b82828151811061100e5761100d612724565b5b60200260200101819052508080611024906127c5565b915050610f7f565b5092915050565b61103b6110d8565b600073ffffffffffffffffffffffffffffffffffffffff168173ffffffffffffffffffffffffffffffffffffffff16036110ad5760006040517f1e4fbdf70000000000000000000000000000000000000000000000000000000081526004016110a49190611b8c565b60405180910390fd5b6110b6816112fb565b50565b6110c16110d8565b6110d482306110ce6111a5565b846111ad565b5050565b6110e06111a5565b73ffffffffffffffffffffffffffffffffffffffff166110fe610aad565b73ffffffffffffffffffffffffffffffffffffffff161461115d576111216111a5565b6040517f118cdaa70000000000000000000000000000000000000000000000000000000081526004016111549190611b8c565b60405180910390fd5b565b60026008540361119b576040517f3ee5aeb500000000000000000000000000000000000000000000000000000000815260040160405180910390fd5b6002600881905550565b600033905090565b600260009054906101000a900473ffffffffffffffffffffffffffffffffffffffff1673ffffffffffffffffffffffffffffffffffffffff168473ffffffffffffffffffffffffffffffffffffffff16036112115761120c8282611514565b61121e565b61121d84848484611614565b5b50505050565b60608147101561126b57306040517fcd7860590000000000000000000000000000000000000000000000000000000081526004016112629190611b8c565b60405180910390fd5b6000808573ffffffffffffffffffffffffffffffffffffffff1684866040516112949190612849565b60006040518083038185875af1925050503d80600081146112d1576040519150601f19603f3d011682016040523d82523d6000602084013e6112d6565b606091505b50915091506112e686838361176c565b925050509392505050565b6001600881905550565b6000600760009054906101000a900473ffffffffffffffffffffffffffffffffffffffff16905081600760006101000a81548173ffffffffffffffffffffffffffffffffffffffff021916908373ffffffffffffffffffffffffffffffffffffffff1602179055508173ffffffffffffffffffffffffffffffffffffffff168173ffffffffffffffffffffffffffffffffffffffff167f8be0079c531659141344cd1fd0a4f28419497f9722a3daafe3b4186f6b6457e060405160405180910390a35050565b806000819055507fdc0410a296e1e33943a772020d333d5f99319d7fcad932a484c53889f7aaa2b1816040516113f791906118cf565b60405180910390a150565b80600160006101000a81548173ffffffffffffffffffffffffffffffffffffffff021916908373ffffffffffffffffffffffffffffffffffffffff1602179055507f3d21e5a2b633291bd1ff5f9c654e402d063783c95759d2ea521b31fb30e4da41816040516114729190611b8c565b60405180910390a150565b600080823b905060008111915050919050565b60606000808473ffffffffffffffffffffffffffffffffffffffff16846040516114ba9190612849565b600060405180830381855af49150503d80600081146114f5576040519150601f19603f3d011682016040523d82523d6000602084013e6114fa565b606091505b509150915061150a85838361176c565b9250505092915050565b60008273ffffffffffffffffffffffffffffffffffffffff1682600067ffffffffffffffff811115611549576115486126f5565b5b6040519080825280601f01601f19166020018201604052801561157b5781602001600182028036833780820191505090505b506040516115899190612849565b60006040518083038185875af1925050503d80600081146115c6576040519150601f19603f3d011682016040523d82523d6000602084013e6115cb565b606091505b505090508061160f576040517f08c379a0000000000000000000000000000000000000000000000000000000008152600401611606906128d2565b60405180910390fd5b505050565b6000808573ffffffffffffffffffffffffffffffffffffffff166323b872dd60e01b86868660405160240161164b939291906128f2565b604051602081830303815290604052907bffffffffffffffffffffffffffffffffffffffffffffffffffffffff19166020820180517bffffffffffffffffffffffffffffffffffffffffffffffffffffffff83818316178352505050506040516116b59190612849565b6000604051808303816000865af19150503d80600081146116f2576040519150601f19603f3d011682016040523d82523d6000602084013e6116f7565b606091505b50915091508180156117255750600081511480611724575080806020019051810190611723919061239b565b5b5b611764576040517f08c379a000000000000000000000000000000000000000000000000000000000815260040161175b9061299b565b60405180910390fd5b505050505050565b6060826117815761177c826117fb565b6117f3565b600082511480156117a9575060008473ffffffffffffffffffffffffffffffffffffffff163b145b156117eb57836040517f9996b3150000000000000000000000000000000000000000000000000000000081526004016117e29190611b8c565b60405180910390fd5b8190506117f4565b5b9392505050565b60008151111561180e5780518082602001fd5b6040517f1425ea4200000000000000000000000000000000000000000000000000000000815260040160405180910390fd5b600080fd5b600080fd5b6000819050919050565b61185d8161184a565b811461186857600080fd5b50565b60008135905061187a81611854565b92915050565b6000806040838503121561189757611896611840565b5b60006118a58582860161186b565b92505060206118b68582860161186b565b9150509250929050565b6118c98161184a565b82525050565b60006020820190506118e460008301846118c0565b92915050565b600060208284031215611900576118ff611840565b5b600061190e8482850161186b565b91505092915050565b6000819050919050565b61192a81611917565b82525050565b60006020820190506119456000830184611921565b92915050565b60008115159050919050565b6119608161194b565b811461196b57600080fd5b50565b60008135905061197d81611957565b92915050565b60006020828403121561199957611998611840565b5b60006119a78482850161196e565b91505092915050565b600073ffffffffffffffffffffffffffffffffffffffff82169050919050565b60006119db826119b0565b9050919050565b6119eb816119d0565b81146119f657600080fd5b50565b600081359050611a08816119e2565b92915050565b600060208284031215611a2457611a23611840565b5b6000611a32848285016119f9565b91505092915050565b611a44816119d0565b82525050565b6000604082019050611a5f6000830185611a3b565b611a6c6020830184611a3b565b9392505050565b611a7c81611917565b8114611a8757600080fd5b50565b600081359050611a9981611a73565b92915050565b600080fd5b600080fd5b600080fd5b60008083601f840112611ac457611ac3611a9f565b5b8235905067ffffffffffffffff811115611ae157611ae0611aa4565b5b602083019150836001820283011115611afd57611afc611aa9565b5b9250929050565b600080600080600060808688031215611b2057611b1f611840565b5b6000611b2e88828901611a8a565b9550506020611b3f8882890161186b565b9450506040611b50888289016119f9565b935050606086013567ffffffffffffffff811115611b7157611b70611845565b5b611b7d88828901611aae565b92509250509295509295909350565b6000602082019050611ba16000830184611a3b565b92915050565b6000611bb2826119b0565b9050919050565b611bc281611ba7565b8114611bcd57600080fd5b50565b600081359050611bdf81611bb9565b92915050565b60008060008060008060c08789031215611c0257611c01611840565b5b6000611c1089828a01611a8a565b9650506020611c2189828a01611a8a565b9550506040611c3289828a01611bd0565b9450506060611c4389828a016119f9565b9350506080611c5489828a016119f9565b92505060a0611c6589828a0161196e565b9150509295509295509295565b600060208284031215611c8857611c87611840565b5b6000611c9684828501611a8a565b91505092915050565b611ca881611ba7565b82525050565b611cb78161194b565b82525050565b600060e082019050611cd2600083018a611921565b611cdf6020830189611921565b611cec6040830188611c9f565b611cf96060830187611a3b565b611d066080830186611a3b565b611d1360a08301856118c0565b611d2060c0830184611cae565b98975050505050505050565b60008083601f840112611d4257611d41611a9f565b5b8235905067ffffffffffffffff811115611d5f57611d5e611aa4565b5b602083019150836020820283011115611d7b57611d7a611aa9565b5b9250929050565b60008060208385031215611d9957611d98611840565b5b600083013567ffffffffffffffff811115611db757611db6611845565b5b611dc385828601611d2c565b92509250509250929050565b600081519050919050565b600082825260208201905092915050565b6000819050602082019050919050565b600081519050919050565b600082825260208201905092915050565b60005b83811015611e35578082015181840152602081019050611e1a565b60008484015250505050565b6000601f19601f8301169050919050565b6000611e5d82611dfb565b611e678185611e06565b9350611e77818560208601611e17565b611e8081611e41565b840191505092915050565b6000611e978383611e52565b905092915050565b6000602082019050919050565b6000611eb782611dcf565b611ec18185611dda565b935083602082028501611ed385611deb565b8060005b85811015611f0f5784840389528151611ef08582611e8b565b9450611efb83611e9f565b925060208a01995050600181019050611ed7565b50829750879550505050505092915050565b60006020820190508181036000830152611f3b8184611eac565b905092915050565b60008060408385031215611f5a57611f59611840565b5b6000611f68858286016119f9565b9250506020611f798582860161186b565b9150509250929050565b7f4e487b7100000000000000000000000000000000000000000000000000000000600052601160045260246000fd5b6000611fbd8261184a565b9150611fc88361184a565b9250828202611fd68161184a565b91508282048414831517611fed57611fec611f83565b5b5092915050565b7f4e487b7100000000000000000000000000000000000000000000000000000000600052601260045260246000fd5b600061202e8261184a565b91506120398361184a565b92508261204957612048611ff4565b5b828204905092915050565b600081519050612063816119e2565b92915050565b60006020828403121561207f5761207e611840565b5b600061208d84828501612054565b91505092915050565b600081519050919050565b600082825260208201905092915050565b60006120bd82612096565b6120c781856120a1565b93506120d7818560208601611e17565b6120e081611e41565b840191505092915050565b6000602082019050818103600083015261210581846120b2565b905092915050565b7f426f74466923737761704e6f745061757365643a20535741505f504155534544600082015250565b60006121436020836120a1565b915061214e8261210d565b602082019050919050565b6000602082019050818103600083015261217281612136565b9050919050565b7f426f74466923537761703a20554e535550504f525445445f4445580000000000600082015250565b60006121af601b836120a1565b91506121ba82612179565b602082019050919050565b600060208201905081810360008301526121de816121a2565b9050919050565b7f426f74466923537761703a20444154415f4152475f5245515549524544000000600082015250565b600061221b601d836120a1565b9150612226826121e5565b602082019050919050565b6000602082019050818103600083015261224a8161220e565b9050919050565b7f426f74466923537761703a205a45524f5f544f4b454e415f4144445200000000600082015250565b6000612287601c836120a1565b915061229282612251565b602082019050919050565b600060208201905081810360008301526122b68161227a565b9050919050565b7f426f74466923537761703a20494e53554646494349454e545f42414c414e4345600082015250565b60006122f36020836120a1565b91506122fe826122bd565b602082019050919050565b60006020820190508181036000830152612322816122e6565b9050919050565b60006123348261184a565b915061233f8361184a565b925082820390508181111561235757612356611f83565b5b92915050565b60006040820190506123726000830185611a3b565b61237f60208301846118c0565b9392505050565b60008151905061239581611957565b92915050565b6000602082840312156123b1576123b0611840565b5b60006123bf84828501612386565b91505092915050565b7f426f74466923537761703a20544f4b454e415f415050524f56414c5f4641494c60008201527f4544000000000000000000000000000000000000000000000000000000000000602082015250565b60006124246022836120a1565b915061242f826123c8565b604082019050919050565b6000602082019050818103600083015261245381612417565b9050919050565b600060a08201905061246f6000830188611921565b61247c60208301876118c0565b6124896040830186611a3b565b61249660608301856118c0565b6124a36080830184611a3b565b9695505050505050565b7f426f7446692353776170456e67696e6523616464526f757465723a205a45524f60008201527f5f524f555445525f414444524553530000000000000000000000000000000000602082015250565b6000612509602f836120a1565b9150612514826124ad565b604082019050919050565b60006020820190508181036000830152612538816124fc565b9050919050565b7f426f7446692353776170456e67696e6523616464526f757465723a20524f555460008201527f455f4e4f545f415f434f4e545241435400000000000000000000000000000000602082015250565b600061259b6030836120a1565b91506125a68261253f565b604082019050919050565b600060208201905081810360008301526125ca8161258e565b9050919050565b7f426f7446692353776170456e67696e6523616464526f757465723a204641435460008201527f4f52595f4e4f545f415f434f4e54524143540000000000000000000000000000602082015250565b600061262d6032836120a1565b9150612638826125d1565b604082019050919050565b6000602082019050818103600083015261265c81612620565b9050919050565b7f426f7446692353776170456e67696e6523616464526f757465723a205745544860008201527f5f4e4f545f415f434f4e54524143540000000000000000000000000000000000602082015250565b60006126bf602f836120a1565b91506126ca82612663565b604082019050919050565b600060208201905081810360008301526126ee816126b2565b9050919050565b7f4e487b7100000000000000000000000000000000000000000000000000000000600052604160045260246000fd5b7f4e487b7100000000000000000000000000000000000000000000000000000000600052603260045260246000fd5b600080fd5b600080fd5b600080fd5b6000808335600160200384360303811261277f5761277e612753565b5b80840192508235915067ffffffffffffffff8211156127a1576127a0612758565b5b6020830192506001820236038313156127bd576127bc61275d565b5b509250929050565b60006127d08261184a565b91507fffffffffffffffffffffffffffffffffffffffffffffffffffffffffffffffff820361280257612801611f83565b5b600182019050919050565b600081905092915050565b600061282382611dfb565b61282d818561280d565b935061283d818560208601611e17565b80840191505092915050565b60006128558284612818565b915081905092915050565b7f426f744669235472616e7366657248656c7065723a204554485f5452414e534660008201527f45525f4641494c45440000000000000000000000000000000000000000000000602082015250565b60006128bc6029836120a1565b91506128c782612860565b604082019050919050565b600060208201905081810360008301526128eb816128af565b9050919050565b60006060820190506129076000830186611a3b565b6129146020830185611a3b565b61292160408301846118c0565b949350505050565b7f426f744669235472616e7366657248656c7065723a20544f4b454e5f5452414e60008201527f534645525f4641494c4544000000000000000000000000000000000000000000602082015250565b6000612985602b836120a1565b915061299082612929565b604082019050919050565b600060208201905081810360008301526129b481612978565b905091905056fe426f7446692353776170456e67696e6523676574556e695632526f75746572496e666f3a20496e76616c696420556e69737761702056322042617365642044657820526f757465722041646472657373a2646970667358221220c7178949399e38c3c39fafdbc9e7e8bfa21173ee3731bcdce25b0626ad70d66f64736f6c63430008140033",
  "devdoc": {
    "errors": {
      "AddressEmptyCode(address)": [
        {
          "details": "There's no code at `target` (it is not a contract)."
        }
      ],
      "AddressInsufficientBalance(address)": [
        {
          "details": "The ETH balance of the account is not enough to perform the operation."
        }
      ],
      "FailedInnerCall()": [
        {
          "details": "A call to an address target failed. The target may have reverted."
        }
      ],
      "OwnableInvalidOwner(address)": [
        {
          "details": "The owner is not a valid owner account. (eg. `address(0)`)"
        }
      ],
      "OwnableUnauthorizedAccount(address)": [
        {
          "details": "The caller account is not authorized to perform an operation."
        }
      ],
      "ReentrancyGuardReentrantCall()": [
        {
          "details": "Unauthorized reentrant call."
        }
      ]
    },
    "kind": "dev",
    "methods": {
      "calPercentage(uint256,uint256)": {
        "details": "convert percentage in basis point of a value ",
        "params": {
          "amount": "the amount to be calculated on",
          "bps": "percentage value in basis point"
        }
      },
      "getUniV2RouterInfo(address)": {
        "details": "fecth uniswap v2 router info",
        "params": {
          "uniV2Router": "the router address"
        },
        "returns": {
          "factory": "the factory contract address",
          "weth": "the wrapped ether address"
        }
      },
      "multicall(bytes[])": {
        "custom:oz-upgrades-unsafe-allow-reachable": "delegatecall",
        "details": "Receives and executes a batch of function calls on this contract."
      },
      "owner()": {
        "details": "Returns the address of the current owner."
      },
      "pauseSwap(bool)": {
        "details": "pause the swap operation for the contract",
        "params": {
          "opt": "true or false "
        }
      },
      "renounceOwnership()": {
        "details": "Leaves the contract without owner. It will not be possible to call `onlyOwner` functions. Can only be called by the current owner. NOTE: Renouncing ownership will leave the contract without an owner, thereby disabling any functionality that is only available to the owner."
      },
      "setFeeWallet(address)": {
        "details": "set the address for taking the protocol fees",
        "params": {
          "addr": "the fee in percentage basis point"
        }
      },
      "setProtocolFee(uint256)": {
        "details": "protocol fee in basis point",
        "params": {
          "_feeBps": "the fee in percentage basis point"
        }
      },
      "swap(bytes32,uint256,address,bytes)": {
        "details": "perform a swap",
        "params": {
          "amount": "the total amount including the protocol fee for the swap",
          "payload": "the encoded swap data to foward to the router",
          "routerId": "the identifier of the router to use",
          "tokenA": "the token to swap into another token (tokenB)"
        }
      },
      "transferOwnership(address)": {
        "details": "Transfers ownership of the contract to a new account (`newOwner`). Can only be called by the current owner."
      },
      "withdraw(address,uint256)": {
        "details": "withdraw any stucked tokens in the contract",
        "params": {
          "amount": "the amount to move out",
          "token": "the token address to withdraw"
        }
      }
    },
    "version": 1
  },
  "userdoc": {
    "kind": "user",
    "methods": {},
    "version": 1
  },
  "storageLayout": {
    "storage": [
      {
        "astId": 756,
        "contract": "contracts/Factory.sol:Factory",
        "label": "PROTOCOL_FEE",
        "offset": 0,
        "slot": "0",
        "type": "t_uint256"
      },
      {
        "astId": 758,
        "contract": "contracts/Factory.sol:Factory",
        "label": "FEE_WALLET",
        "offset": 0,
        "slot": "1",
        "type": "t_address"
      },
      {
        "astId": 761,
        "contract": "contracts/Factory.sol:Factory",
        "label": "NATIVE_TOKEN",
        "offset": 0,
        "slot": "2",
        "type": "t_address"
      },
      {
        "astId": 767,
        "contract": "contracts/Factory.sol:Factory",
        "label": "ADAPTER_UNI_V2",
        "offset": 0,
        "slot": "3",
        "type": "t_bytes32"
      },
      {
        "astId": 773,
        "contract": "contracts/Factory.sol:Factory",
        "label": "ADAPTER_UNI_V3",
        "offset": 0,
        "slot": "4",
        "type": "t_bytes32"
      },
      {
        "astId": 778,
        "contract": "contracts/Factory.sol:Factory",
        "label": "routers",
        "offset": 0,
        "slot": "5",
        "type": "t_mapping(t_bytes32,t_struct(RouterParams)796_storage)"
      },
      {
        "astId": 781,
        "contract": "contracts/Factory.sol:Factory",
        "label": "routersIds",
        "offset": 0,
        "slot": "6",
        "type": "t_array(t_bytes32)dyn_storage"
      },
      {
        "astId": 8,
        "contract": "contracts/Factory.sol:Factory",
        "label": "_owner",
        "offset": 0,
        "slot": "7",
        "type": "t_address"
      },
      {
        "astId": 571,
        "contract": "contracts/Factory.sol:Factory",
        "label": "_status",
        "offset": 0,
        "slot": "8",
        "type": "t_uint256"
      },
      {
        "astId": 3048,
        "contract": "contracts/Factory.sol:Factory",
        "label": "swapPaused",
        "offset": 0,
        "slot": "9",
        "type": "t_bool"
      }
    ],
    "types": {
      "t_address": {
        "encoding": "inplace",
        "label": "address",
        "numberOfBytes": "20"
      },
      "t_address_payable": {
        "encoding": "inplace",
        "label": "address payable",
        "numberOfBytes": "20"
      },
      "t_array(t_bytes32)dyn_storage": {
        "base": "t_bytes32",
        "encoding": "dynamic_array",
        "label": "bytes32[]",
        "numberOfBytes": "32"
      },
      "t_bool": {
        "encoding": "inplace",
        "label": "bool",
        "numberOfBytes": "1"
      },
      "t_bytes32": {
        "encoding": "inplace",
        "label": "bytes32",
        "numberOfBytes": "32"
      },
      "t_mapping(t_bytes32,t_struct(RouterParams)796_storage)": {
        "encoding": "mapping",
        "key": "t_bytes32",
        "label": "mapping(bytes32 => struct Defs.RouterParams)",
        "numberOfBytes": "32",
        "value": "t_struct(RouterParams)796_storage"
      },
      "t_struct(RouterParams)796_storage": {
        "encoding": "inplace",
        "label": "struct Defs.RouterParams",
        "members": [
          {
            "astId": 783,
            "contract": "contracts/Factory.sol:Factory",
            "label": "id",
            "offset": 0,
            "slot": "0",
            "type": "t_bytes32"
          },
          {
            "astId": 785,
            "contract": "contracts/Factory.sol:Factory",
            "label": "adapter",
            "offset": 0,
            "slot": "1",
            "type": "t_bytes32"
          },
          {
            "astId": 787,
            "contract": "contracts/Factory.sol:Factory",
            "label": "route",
            "offset": 0,
            "slot": "2",
            "type": "t_address_payable"
          },
          {
            "astId": 789,
            "contract": "contracts/Factory.sol:Factory",
            "label": "factory",
            "offset": 0,
            "slot": "3",
            "type": "t_address"
          },
          {
            "astId": 791,
            "contract": "contracts/Factory.sol:Factory",
            "label": "weth",
            "offset": 0,
            "slot": "4",
            "type": "t_address"
          },
          {
            "astId": 793,
            "contract": "contracts/Factory.sol:Factory",
            "label": "createdAt",
            "offset": 0,
            "slot": "5",
            "type": "t_uint256"
          },
          {
            "astId": 795,
            "contract": "contracts/Factory.sol:Factory",
            "label": "enabled",
            "offset": 0,
            "slot": "6",
            "type": "t_bool"
          }
        ],
        "numberOfBytes": "224"
      },
      "t_uint256": {
        "encoding": "inplace",
        "label": "uint256",
        "numberOfBytes": "32"
      }
    }
  }
}