{
  "address": "0x1F86E21d6c12bfF63C74909143B37795958D7B3F",
  "abi": [
    {
      "inputs": [
        {
          "internalType": "uint256",
          "name": "protocolFee",
          "type": "uint256"
        },
        {
          "internalType": "address",
          "name": "feeWallet",
          "type": "address"
        }
      ],
      "stateMutability": "nonpayable",
      "type": "constructor"
    },
    {
      "inputs": [
        {
          "internalType": "address",
          "name": "target",
          "type": "address"
        }
      ],
      "name": "AddressEmptyCode",
      "type": "error"
    },
    {
      "inputs": [
        {
          "internalType": "address",
          "name": "account",
          "type": "address"
        }
      ],
      "name": "AddressInsufficientBalance",
      "type": "error"
    },
    {
      "inputs": [],
      "name": "FailedInnerCall",
      "type": "error"
    },
    {
      "inputs": [
        {
          "internalType": "address",
          "name": "owner",
          "type": "address"
        }
      ],
      "name": "OwnableInvalidOwner",
      "type": "error"
    },
    {
      "inputs": [
        {
          "internalType": "address",
          "name": "account",
          "type": "address"
        }
      ],
      "name": "OwnableUnauthorizedAccount",
      "type": "error"
    },
    {
      "inputs": [],
      "name": "ReentrancyGuardReentrantCall",
      "type": "error"
    },
    {
      "anonymous": false,
      "inputs": [
        {
          "indexed": true,
          "internalType": "address",
          "name": "previousOwner",
          "type": "address"
        },
        {
          "indexed": true,
          "internalType": "address",
          "name": "newOwner",
          "type": "address"
        }
      ],
      "name": "OwnershipTransferred",
      "type": "event"
    },
    {
      "anonymous": false,
      "inputs": [
        {
          "indexed": false,
          "internalType": "address",
          "name": "addr",
          "type": "address"
        }
      ],
      "name": "SetFeeWallet",
      "type": "event"
    },
    {
      "anonymous": false,
      "inputs": [
        {
          "indexed": false,
          "internalType": "uint256",
          "name": "",
          "type": "uint256"
        }
      ],
      "name": "SetProtocolFee",
      "type": "event"
    },
    {
      "anonymous": false,
      "inputs": [
        {
          "indexed": false,
          "internalType": "bytes32",
          "name": "routerId",
          "type": "bytes32"
        },
        {
          "indexed": false,
          "internalType": "uint256",
          "name": "amount",
          "type": "uint256"
        },
        {
          "indexed": false,
          "internalType": "address",
          "name": "tokenA",
          "type": "address"
        },
        {
          "indexed": false,
          "internalType": "uint256",
          "name": "feeBps",
          "type": "uint256"
        },
        {
          "indexed": false,
          "internalType": "address",
          "name": "account",
          "type": "address"
        }
      ],
      "name": "Swap",
      "type": "event"
    },
    {
      "stateMutability": "payable",
      "type": "fallback"
    },
    {
      "inputs": [
        {
          "internalType": "bytes32",
          "name": "id",
          "type": "bytes32"
        },
        {
          "internalType": "bytes32",
          "name": "adapter",
          "type": "bytes32"
        },
        {
          "internalType": "address payable",
          "name": "route",
          "type": "address"
        },
        {
          "internalType": "address",
          "name": "factory",
          "type": "address"
        },
        {
          "internalType": "address",
          "name": "weth",
          "type": "address"
        },
        {
          "internalType": "bool",
          "name": "enabled",
          "type": "bool"
        }
      ],
      "name": "addRouter",
      "outputs": [],
      "stateMutability": "nonpayable",
      "type": "function"
    },
    {
      "inputs": [
        {
          "internalType": "uint256",
          "name": "amount",
          "type": "uint256"
        },
        {
          "internalType": "uint256",
          "name": "bps",
          "type": "uint256"
        }
      ],
      "name": "calPercentage",
      "outputs": [
        {
          "internalType": "uint256",
          "name": "",
          "type": "uint256"
        }
      ],
      "stateMutability": "pure",
      "type": "function"
    },
    {
      "inputs": [
        {
          "internalType": "bytes[]",
          "name": "data",
          "type": "bytes[]"
        }
      ],
      "name": "multicall",
      "outputs": [
        {
          "internalType": "bytes[]",
          "name": "results",
          "type": "bytes[]"
        }
      ],
      "stateMutability": "nonpayable",
      "type": "function"
    },
    {
      "inputs": [],
      "name": "owner",
      "outputs": [
        {
          "internalType": "address",
          "name": "",
          "type": "address"
        }
      ],
      "stateMutability": "view",
      "type": "function"
    },
    {
      "inputs": [
        {
          "internalType": "bool",
          "name": "opt",
          "type": "bool"
        }
      ],
      "name": "pauseSwap",
      "outputs": [],
      "stateMutability": "nonpayable",
      "type": "function"
    },
    {
      "inputs": [],
      "name": "renounceOwnership",
      "outputs": [],
      "stateMutability": "nonpayable",
      "type": "function"
    },
    {
      "inputs": [
        {
          "internalType": "bytes32",
          "name": "",
          "type": "bytes32"
        }
      ],
      "name": "routers",
      "outputs": [
        {
          "internalType": "bytes32",
          "name": "id",
          "type": "bytes32"
        },
        {
          "internalType": "bytes32",
          "name": "adapter",
          "type": "bytes32"
        },
        {
          "internalType": "address payable",
          "name": "route",
          "type": "address"
        },
        {
          "internalType": "address",
          "name": "factory",
          "type": "address"
        },
        {
          "internalType": "address",
          "name": "weth",
          "type": "address"
        },
        {
          "internalType": "uint256",
          "name": "createdAt",
          "type": "uint256"
        },
        {
          "internalType": "bool",
          "name": "enabled",
          "type": "bool"
        }
      ],
      "stateMutability": "view",
      "type": "function"
    },
    {
      "inputs": [
        {
          "internalType": "uint256",
          "name": "",
          "type": "uint256"
        }
      ],
      "name": "routersIds",
      "outputs": [
        {
          "internalType": "bytes32",
          "name": "",
          "type": "bytes32"
        }
      ],
      "stateMutability": "view",
      "type": "function"
    },
    {
      "inputs": [
        {
          "internalType": "address",
          "name": "addr",
          "type": "address"
        }
      ],
      "name": "setFeeWallet",
      "outputs": [],
      "stateMutability": "nonpayable",
      "type": "function"
    },
    {
      "inputs": [
        {
          "internalType": "uint256",
          "name": "_feeBps",
          "type": "uint256"
        }
      ],
      "name": "setProtocolFee",
      "outputs": [],
      "stateMutability": "nonpayable",
      "type": "function"
    },
    {
      "inputs": [
        {
          "internalType": "bytes32",
          "name": "routerId",
          "type": "bytes32"
        },
        {
          "internalType": "uint256",
          "name": "amount",
          "type": "uint256"
        },
        {
          "internalType": "address",
          "name": "tokenA",
          "type": "address"
        },
        {
          "internalType": "bytes",
          "name": "payload",
          "type": "bytes"
        }
      ],
      "name": "swap",
      "outputs": [],
      "stateMutability": "payable",
      "type": "function"
    },
    {
      "inputs": [
        {
          "internalType": "address",
          "name": "newOwner",
          "type": "address"
        }
      ],
      "name": "transferOwnership",
      "outputs": [],
      "stateMutability": "nonpayable",
      "type": "function"
    },
    {
      "inputs": [
        {
          "internalType": "address",
          "name": "token",
          "type": "address"
        },
        {
          "internalType": "uint256",
          "name": "amount",
          "type": "uint256"
        }
      ],
      "name": "withdraw",
      "outputs": [],
      "stateMutability": "nonpayable",
      "type": "function"
    },
    {
      "stateMutability": "payable",
      "type": "receive"
    }
  ],
  "transactionHash": "0x9911355339847d9b0e4c6403260fbeb4e7fca02b8048b8735f572a26a9fd07b0",
  "args": [
    100,
    "0x92c9E17a2f02b2119350F3E90918bEd3c6e24F3c"
  ],
  "numDeployments": 1,
  "solcInputHash": "46c0466e1837ded61d282599d1c8877e",
  "bytecode": "0x608060405273eeeeeeeeeeeeeeeeeeeeeeeeeeeeeeeeeeeeeeee600260006101000a81548173ffffffffffffffffffffffffffffffffffffffff021916908373ffffffffffffffffffffffffffffffffffffffff1602179055503480156200006657600080fd5b50604051620028953803806200289583398181016040528101906200008c919062000388565b6200009c6200015560201b60201c565b600073ffffffffffffffffffffffffffffffffffffffff168173ffffffffffffffffffffffffffffffffffffffff1603620001115760006040517f1e4fbdf7000000000000000000000000000000000000000000000000000000008152600401620001089190620003e0565b60405180910390fd5b62000122816200015d60201b60201c565b5060016006819055506200013c826200022360201b60201c565b6200014d816200026660201b60201c565b50506200042b565b600033905090565b6000600560009054906101000a900473ffffffffffffffffffffffffffffffffffffffff16905081600560006101000a81548173ffffffffffffffffffffffffffffffffffffffff021916908373ffffffffffffffffffffffffffffffffffffffff1602179055508173ffffffffffffffffffffffffffffffffffffffff168173ffffffffffffffffffffffffffffffffffffffff167f8be0079c531659141344cd1fd0a4f28419497f9722a3daafe3b4186f6b6457e060405160405180910390a35050565b806000819055507fdc0410a296e1e33943a772020d333d5f99319d7fcad932a484c53889f7aaa2b1816040516200025b91906200040e565b60405180910390a150565b80600160006101000a81548173ffffffffffffffffffffffffffffffffffffffff021916908373ffffffffffffffffffffffffffffffffffffffff1602179055507f3d21e5a2b633291bd1ff5f9c654e402d063783c95759d2ea521b31fb30e4da4181604051620002d89190620003e0565b60405180910390a150565b600080fd5b6000819050919050565b620002fd81620002e8565b81146200030957600080fd5b50565b6000815190506200031d81620002f2565b92915050565b600073ffffffffffffffffffffffffffffffffffffffff82169050919050565b6000620003508262000323565b9050919050565b620003628162000343565b81146200036e57600080fd5b50565b600081519050620003828162000357565b92915050565b60008060408385031215620003a257620003a1620002e3565b5b6000620003b2858286016200030c565b9250506020620003c58582860162000371565b9150509250929050565b620003da8162000343565b82525050565b6000602082019050620003f76000830184620003cf565b92915050565b6200040881620002e8565b82525050565b6000602082019050620004256000830184620003fd565b92915050565b61245a806200043b6000396000f3fe6080604052600436106100c65760003560e01c80638da5cb5b1161007f578063aa1fce6911610059578063aa1fce691461024b578063ac9650d81461028e578063f2fde38b146102cb578063f3fef3a3146102f4576100cd565b80638da5cb5b146101ce57806390d49b9d146101f95780639d63042114610222576100cd565b80631b80b510146100cf57806328b70aea1461010c57806339691ed9146101495780636f8e617614610172578063715018a61461018e578063787dce3d146101a5576100cd565b366100cd57005b005b3480156100db57600080fd5b506100f660048036038101906100f19190611596565b61031d565b60405161010391906115e5565b60405180910390f35b34801561011857600080fd5b50610133600480360381019061012e9190611600565b61035a565b6040516101409190611646565b60405180910390f35b34801561015557600080fd5b50610170600480360381019061016b9190611699565b61037e565b005b61018c600480360381019061018791906117b5565b6103a3565b005b34801561019a57600080fd5b506101a36108a6565b005b3480156101b157600080fd5b506101cc60048036038101906101c79190611600565b6108ba565b005b3480156101da57600080fd5b506101e36108ce565b6040516101f0919061184c565b60405180910390f35b34801561020557600080fd5b50610220600480360381019061021b9190611867565b6108f8565b005b34801561022e57600080fd5b50610249600480360381019061024491906118d2565b61090c565b005b34801561025757600080fd5b50610272600480360381019061026d919061195f565b610ba1565b60405161028597969594939291906119aa565b60405180910390f35b34801561029a57600080fd5b506102b560048036038101906102b09190611a6f565b610c50565b6040516102c29190611c0e565b60405180910390f35b3480156102d757600080fd5b506102f260048036038101906102ed9190611867565b610d5c565b005b34801561030057600080fd5b5061031b60048036038101906103169190611c30565b610de2565b005b6000612710828461032e9190611c9f565b101561033957600080fd5b61271082846103489190611c9f565b6103529190611d10565b905092915050565b6004818154811061036a57600080fd5b906000526020600020016000915090505481565b610386610e01565b80600760006101000a81548160ff02191690831515021790555050565b6103ab610e88565b600760009054906101000a900460ff16156103fb576040517f08c379a00000000000000000000000000000000000000000000000000000000081526004016103f290611d9e565b60405180910390fd5b6000600360008781526020019081526020016000206005015411610454576040517f08c379a000000000000000000000000000000000000000000000000000000000815260040161044b90611e0a565b60405180910390fd5b6000828290501161049a576040517f08c379a000000000000000000000000000000000000000000000000000000000815260040161049190611e76565b60405180910390fd5b600073ffffffffffffffffffffffffffffffffffffffff168373ffffffffffffffffffffffffffffffffffffffff1603610509576040517f08c379a000000000000000000000000000000000000000000000000000000000815260040161050090611ee2565b60405180910390fd5b600260009054906101000a900473ffffffffffffffffffffffffffffffffffffffff1673ffffffffffffffffffffffffffffffffffffffff168373ffffffffffffffffffffffffffffffffffffffff16036105a5578334146105a0576040517f08c379a000000000000000000000000000000000000000000000000000000000815260040161059790611f4e565b60405180910390fd5b6105b9565b6105b8836105b1610ece565b3087610ed6565b5b60006105c78560005461031d565b856105d29190611f6e565b9050610609846105e0610ece565b600160009054906101000a900473ffffffffffffffffffffffffffffffffffffffff1684610ed6565b60006003600088815260200190815260200160002060020160009054906101000a900473ffffffffffffffffffffffffffffffffffffffff169050600082876106529190611f6e565b9050600260009054906101000a900473ffffffffffffffffffffffffffffffffffffffff1673ffffffffffffffffffffffffffffffffffffffff168673ffffffffffffffffffffffffffffffffffffffff160361071e5761071885858080601f016020809104026020016040519081016040528093929190818152602001838380828437600081840152601f19601f82011690508083019250505050505050828473ffffffffffffffffffffffffffffffffffffffff16610f4d9092919063ffffffff16565b5061084c565b8573ffffffffffffffffffffffffffffffffffffffff1663095ea7b383836040518363ffffffff1660e01b8152600401610759929190611fa2565b6020604051808303816000875af1158015610778573d6000803e3d6000fd5b505050506040513d601f19601f8201168201806040525081019061079c9190611fe0565b6107db576040517f08c379a00000000000000000000000000000000000000000000000000000000081526004016107d29061207f565b60405180910390fd5b61084a85858080601f016020809104026020016040519081016040528093929190818152602001838380828437600081840152601f19601f82011690508083019250505050505050348473ffffffffffffffffffffffffffffffffffffffff16610f4d9092919063ffffffff16565b505b7fa1cf747ad001476b442e3c9c4a2b2180fbc1b3a710b44c90e2f2d23d2f2710c288888860005461087b610ece565b60405161088c95949392919061209f565b60405180910390a150505061089f61101a565b5050505050565b6108ae610e01565b6108b86000611024565b565b6108c2610e01565b6108cb816110ea565b50565b6000600560009054906101000a900473ffffffffffffffffffffffffffffffffffffffff16905090565b610900610e01565b6109098161112b565b50565b610914610e01565b600073ffffffffffffffffffffffffffffffffffffffff168473ffffffffffffffffffffffffffffffffffffffff1603610983576040517f08c379a000000000000000000000000000000000000000000000000000000000815260040161097a9061213e565b60405180910390fd5b60008060036000898152602001908152602001600020600501541490506000816109c35760036000898152602001908152602001600020600501546109c5565b425b90506040518060e001604052808981526020018881526020018773ffffffffffffffffffffffffffffffffffffffff1681526020018673ffffffffffffffffffffffffffffffffffffffff1681526020018573ffffffffffffffffffffffffffffffffffffffff168152602001828152602001841515815250600360008a8152602001908152602001600020600082015181600001556020820151816001015560408201518160020160006101000a81548173ffffffffffffffffffffffffffffffffffffffff021916908373ffffffffffffffffffffffffffffffffffffffff16021790555060608201518160030160006101000a81548173ffffffffffffffffffffffffffffffffffffffff021916908373ffffffffffffffffffffffffffffffffffffffff16021790555060808201518160040160006101000a81548173ffffffffffffffffffffffffffffffffffffffff021916908373ffffffffffffffffffffffffffffffffffffffff16021790555060a0820151816005015560c08201518160060160006101000a81548160ff0219169083151502179055509050508115610b975760048890806001815401808255809150506001900390600052602060002001600090919091909150555b5050505050505050565b60036020528060005260406000206000915090508060000154908060010154908060020160009054906101000a900473ffffffffffffffffffffffffffffffffffffffff16908060030160009054906101000a900473ffffffffffffffffffffffffffffffffffffffff16908060040160009054906101000a900473ffffffffffffffffffffffffffffffffffffffff16908060050154908060060160009054906101000a900460ff16905087565b60608282905067ffffffffffffffff811115610c6f57610c6e61215e565b5b604051908082528060200260200182016040528015610ca257816020015b6060815260200190600190039081610c8d5790505b50905060005b83839050811015610d5557610d2430858584818110610cca57610cc961218d565b5b9050602002810190610cdc91906121cb565b8080601f016020809104026020016040519081016040528093929190818152602001838380828437600081840152601f19601f820116905080830192505050505050506111a6565b828281518110610d3757610d3661218d565b5b60200260200101819052508080610d4d9061222e565b915050610ca8565b5092915050565b610d64610e01565b600073ffffffffffffffffffffffffffffffffffffffff168173ffffffffffffffffffffffffffffffffffffffff1603610dd65760006040517f1e4fbdf7000000000000000000000000000000000000000000000000000000008152600401610dcd919061184c565b60405180910390fd5b610ddf81611024565b50565b610dea610e01565b610dfd8230610df7610ece565b84610ed6565b5050565b610e09610ece565b73ffffffffffffffffffffffffffffffffffffffff16610e276108ce565b73ffffffffffffffffffffffffffffffffffffffff1614610e8657610e4a610ece565b6040517f118cdaa7000000000000000000000000000000000000000000000000000000008152600401610e7d919061184c565b60405180910390fd5b565b600260065403610ec4576040517f3ee5aeb500000000000000000000000000000000000000000000000000000000815260040160405180910390fd5b6002600681905550565b600033905090565b600260009054906101000a900473ffffffffffffffffffffffffffffffffffffffff1673ffffffffffffffffffffffffffffffffffffffff168473ffffffffffffffffffffffffffffffffffffffff1603610f3a57610f35828261122a565b610f47565b610f468484848461132a565b5b50505050565b606081471015610f9457306040517fcd786059000000000000000000000000000000000000000000000000000000008152600401610f8b919061184c565b60405180910390fd5b6000808573ffffffffffffffffffffffffffffffffffffffff168486604051610fbd91906122b2565b60006040518083038185875af1925050503d8060008114610ffa576040519150601f19603f3d011682016040523d82523d6000602084013e610fff565b606091505b509150915061100f868383611482565b925050509392505050565b6001600681905550565b6000600560009054906101000a900473ffffffffffffffffffffffffffffffffffffffff16905081600560006101000a81548173ffffffffffffffffffffffffffffffffffffffff021916908373ffffffffffffffffffffffffffffffffffffffff1602179055508173ffffffffffffffffffffffffffffffffffffffff168173ffffffffffffffffffffffffffffffffffffffff167f8be0079c531659141344cd1fd0a4f28419497f9722a3daafe3b4186f6b6457e060405160405180910390a35050565b806000819055507fdc0410a296e1e33943a772020d333d5f99319d7fcad932a484c53889f7aaa2b18160405161112091906115e5565b60405180910390a150565b80600160006101000a81548173ffffffffffffffffffffffffffffffffffffffff021916908373ffffffffffffffffffffffffffffffffffffffff1602179055507f3d21e5a2b633291bd1ff5f9c654e402d063783c95759d2ea521b31fb30e4da418160405161119b919061184c565b60405180910390a150565b60606000808473ffffffffffffffffffffffffffffffffffffffff16846040516111d091906122b2565b600060405180830381855af49150503d806000811461120b576040519150601f19603f3d011682016040523d82523d6000602084013e611210565b606091505b5091509150611220858383611482565b9250505092915050565b60008273ffffffffffffffffffffffffffffffffffffffff1682600067ffffffffffffffff81111561125f5761125e61215e565b5b6040519080825280601f01601f1916602001820160405280156112915781602001600182028036833780820191505090505b5060405161129f91906122b2565b60006040518083038185875af1925050503d80600081146112dc576040519150601f19603f3d011682016040523d82523d6000602084013e6112e1565b606091505b5050905080611325576040517f08c379a000000000000000000000000000000000000000000000000000000000815260040161131c9061233b565b60405180910390fd5b505050565b6000808573ffffffffffffffffffffffffffffffffffffffff166323b872dd60e01b8686866040516024016113619392919061235b565b604051602081830303815290604052907bffffffffffffffffffffffffffffffffffffffffffffffffffffffff19166020820180517bffffffffffffffffffffffffffffffffffffffffffffffffffffffff83818316178352505050506040516113cb91906122b2565b6000604051808303816000865af19150503d8060008114611408576040519150601f19603f3d011682016040523d82523d6000602084013e61140d565b606091505b509150915081801561143b575060008151148061143a5750808060200190518101906114399190611fe0565b5b5b61147a576040517f08c379a000000000000000000000000000000000000000000000000000000000815260040161147190612404565b60405180910390fd5b505050505050565b6060826114975761149282611511565b611509565b600082511480156114bf575060008473ffffffffffffffffffffffffffffffffffffffff163b145b1561150157836040517f9996b3150000000000000000000000000000000000000000000000000000000081526004016114f8919061184c565b60405180910390fd5b81905061150a565b5b9392505050565b6000815111156115245780518082602001fd5b6040517f1425ea4200000000000000000000000000000000000000000000000000000000815260040160405180910390fd5b600080fd5b600080fd5b6000819050919050565b61157381611560565b811461157e57600080fd5b50565b6000813590506115908161156a565b92915050565b600080604083850312156115ad576115ac611556565b5b60006115bb85828601611581565b92505060206115cc85828601611581565b9150509250929050565b6115df81611560565b82525050565b60006020820190506115fa60008301846115d6565b92915050565b60006020828403121561161657611615611556565b5b600061162484828501611581565b91505092915050565b6000819050919050565b6116408161162d565b82525050565b600060208201905061165b6000830184611637565b92915050565b60008115159050919050565b61167681611661565b811461168157600080fd5b50565b6000813590506116938161166d565b92915050565b6000602082840312156116af576116ae611556565b5b60006116bd84828501611684565b91505092915050565b6116cf8161162d565b81146116da57600080fd5b50565b6000813590506116ec816116c6565b92915050565b600073ffffffffffffffffffffffffffffffffffffffff82169050919050565b600061171d826116f2565b9050919050565b61172d81611712565b811461173857600080fd5b50565b60008135905061174a81611724565b92915050565b600080fd5b600080fd5b600080fd5b60008083601f84011261177557611774611750565b5b8235905067ffffffffffffffff81111561179257611791611755565b5b6020830191508360018202830111156117ae576117ad61175a565b5b9250929050565b6000806000806000608086880312156117d1576117d0611556565b5b60006117df888289016116dd565b95505060206117f088828901611581565b94505060406118018882890161173b565b935050606086013567ffffffffffffffff8111156118225761182161155b565b5b61182e8882890161175f565b92509250509295509295909350565b61184681611712565b82525050565b6000602082019050611861600083018461183d565b92915050565b60006020828403121561187d5761187c611556565b5b600061188b8482850161173b565b91505092915050565b600061189f826116f2565b9050919050565b6118af81611894565b81146118ba57600080fd5b50565b6000813590506118cc816118a6565b92915050565b60008060008060008060c087890312156118ef576118ee611556565b5b60006118fd89828a016116dd565b965050602061190e89828a016116dd565b955050604061191f89828a016118bd565b945050606061193089828a0161173b565b935050608061194189828a0161173b565b92505060a061195289828a01611684565b9150509295509295509295565b60006020828403121561197557611974611556565b5b6000611983848285016116dd565b91505092915050565b61199581611894565b82525050565b6119a481611661565b82525050565b600060e0820190506119bf600083018a611637565b6119cc6020830189611637565b6119d9604083018861198c565b6119e6606083018761183d565b6119f3608083018661183d565b611a0060a08301856115d6565b611a0d60c083018461199b565b98975050505050505050565b60008083601f840112611a2f57611a2e611750565b5b8235905067ffffffffffffffff811115611a4c57611a4b611755565b5b602083019150836020820283011115611a6857611a6761175a565b5b9250929050565b60008060208385031215611a8657611a85611556565b5b600083013567ffffffffffffffff811115611aa457611aa361155b565b5b611ab085828601611a19565b92509250509250929050565b600081519050919050565b600082825260208201905092915050565b6000819050602082019050919050565b600081519050919050565b600082825260208201905092915050565b60005b83811015611b22578082015181840152602081019050611b07565b60008484015250505050565b6000601f19601f8301169050919050565b6000611b4a82611ae8565b611b548185611af3565b9350611b64818560208601611b04565b611b6d81611b2e565b840191505092915050565b6000611b848383611b3f565b905092915050565b6000602082019050919050565b6000611ba482611abc565b611bae8185611ac7565b935083602082028501611bc085611ad8565b8060005b85811015611bfc5784840389528151611bdd8582611b78565b9450611be883611b8c565b925060208a01995050600181019050611bc4565b50829750879550505050505092915050565b60006020820190508181036000830152611c288184611b99565b905092915050565b60008060408385031215611c4757611c46611556565b5b6000611c558582860161173b565b9250506020611c6685828601611581565b9150509250929050565b7f4e487b7100000000000000000000000000000000000000000000000000000000600052601160045260246000fd5b6000611caa82611560565b9150611cb583611560565b9250828202611cc381611560565b91508282048414831517611cda57611cd9611c70565b5b5092915050565b7f4e487b7100000000000000000000000000000000000000000000000000000000600052601260045260246000fd5b6000611d1b82611560565b9150611d2683611560565b925082611d3657611d35611ce1565b5b828204905092915050565b600082825260208201905092915050565b7f426f74466923737761704e6f745061757365643a20535741505f504155534544600082015250565b6000611d88602083611d41565b9150611d9382611d52565b602082019050919050565b60006020820190508181036000830152611db781611d7b565b9050919050565b7f426f74466923537761703a20554e535550504f525445445f4445580000000000600082015250565b6000611df4601b83611d41565b9150611dff82611dbe565b602082019050919050565b60006020820190508181036000830152611e2381611de7565b9050919050565b7f426f74466923537761703a20444154415f4152475f5245515549524544000000600082015250565b6000611e60601d83611d41565b9150611e6b82611e2a565b602082019050919050565b60006020820190508181036000830152611e8f81611e53565b9050919050565b7f426f74466923537761703a205a45524f5f544f4b454e415f4144445200000000600082015250565b6000611ecc601c83611d41565b9150611ed782611e96565b602082019050919050565b60006020820190508181036000830152611efb81611ebf565b9050919050565b7f426f74466923537761703a20494e53554646494349454e545f42414c414e4345600082015250565b6000611f38602083611d41565b9150611f4382611f02565b602082019050919050565b60006020820190508181036000830152611f6781611f2b565b9050919050565b6000611f7982611560565b9150611f8483611560565b9250828203905081811115611f9c57611f9b611c70565b5b92915050565b6000604082019050611fb7600083018561183d565b611fc460208301846115d6565b9392505050565b600081519050611fda8161166d565b92915050565b600060208284031215611ff657611ff5611556565b5b600061200484828501611fcb565b91505092915050565b7f426f74466923537761703a20544f4b454e415f415050524f56414c5f4641494c60008201527f4544000000000000000000000000000000000000000000000000000000000000602082015250565b6000612069602283611d41565b91506120748261200d565b604082019050919050565b600060208201905081810360008301526120988161205c565b9050919050565b600060a0820190506120b46000830188611637565b6120c160208301876115d6565b6120ce604083018661183d565b6120db60608301856115d6565b6120e8608083018461183d565b9695505050505050565b7f426f7446693a205a45524f5f524f555445525f41444452455353000000000000600082015250565b6000612128601a83611d41565b9150612133826120f2565b602082019050919050565b600060208201905081810360008301526121578161211b565b9050919050565b7f4e487b7100000000000000000000000000000000000000000000000000000000600052604160045260246000fd5b7f4e487b7100000000000000000000000000000000000000000000000000000000600052603260045260246000fd5b600080fd5b600080fd5b600080fd5b600080833560016020038436030381126121e8576121e76121bc565b5b80840192508235915067ffffffffffffffff82111561220a576122096121c1565b5b602083019250600182023603831315612226576122256121c6565b5b509250929050565b600061223982611560565b91507fffffffffffffffffffffffffffffffffffffffffffffffffffffffffffffffff820361226b5761226a611c70565b5b600182019050919050565b600081905092915050565b600061228c82611ae8565b6122968185612276565b93506122a6818560208601611b04565b80840191505092915050565b60006122be8284612281565b915081905092915050565b7f426f744669235472616e7366657248656c7065723a204554485f5452414e534660008201527f45525f4641494c45440000000000000000000000000000000000000000000000602082015250565b6000612325602983611d41565b9150612330826122c9565b604082019050919050565b6000602082019050818103600083015261235481612318565b9050919050565b6000606082019050612370600083018661183d565b61237d602083018561183d565b61238a60408301846115d6565b949350505050565b7f426f744669235472616e7366657248656c7065723a20544f4b454e5f5452414e60008201527f534645525f4641494c4544000000000000000000000000000000000000000000602082015250565b60006123ee602b83611d41565b91506123f982612392565b604082019050919050565b6000602082019050818103600083015261241d816123e1565b905091905056fea264697066735822122062fea2d21b6c6f81f4ab4d6773be3586a794e6b80e23d17c1c4a6dab2c99c1ab64736f6c63430008140033",
  "devdoc": {
    "errors": {
      "AddressEmptyCode(address)": [
        {
          "details": "There's no code at `target` (it is not a contract)."
        }
      ],
      "AddressInsufficientBalance(address)": [
        {
          "details": "The ETH balance of the account is not enough to perform the operation."
        }
      ],
      "FailedInnerCall()": [
        {
          "details": "A call to an address target failed. The target may have reverted."
        }
      ],
      "OwnableInvalidOwner(address)": [
        {
          "details": "The owner is not a valid owner account. (eg. `address(0)`)"
        }
      ],
      "OwnableUnauthorizedAccount(address)": [
        {
          "details": "The caller account is not authorized to perform an operation."
        }
      ],
      "ReentrancyGuardReentrantCall()": [
        {
          "details": "Unauthorized reentrant call."
        }
      ]
    },
    "kind": "dev",
    "methods": {
      "calPercentage(uint256,uint256)": {
        "details": "convert percentage in basis point of a value ",
        "params": {
          "amount": "the amount to be calculated on",
          "bps": "percentage value in basis point"
        }
      },
      "multicall(bytes[])": {
        "custom:oz-upgrades-unsafe-allow-reachable": "delegatecall",
        "details": "Receives and executes a batch of function calls on this contract."
      },
      "owner()": {
        "details": "Returns the address of the current owner."
      },
      "pauseSwap(bool)": {
        "details": "pause the swap operation for the contract",
        "params": {
          "opt": "true or false "
        }
      },
      "renounceOwnership()": {
        "details": "Leaves the contract without owner. It will not be possible to call `onlyOwner` functions. Can only be called by the current owner. NOTE: Renouncing ownership will leave the contract without an owner, thereby disabling any functionality that is only available to the owner."
      },
      "setFeeWallet(address)": {
        "details": "set the address for taking the protocol fees",
        "params": {
          "addr": "the fee in percentage basis point"
        }
      },
      "setProtocolFee(uint256)": {
        "details": "protocol fee in basis point",
        "params": {
          "_feeBps": "the fee in percentage basis point"
        }
      },
      "swap(bytes32,uint256,address,bytes)": {
        "details": "perform a swap",
        "params": {
          "amount": "the total amount including the protocol fee for the swap",
          "payload": "the encoded swap data to foward to the router",
          "routerId": "the identifier of the router to use",
          "tokenA": "the token to swap into another token (tokenB)"
        }
      },
      "transferOwnership(address)": {
        "details": "Transfers ownership of the contract to a new account (`newOwner`). Can only be called by the current owner."
      },
      "withdraw(address,uint256)": {
        "details": "withdraw any stucked tokens in the contract",
        "params": {
          "amount": "the amount to move out",
          "token": "the token address to withdraw"
        }
      }
    },
    "version": 1
  },
  "userdoc": {
    "kind": "user",
    "methods": {},
    "version": 1
  },
  "storageLayout": {
    "storage": [
      {
        "astId": 755,
        "contract": "contracts/Factory.sol:Factory",
        "label": "PROTOCOL_FEE",
        "offset": 0,
        "slot": "0",
        "type": "t_uint256"
      },
      {
        "astId": 757,
        "contract": "contracts/Factory.sol:Factory",
        "label": "FEE_WALLET",
        "offset": 0,
        "slot": "1",
        "type": "t_address"
      },
      {
        "astId": 760,
        "contract": "contracts/Factory.sol:Factory",
        "label": "NATIVE_TOKEN",
        "offset": 0,
        "slot": "2",
        "type": "t_address"
      },
      {
        "astId": 765,
        "contract": "contracts/Factory.sol:Factory",
        "label": "routers",
        "offset": 0,
        "slot": "3",
        "type": "t_mapping(t_bytes32,t_struct(RouterParams)783_storage)"
      },
      {
        "astId": 768,
        "contract": "contracts/Factory.sol:Factory",
        "label": "routersIds",
        "offset": 0,
        "slot": "4",
        "type": "t_array(t_bytes32)dyn_storage"
      },
      {
        "astId": 8,
        "contract": "contracts/Factory.sol:Factory",
        "label": "_owner",
        "offset": 0,
        "slot": "5",
        "type": "t_address"
      },
      {
        "astId": 571,
        "contract": "contracts/Factory.sol:Factory",
        "label": "_status",
        "offset": 0,
        "slot": "6",
        "type": "t_uint256"
      },
      {
        "astId": 3015,
        "contract": "contracts/Factory.sol:Factory",
        "label": "swapPaused",
        "offset": 0,
        "slot": "7",
        "type": "t_bool"
      }
    ],
    "types": {
      "t_address": {
        "encoding": "inplace",
        "label": "address",
        "numberOfBytes": "20"
      },
      "t_address_payable": {
        "encoding": "inplace",
        "label": "address payable",
        "numberOfBytes": "20"
      },
      "t_array(t_bytes32)dyn_storage": {
        "base": "t_bytes32",
        "encoding": "dynamic_array",
        "label": "bytes32[]",
        "numberOfBytes": "32"
      },
      "t_bool": {
        "encoding": "inplace",
        "label": "bool",
        "numberOfBytes": "1"
      },
      "t_bytes32": {
        "encoding": "inplace",
        "label": "bytes32",
        "numberOfBytes": "32"
      },
      "t_mapping(t_bytes32,t_struct(RouterParams)783_storage)": {
        "encoding": "mapping",
        "key": "t_bytes32",
        "label": "mapping(bytes32 => struct Globals.RouterParams)",
        "numberOfBytes": "32",
        "value": "t_struct(RouterParams)783_storage"
      },
      "t_struct(RouterParams)783_storage": {
        "encoding": "inplace",
        "label": "struct Globals.RouterParams",
        "members": [
          {
            "astId": 770,
            "contract": "contracts/Factory.sol:Factory",
            "label": "id",
            "offset": 0,
            "slot": "0",
            "type": "t_bytes32"
          },
          {
            "astId": 772,
            "contract": "contracts/Factory.sol:Factory",
            "label": "adapter",
            "offset": 0,
            "slot": "1",
            "type": "t_bytes32"
          },
          {
            "astId": 774,
            "contract": "contracts/Factory.sol:Factory",
            "label": "route",
            "offset": 0,
            "slot": "2",
            "type": "t_address_payable"
          },
          {
            "astId": 776,
            "contract": "contracts/Factory.sol:Factory",
            "label": "factory",
            "offset": 0,
            "slot": "3",
            "type": "t_address"
          },
          {
            "astId": 778,
            "contract": "contracts/Factory.sol:Factory",
            "label": "weth",
            "offset": 0,
            "slot": "4",
            "type": "t_address"
          },
          {
            "astId": 780,
            "contract": "contracts/Factory.sol:Factory",
            "label": "createdAt",
            "offset": 0,
            "slot": "5",
            "type": "t_uint256"
          },
          {
            "astId": 782,
            "contract": "contracts/Factory.sol:Factory",
            "label": "enabled",
            "offset": 0,
            "slot": "6",
            "type": "t_bool"
          }
        ],
        "numberOfBytes": "224"
      },
      "t_uint256": {
        "encoding": "inplace",
        "label": "uint256",
        "numberOfBytes": "32"
      }
    }
  }
}