{
  "address": "0x2EBe5e7448AeaD2Cf2eEdF8Ca15a6Cf36458751A",
  "abi": [
    {
      "inputs": [
        {
          "internalType": "uint256",
          "name": "protocolFee",
          "type": "uint256"
        },
        {
          "internalType": "address",
          "name": "feeWallet",
          "type": "address"
        }
      ],
      "stateMutability": "nonpayable",
      "type": "constructor"
    },
    {
      "inputs": [
        {
          "internalType": "address",
          "name": "target",
          "type": "address"
        }
      ],
      "name": "AddressEmptyCode",
      "type": "error"
    },
    {
      "inputs": [
        {
          "internalType": "address",
          "name": "account",
          "type": "address"
        }
      ],
      "name": "AddressInsufficientBalance",
      "type": "error"
    },
    {
      "inputs": [],
      "name": "FailedInnerCall",
      "type": "error"
    },
    {
      "inputs": [
        {
          "internalType": "address",
          "name": "owner",
          "type": "address"
        }
      ],
      "name": "OwnableInvalidOwner",
      "type": "error"
    },
    {
      "inputs": [
        {
          "internalType": "address",
          "name": "account",
          "type": "address"
        }
      ],
      "name": "OwnableUnauthorizedAccount",
      "type": "error"
    },
    {
      "inputs": [],
      "name": "ReentrancyGuardReentrantCall",
      "type": "error"
    },
    {
      "anonymous": false,
      "inputs": [
        {
          "indexed": true,
          "internalType": "address",
          "name": "previousOwner",
          "type": "address"
        },
        {
          "indexed": true,
          "internalType": "address",
          "name": "newOwner",
          "type": "address"
        }
      ],
      "name": "OwnershipTransferred",
      "type": "event"
    },
    {
      "anonymous": false,
      "inputs": [
        {
          "indexed": false,
          "internalType": "address",
          "name": "addr",
          "type": "address"
        }
      ],
      "name": "SetFeeWallet",
      "type": "event"
    },
    {
      "anonymous": false,
      "inputs": [
        {
          "indexed": false,
          "internalType": "uint256",
          "name": "",
          "type": "uint256"
        }
      ],
      "name": "SetProtocolFee",
      "type": "event"
    },
    {
      "anonymous": false,
      "inputs": [
        {
          "indexed": false,
          "internalType": "bytes32",
          "name": "routerId",
          "type": "bytes32"
        },
        {
          "indexed": false,
          "internalType": "uint256",
          "name": "amount",
          "type": "uint256"
        },
        {
          "indexed": false,
          "internalType": "address",
          "name": "tokenA",
          "type": "address"
        },
        {
          "indexed": false,
          "internalType": "uint256",
          "name": "feeBps",
          "type": "uint256"
        },
        {
          "indexed": false,
          "internalType": "address",
          "name": "account",
          "type": "address"
        }
      ],
      "name": "Swap",
      "type": "event"
    },
    {
      "stateMutability": "payable",
      "type": "fallback"
    },
    {
      "inputs": [
        {
          "internalType": "bytes32",
          "name": "id",
          "type": "bytes32"
        },
        {
          "internalType": "bytes32",
          "name": "group",
          "type": "bytes32"
        },
        {
          "internalType": "address payable",
          "name": "router",
          "type": "address"
        },
        {
          "internalType": "address",
          "name": "factory",
          "type": "address"
        },
        {
          "internalType": "address",
          "name": "weth",
          "type": "address"
        },
        {
          "internalType": "bool",
          "name": "enabled",
          "type": "bool"
        }
      ],
      "name": "addRoute",
      "outputs": [],
      "stateMutability": "nonpayable",
      "type": "function"
    },
    {
      "inputs": [
        {
          "internalType": "uint256",
          "name": "amount",
          "type": "uint256"
        },
        {
          "internalType": "uint256",
          "name": "bps",
          "type": "uint256"
        }
      ],
      "name": "calPercentage",
      "outputs": [
        {
          "internalType": "uint256",
          "name": "",
          "type": "uint256"
        }
      ],
      "stateMutability": "pure",
      "type": "function"
    },
    {
      "inputs": [
        {
          "internalType": "bytes32",
          "name": "id",
          "type": "bytes32"
        },
        {
          "internalType": "bool",
          "name": "opt",
          "type": "bool"
        }
      ],
      "name": "enableRoute",
      "outputs": [],
      "stateMutability": "nonpayable",
      "type": "function"
    },
    {
      "inputs": [],
      "name": "getAllRoutes",
      "outputs": [
        {
          "components": [
            {
              "internalType": "bytes32",
              "name": "id",
              "type": "bytes32"
            },
            {
              "internalType": "bytes32",
              "name": "group",
              "type": "bytes32"
            },
            {
              "internalType": "address payable",
              "name": "router",
              "type": "address"
            },
            {
              "internalType": "address",
              "name": "factory",
              "type": "address"
            },
            {
              "internalType": "address",
              "name": "weth",
              "type": "address"
            },
            {
              "internalType": "uint256",
              "name": "createdAt",
              "type": "uint256"
            },
            {
              "internalType": "bool",
              "name": "enabled",
              "type": "bool"
            }
          ],
          "internalType": "struct Defs.RouteParams[]",
          "name": "rp",
          "type": "tuple[]"
        }
      ],
      "stateMutability": "view",
      "type": "function"
    },
    {
      "inputs": [
        {
          "internalType": "address",
          "name": "uniV2Router",
          "type": "address"
        }
      ],
      "name": "getUniV2RouterInfo",
      "outputs": [
        {
          "internalType": "address",
          "name": "factory",
          "type": "address"
        },
        {
          "internalType": "address",
          "name": "weth",
          "type": "address"
        }
      ],
      "stateMutability": "pure",
      "type": "function"
    },
    {
      "inputs": [
        {
          "internalType": "bytes[]",
          "name": "data",
          "type": "bytes[]"
        }
      ],
      "name": "multicall",
      "outputs": [
        {
          "internalType": "bytes[]",
          "name": "results",
          "type": "bytes[]"
        }
      ],
      "stateMutability": "nonpayable",
      "type": "function"
    },
    {
      "inputs": [],
      "name": "owner",
      "outputs": [
        {
          "internalType": "address",
          "name": "",
          "type": "address"
        }
      ],
      "stateMutability": "view",
      "type": "function"
    },
    {
      "inputs": [
        {
          "internalType": "bool",
          "name": "opt",
          "type": "bool"
        }
      ],
      "name": "pauseSwap",
      "outputs": [],
      "stateMutability": "nonpayable",
      "type": "function"
    },
    {
      "inputs": [],
      "name": "renounceOwnership",
      "outputs": [],
      "stateMutability": "nonpayable",
      "type": "function"
    },
    {
      "inputs": [
        {
          "internalType": "bytes32",
          "name": "",
          "type": "bytes32"
        }
      ],
      "name": "routes",
      "outputs": [
        {
          "internalType": "bytes32",
          "name": "id",
          "type": "bytes32"
        },
        {
          "internalType": "bytes32",
          "name": "group",
          "type": "bytes32"
        },
        {
          "internalType": "address payable",
          "name": "router",
          "type": "address"
        },
        {
          "internalType": "address",
          "name": "factory",
          "type": "address"
        },
        {
          "internalType": "address",
          "name": "weth",
          "type": "address"
        },
        {
          "internalType": "uint256",
          "name": "createdAt",
          "type": "uint256"
        },
        {
          "internalType": "bool",
          "name": "enabled",
          "type": "bool"
        }
      ],
      "stateMutability": "view",
      "type": "function"
    },
    {
      "inputs": [
        {
          "internalType": "uint256",
          "name": "",
          "type": "uint256"
        }
      ],
      "name": "routesIds",
      "outputs": [
        {
          "internalType": "bytes32",
          "name": "",
          "type": "bytes32"
        }
      ],
      "stateMutability": "view",
      "type": "function"
    },
    {
      "inputs": [
        {
          "internalType": "address",
          "name": "addr",
          "type": "address"
        }
      ],
      "name": "setFeeWallet",
      "outputs": [],
      "stateMutability": "nonpayable",
      "type": "function"
    },
    {
      "inputs": [
        {
          "internalType": "uint256",
          "name": "_feeBps",
          "type": "uint256"
        }
      ],
      "name": "setProtocolFee",
      "outputs": [],
      "stateMutability": "nonpayable",
      "type": "function"
    },
    {
      "inputs": [
        {
          "internalType": "bytes32",
          "name": "routeId",
          "type": "bytes32"
        },
        {
          "internalType": "uint256",
          "name": "amount",
          "type": "uint256"
        },
        {
          "internalType": "address",
          "name": "tokenA",
          "type": "address"
        },
        {
          "internalType": "bytes",
          "name": "payload",
          "type": "bytes"
        }
      ],
      "name": "swap",
      "outputs": [],
      "stateMutability": "payable",
      "type": "function"
    },
    {
      "inputs": [
        {
          "internalType": "address",
          "name": "newOwner",
          "type": "address"
        }
      ],
      "name": "transferOwnership",
      "outputs": [],
      "stateMutability": "nonpayable",
      "type": "function"
    },
    {
      "inputs": [
        {
          "internalType": "address",
          "name": "token",
          "type": "address"
        },
        {
          "internalType": "uint256",
          "name": "amount",
          "type": "uint256"
        }
      ],
      "name": "withdraw",
      "outputs": [],
      "stateMutability": "nonpayable",
      "type": "function"
    },
    {
      "stateMutability": "payable",
      "type": "receive"
    }
  ],
  "transactionHash": "0x0f3888410902a17c968a3271063f64140420e1452a4640028352fc33de704897",
  "args": [
    100,
    "0x92c9E17a2f02b2119350F3E90918bEd3c6e24F3c"
  ],
  "numDeployments": 1,
  "solcInputHash": "240150112156a52b9704fe911ebf6c23",
  "bytecode": "0x60806040523480156200001157600080fd5b506040516200363638038062003636833981810160405281019062000037919062000333565b620000476200010060201b60201c565b600073ffffffffffffffffffffffffffffffffffffffff168173ffffffffffffffffffffffffffffffffffffffff1603620000bc5760006040517f1e4fbdf7000000000000000000000000000000000000000000000000000000008152600401620000b391906200038b565b60405180910390fd5b620000cd816200010860201b60201c565b506001600581905550620000e782620001ce60201b60201c565b620000f8816200021160201b60201c565b5050620003d6565b600033905090565b6000600460009054906101000a900473ffffffffffffffffffffffffffffffffffffffff16905081600460006101000a81548173ffffffffffffffffffffffffffffffffffffffff021916908373ffffffffffffffffffffffffffffffffffffffff1602179055508173ffffffffffffffffffffffffffffffffffffffff168173ffffffffffffffffffffffffffffffffffffffff167f8be0079c531659141344cd1fd0a4f28419497f9722a3daafe3b4186f6b6457e060405160405180910390a35050565b806000819055507fdc0410a296e1e33943a772020d333d5f99319d7fcad932a484c53889f7aaa2b181604051620002069190620003b9565b60405180910390a150565b80600160006101000a81548173ffffffffffffffffffffffffffffffffffffffff021916908373ffffffffffffffffffffffffffffffffffffffff1602179055507f3d21e5a2b633291bd1ff5f9c654e402d063783c95759d2ea521b31fb30e4da41816040516200028391906200038b565b60405180910390a150565b600080fd5b6000819050919050565b620002a88162000293565b8114620002b457600080fd5b50565b600081519050620002c8816200029d565b92915050565b600073ffffffffffffffffffffffffffffffffffffffff82169050919050565b6000620002fb82620002ce565b9050919050565b6200030d81620002ee565b81146200031957600080fd5b50565b6000815190506200032d8162000302565b92915050565b600080604083850312156200034d576200034c6200028e565b5b60006200035d85828601620002b7565b925050602062000370858286016200031c565b9150509250929050565b6200038581620002ee565b82525050565b6000602082019050620003a260008301846200037a565b92915050565b620003b38162000293565b82525050565b6000602082019050620003d06000830184620003a8565b92915050565b61325080620003e66000396000f3fe6080604052600436106100f75760003560e01c8063787dce3d1161008a5780639d783ea4116100595780639d783ea414610328578063ac9650d814610351578063f2fde38b1461038e578063f3fef3a3146103b7576100fe565b8063787dce3d1461026e5780637c249d29146102975780638da5cb5b146102d457806390d49b9d146102ff576100fe565b806339691ed9116100c657806339691ed9146101d4578063438c74fd146101fd5780636f8e61761461023b578063715018a614610257576100fe565b8063066e9481146101005780630dd3ca83146101435780631b80b5101461016c5780631f696924146101a9576100fe565b366100fe57005b005b34801561010c57600080fd5b5061012760048036038101906101229190611cef565b6103e0565b60405161013a9796959493929190611dc1565b60405180910390f35b34801561014f57600080fd5b5061016a60048036038101906101659190611e5c565b61048f565b005b34801561017857600080fd5b50610193600480360381019061018e9190611ec8565b61051a565b6040516101a09190611f08565b60405180910390f35b3480156101b557600080fd5b506101be610557565b6040516101cb91906120ab565b60405180910390f35b3480156101e057600080fd5b506101fb60048036038101906101f691906120cd565b610770565b005b34801561020957600080fd5b50610224600480360381019061021f9190612126565b610795565b604051610232929190612153565b60405180910390f35b610255600480360381019061025091906121e1565b61091b565b005b34801561026357600080fd5b5061026c610ec0565b005b34801561027a57600080fd5b5061029560048036038101906102909190612269565b610ed4565b005b3480156102a357600080fd5b506102be60048036038101906102b99190612269565b610ee8565b6040516102cb9190612296565b60405180910390f35b3480156102e057600080fd5b506102e9610f0c565b6040516102f691906122b1565b60405180910390f35b34801561030b57600080fd5b5061032660048036038101906103219190612126565b610f36565b005b34801561033457600080fd5b5061034f600480360381019061034a91906122f8565b610f4a565b005b34801561035d57600080fd5b50610378600480360381019061037391906123db565b61131d565b604051610385919061257a565b60405180910390f35b34801561039a57600080fd5b506103b560048036038101906103b09190612126565b611429565b005b3480156103c357600080fd5b506103de60048036038101906103d9919061259c565b6114af565b005b60026020528060005260406000206000915090508060000154908060010154908060020160009054906101000a900473ffffffffffffffffffffffffffffffffffffffff16908060030160009054906101000a900473ffffffffffffffffffffffffffffffffffffffff16908060040160009054906101000a900473ffffffffffffffffffffffffffffffffffffffff16908060050154908060060160009054906101000a900460ff16905087565b60006002600084815260200190815260200160002060050154116104e8576040517f08c379a00000000000000000000000000000000000000000000000000000000081526004016104df9061265f565b60405180910390fd5b806002600084815260200190815260200160002060060160006101000a81548160ff0219169083151502179055505050565b6000612710828461052b91906126ae565b101561053657600080fd5b612710828461054591906126ae565b61054f919061271f565b905092915050565b606060038054905067ffffffffffffffff81111561057857610577612750565b5b6040519080825280602002602001820160405280156105b157816020015b61059e611c28565b8152602001906001900390816105965790505b50905060005b60038054905081101561076c5760026000600383815481106105dc576105db61277f565b5b906000526020600020015481526020019081526020016000206040518060e001604052908160008201548152602001600182015481526020016002820160009054906101000a900473ffffffffffffffffffffffffffffffffffffffff1673ffffffffffffffffffffffffffffffffffffffff1673ffffffffffffffffffffffffffffffffffffffff1681526020016003820160009054906101000a900473ffffffffffffffffffffffffffffffffffffffff1673ffffffffffffffffffffffffffffffffffffffff1673ffffffffffffffffffffffffffffffffffffffff1681526020016004820160009054906101000a900473ffffffffffffffffffffffffffffffffffffffff1673ffffffffffffffffffffffffffffffffffffffff1673ffffffffffffffffffffffffffffffffffffffff168152602001600582015481526020016006820160009054906101000a900460ff16151515158152505082828151811061074e5761074d61277f565b5b60200260200101819052508080610764906127ae565b9150506105b7565b5090565b6107786114ce565b80600660006101000a81548160ff02191690831515021790555050565b600080600083905060006040518060800160405280605081526020016131cb6050913990508173ffffffffffffffffffffffffffffffffffffffff1663c45a01556040518163ffffffff1660e01b8152600401602060405180830381865afa92505050801561082257506040513d601f19601f8201168201806040525081019061081f919061280b565b60015b61086357806040517f08c379a000000000000000000000000000000000000000000000000000000000815260040161085a919061287c565b60405180910390fd5b809450508173ffffffffffffffffffffffffffffffffffffffff1663ad5c46486040518163ffffffff1660e01b8152600401602060405180830381865afa9250505080156108cf57506040513d601f19601f820116820180604052508101906108cc919061280b565b60015b61091057806040517f08c379a0000000000000000000000000000000000000000000000000000000008152600401610907919061287c565b60405180910390fd5b809350505050915091565b846000600260008381526020019081526020016000206005015411610975576040517f08c379a000000000000000000000000000000000000000000000000000000000815260040161096c90612910565b60405180910390fd5b6002600082815260200190815260200160002060060160009054906101000a900460ff166109d8576040517f08c379a00000000000000000000000000000000000000000000000000000000081526004016109cf906129a2565b60405180910390fd5b6109e0611555565b600660009054906101000a900460ff1615610a30576040517f08c379a0000000000000000000000000000000000000000000000000000000008152600401610a2790612a0e565b60405180910390fd5b6000600260008881526020019081526020016000206005015411610a89576040517f08c379a0000000000000000000000000000000000000000000000000000000008152600401610a8090612a7a565b60405180910390fd5b60008383905011610acf576040517f08c379a0000000000000000000000000000000000000000000000000000000008152600401610ac690612ae6565b60405180910390fd5b600073ffffffffffffffffffffffffffffffffffffffff168473ffffffffffffffffffffffffffffffffffffffff1603610b3e576040517f08c379a0000000000000000000000000000000000000000000000000000000008152600401610b3590612b52565b60405180910390fd5b73eeeeeeeeeeeeeeeeeeeeeeeeeeeeeeeeeeeeeeee73ffffffffffffffffffffffffffffffffffffffff168473ffffffffffffffffffffffffffffffffffffffff1603610bcc57843414610bc7576040517f08c379a0000000000000000000000000000000000000000000000000000000008152600401610bbe90612bbe565b60405180910390fd5b610be0565b610bdf84610bd861159b565b30886115a3565b5b6000610bee8660005461051a565b86610bf99190612bde565b9050610c3085610c0761159b565b600160009054906101000a900473ffffffffffffffffffffffffffffffffffffffff16846115a3565b60006002600089815260200190815260200160002060020160009054906101000a900473ffffffffffffffffffffffffffffffffffffffff16905060008288610c799190612bde565b905073eeeeeeeeeeeeeeeeeeeeeeeeeeeeeeeeeeeeeeee73ffffffffffffffffffffffffffffffffffffffff168773ffffffffffffffffffffffffffffffffffffffff1603610d3757610d3186868080601f016020809104026020016040519081016040528093929190818152602001838380828437600081840152601f19601f82011690508083019250505050505050828473ffffffffffffffffffffffffffffffffffffffff1661160c9092919063ffffffff16565b50610e65565b8673ffffffffffffffffffffffffffffffffffffffff1663095ea7b383836040518363ffffffff1660e01b8152600401610d72929190612c12565b6020604051808303816000875af1158015610d91573d6000803e3d6000fd5b505050506040513d601f19601f82011682018060405250810190610db59190612c50565b610df4576040517f08c379a0000000000000000000000000000000000000000000000000000000008152600401610deb90612cef565b60405180910390fd5b610e6386868080601f016020809104026020016040519081016040528093929190818152602001838380828437600081840152601f19601f82011690508083019250505050505050348473ffffffffffffffffffffffffffffffffffffffff1661160c9092919063ffffffff16565b505b7fa1cf747ad001476b442e3c9c4a2b2180fbc1b3a710b44c90e2f2d23d2f2710c2898989600054610e9461159b565b604051610ea5959493929190612d0f565b60405180910390a1505050610eb86116d9565b505050505050565b610ec86114ce565b610ed260006116e3565b565b610edc6114ce565b610ee5816117a9565b50565b60038181548110610ef857600080fd5b906000526020600020016000915090505481565b6000600460009054906101000a900473ffffffffffffffffffffffffffffffffffffffff16905090565b610f3e6114ce565b610f47816117ea565b50565b610f526114ce565b600073ffffffffffffffffffffffffffffffffffffffff168473ffffffffffffffffffffffffffffffffffffffff1603610fc1576040517f08c379a0000000000000000000000000000000000000000000000000000000008152600401610fb890612dd4565b60405180910390fd5b610fca84611865565b611009576040517f08c379a000000000000000000000000000000000000000000000000000000000815260040161100090612e66565b60405180910390fd5b600080600260008981526020019081526020016000206005015414905060008161104957600260008981526020019081526020016000206005015461104b565b425b90507f756e697632000000000000000000000000000000000000000000000000000000870361108a5761107d86610795565b8095508196505050611143565b7f756e6976330000000000000000000000000000000000000000000000000000008703611142576110ba85611865565b6110f9576040517f08c379a00000000000000000000000000000000000000000000000000000000081526004016110f090612ef8565b60405180910390fd5b61110284611865565b611141576040517f08c379a000000000000000000000000000000000000000000000000000000000815260040161113890612f8a565b60405180910390fd5b5b5b6040518060e001604052808981526020018881526020018773ffffffffffffffffffffffffffffffffffffffff1681526020018673ffffffffffffffffffffffffffffffffffffffff1681526020018573ffffffffffffffffffffffffffffffffffffffff168152602001828152602001841515815250600260008a8152602001908152602001600020600082015181600001556020820151816001015560408201518160020160006101000a81548173ffffffffffffffffffffffffffffffffffffffff021916908373ffffffffffffffffffffffffffffffffffffffff16021790555060608201518160030160006101000a81548173ffffffffffffffffffffffffffffffffffffffff021916908373ffffffffffffffffffffffffffffffffffffffff16021790555060808201518160040160006101000a81548173ffffffffffffffffffffffffffffffffffffffff021916908373ffffffffffffffffffffffffffffffffffffffff16021790555060a0820151816005015560c08201518160060160006101000a81548160ff02191690831515021790555090505081156113135760038890806001815401808255809150506001900390600052602060002001600090919091909150555b5050505050505050565b60608282905067ffffffffffffffff81111561133c5761133b612750565b5b60405190808252806020026020018201604052801561136f57816020015b606081526020019060019003908161135a5790505b50905060005b83839050811015611422576113f1308585848181106113975761139661277f565b5b90506020028101906113a99190612fb9565b8080601f016020809104026020016040519081016040528093929190818152602001838380828437600081840152601f19601f82011690508083019250505050505050611878565b8282815181106114045761140361277f565b5b6020026020010181905250808061141a906127ae565b915050611375565b5092915050565b6114316114ce565b600073ffffffffffffffffffffffffffffffffffffffff168173ffffffffffffffffffffffffffffffffffffffff16036114a35760006040517f1e4fbdf700000000000000000000000000000000000000000000000000000000815260040161149a91906122b1565b60405180910390fd5b6114ac816116e3565b50565b6114b76114ce565b6114ca82306114c461159b565b846115a3565b5050565b6114d661159b565b73ffffffffffffffffffffffffffffffffffffffff166114f4610f0c565b73ffffffffffffffffffffffffffffffffffffffff16146115535761151761159b565b6040517f118cdaa700000000000000000000000000000000000000000000000000000000815260040161154a91906122b1565b60405180910390fd5b565b600260055403611591576040517f3ee5aeb500000000000000000000000000000000000000000000000000000000815260040160405180910390fd5b6002600581905550565b600033905090565b73eeeeeeeeeeeeeeeeeeeeeeeeeeeeeeeeeeeeeeee73ffffffffffffffffffffffffffffffffffffffff168473ffffffffffffffffffffffffffffffffffffffff16036115f9576115f482826118fc565b611606565b611605848484846119fc565b5b50505050565b60608147101561165357306040517fcd78605900000000000000000000000000000000000000000000000000000000815260040161164a91906122b1565b60405180910390fd5b6000808573ffffffffffffffffffffffffffffffffffffffff16848660405161167c9190613058565b60006040518083038185875af1925050503d80600081146116b9576040519150601f19603f3d011682016040523d82523d6000602084013e6116be565b606091505b50915091506116ce868383611b54565b925050509392505050565b6001600581905550565b6000600460009054906101000a900473ffffffffffffffffffffffffffffffffffffffff16905081600460006101000a81548173ffffffffffffffffffffffffffffffffffffffff021916908373ffffffffffffffffffffffffffffffffffffffff1602179055508173ffffffffffffffffffffffffffffffffffffffff168173ffffffffffffffffffffffffffffffffffffffff167f8be0079c531659141344cd1fd0a4f28419497f9722a3daafe3b4186f6b6457e060405160405180910390a35050565b806000819055507fdc0410a296e1e33943a772020d333d5f99319d7fcad932a484c53889f7aaa2b1816040516117df9190611f08565b60405180910390a150565b80600160006101000a81548173ffffffffffffffffffffffffffffffffffffffff021916908373ffffffffffffffffffffffffffffffffffffffff1602179055507f3d21e5a2b633291bd1ff5f9c654e402d063783c95759d2ea521b31fb30e4da418160405161185a91906122b1565b60405180910390a150565b600080823b905060008111915050919050565b60606000808473ffffffffffffffffffffffffffffffffffffffff16846040516118a29190613058565b600060405180830381855af49150503d80600081146118dd576040519150601f19603f3d011682016040523d82523d6000602084013e6118e2565b606091505b50915091506118f2858383611b54565b9250505092915050565b60008273ffffffffffffffffffffffffffffffffffffffff1682600067ffffffffffffffff81111561193157611930612750565b5b6040519080825280601f01601f1916602001820160405280156119635781602001600182028036833780820191505090505b506040516119719190613058565b60006040518083038185875af1925050503d80600081146119ae576040519150601f19603f3d011682016040523d82523d6000602084013e6119b3565b606091505b50509050806119f7576040517f08c379a00000000000000000000000000000000000000000000000000000000081526004016119ee906130e1565b60405180910390fd5b505050565b6000808573ffffffffffffffffffffffffffffffffffffffff166323b872dd60e01b868686604051602401611a3393929190613101565b604051602081830303815290604052907bffffffffffffffffffffffffffffffffffffffffffffffffffffffff19166020820180517bffffffffffffffffffffffffffffffffffffffffffffffffffffffff8381831617835250505050604051611a9d9190613058565b6000604051808303816000865af19150503d8060008114611ada576040519150601f19603f3d011682016040523d82523d6000602084013e611adf565b606091505b5091509150818015611b0d5750600081511480611b0c575080806020019051810190611b0b9190612c50565b5b5b611b4c576040517f08c379a0000000000000000000000000000000000000000000000000000000008152600401611b43906131aa565b60405180910390fd5b505050505050565b606082611b6957611b6482611be3565b611bdb565b60008251148015611b91575060008473ffffffffffffffffffffffffffffffffffffffff163b145b15611bd357836040517f9996b315000000000000000000000000000000000000000000000000000000008152600401611bca91906122b1565b60405180910390fd5b819050611bdc565b5b9392505050565b600081511115611bf65780518082602001fd5b6040517f1425ea4200000000000000000000000000000000000000000000000000000000815260040160405180910390fd5b6040518060e001604052806000801916815260200160008019168152602001600073ffffffffffffffffffffffffffffffffffffffff168152602001600073ffffffffffffffffffffffffffffffffffffffff168152602001600073ffffffffffffffffffffffffffffffffffffffff168152602001600081526020016000151581525090565b600080fd5b600080fd5b6000819050919050565b611ccc81611cb9565b8114611cd757600080fd5b50565b600081359050611ce981611cc3565b92915050565b600060208284031215611d0557611d04611caf565b5b6000611d1384828501611cda565b91505092915050565b611d2581611cb9565b82525050565b600073ffffffffffffffffffffffffffffffffffffffff82169050919050565b6000611d5682611d2b565b9050919050565b611d6681611d4b565b82525050565b6000611d7782611d2b565b9050919050565b611d8781611d6c565b82525050565b6000819050919050565b611da081611d8d565b82525050565b60008115159050919050565b611dbb81611da6565b82525050565b600060e082019050611dd6600083018a611d1c565b611de36020830189611d1c565b611df06040830188611d5d565b611dfd6060830187611d7e565b611e0a6080830186611d7e565b611e1760a0830185611d97565b611e2460c0830184611db2565b98975050505050505050565b611e3981611da6565b8114611e4457600080fd5b50565b600081359050611e5681611e30565b92915050565b60008060408385031215611e7357611e72611caf565b5b6000611e8185828601611cda565b9250506020611e9285828601611e47565b9150509250929050565b611ea581611d8d565b8114611eb057600080fd5b50565b600081359050611ec281611e9c565b92915050565b60008060408385031215611edf57611ede611caf565b5b6000611eed85828601611eb3565b9250506020611efe85828601611eb3565b9150509250929050565b6000602082019050611f1d6000830184611d97565b92915050565b600081519050919050565b600082825260208201905092915050565b6000819050602082019050919050565b611f5881611cb9565b82525050565b611f6781611d4b565b82525050565b611f7681611d6c565b82525050565b611f8581611d8d565b82525050565b611f9481611da6565b82525050565b60e082016000820151611fb06000850182611f4f565b506020820151611fc36020850182611f4f565b506040820151611fd66040850182611f5e565b506060820151611fe96060850182611f6d565b506080820151611ffc6080850182611f6d565b5060a082015161200f60a0850182611f7c565b5060c082015161202260c0850182611f8b565b50505050565b60006120348383611f9a565b60e08301905092915050565b6000602082019050919050565b600061205882611f23565b6120628185611f2e565b935061206d83611f3f565b8060005b8381101561209e5781516120858882612028565b975061209083612040565b925050600181019050612071565b5085935050505092915050565b600060208201905081810360008301526120c5818461204d565b905092915050565b6000602082840312156120e3576120e2611caf565b5b60006120f184828501611e47565b91505092915050565b61210381611d6c565b811461210e57600080fd5b50565b600081359050612120816120fa565b92915050565b60006020828403121561213c5761213b611caf565b5b600061214a84828501612111565b91505092915050565b60006040820190506121686000830185611d7e565b6121756020830184611d7e565b9392505050565b600080fd5b600080fd5b600080fd5b60008083601f8401126121a1576121a061217c565b5b8235905067ffffffffffffffff8111156121be576121bd612181565b5b6020830191508360018202830111156121da576121d9612186565b5b9250929050565b6000806000806000608086880312156121fd576121fc611caf565b5b600061220b88828901611cda565b955050602061221c88828901611eb3565b945050604061222d88828901612111565b935050606086013567ffffffffffffffff81111561224e5761224d611cb4565b5b61225a8882890161218b565b92509250509295509295909350565b60006020828403121561227f5761227e611caf565b5b600061228d84828501611eb3565b91505092915050565b60006020820190506122ab6000830184611d1c565b92915050565b60006020820190506122c66000830184611d7e565b92915050565b6122d581611d4b565b81146122e057600080fd5b50565b6000813590506122f2816122cc565b92915050565b60008060008060008060c0878903121561231557612314611caf565b5b600061232389828a01611cda565b965050602061233489828a01611cda565b955050604061234589828a016122e3565b945050606061235689828a01612111565b935050608061236789828a01612111565b92505060a061237889828a01611e47565b9150509295509295509295565b60008083601f84011261239b5761239a61217c565b5b8235905067ffffffffffffffff8111156123b8576123b7612181565b5b6020830191508360208202830111156123d4576123d3612186565b5b9250929050565b600080602083850312156123f2576123f1611caf565b5b600083013567ffffffffffffffff8111156124105761240f611cb4565b5b61241c85828601612385565b92509250509250929050565b600081519050919050565b600082825260208201905092915050565b6000819050602082019050919050565b600081519050919050565b600082825260208201905092915050565b60005b8381101561248e578082015181840152602081019050612473565b60008484015250505050565b6000601f19601f8301169050919050565b60006124b682612454565b6124c0818561245f565b93506124d0818560208601612470565b6124d98161249a565b840191505092915050565b60006124f083836124ab565b905092915050565b6000602082019050919050565b600061251082612428565b61251a8185612433565b93508360208202850161252c85612444565b8060005b85811015612568578484038952815161254985826124e4565b9450612554836124f8565b925060208a01995050600181019050612530565b50829750879550505050505092915050565b600060208201905081810360008301526125948184612505565b905092915050565b600080604083850312156125b3576125b2611caf565b5b60006125c185828601612111565b92505060206125d285828601611eb3565b9150509250929050565b600082825260208201905092915050565b7f426f7446693a53776170456e67696e6523656e61626c65526f757465723a204960008201527f4e56414c49445f524f5554450000000000000000000000000000000000000000602082015250565b6000612649602c836125dc565b9150612654826125ed565b604082019050919050565b600060208201905081810360008301526126788161263c565b9050919050565b7f4e487b7100000000000000000000000000000000000000000000000000000000600052601160045260246000fd5b60006126b982611d8d565b91506126c483611d8d565b92508282026126d281611d8d565b915082820484148315176126e9576126e861267f565b5b5092915050565b7f4e487b7100000000000000000000000000000000000000000000000000000000600052601260045260246000fd5b600061272a82611d8d565b915061273583611d8d565b925082612745576127446126f0565b5b828204905092915050565b7f4e487b7100000000000000000000000000000000000000000000000000000000600052604160045260246000fd5b7f4e487b7100000000000000000000000000000000000000000000000000000000600052603260045260246000fd5b60006127b982611d8d565b91507fffffffffffffffffffffffffffffffffffffffffffffffffffffffffffffffff82036127eb576127ea61267f565b5b600182019050919050565b600081519050612805816120fa565b92915050565b60006020828403121561282157612820611caf565b5b600061282f848285016127f6565b91505092915050565b600081519050919050565b600061284e82612838565b61285881856125dc565b9350612868818560208601612470565b6128718161249a565b840191505092915050565b600060208201905081810360008301526128968184612843565b905092915050565b7f426f7446692353776170456e67696e652376616c6964617465526f757465723a60008201527f20554e4b4e4f574e5f524f555445525f49440000000000000000000000000000602082015250565b60006128fa6032836125dc565b91506129058261289e565b604082019050919050565b60006020820190508181036000830152612929816128ed565b9050919050565b7f426f7446692353776170456e67696e652376616c6964617465526f757465723a60008201527f20524f555445525f4e4f545f454e41424c454400000000000000000000000000602082015250565b600061298c6033836125dc565b915061299782612930565b604082019050919050565b600060208201905081810360008301526129bb8161297f565b9050919050565b7f426f74466923737761704e6f745061757365643a20535741505f504155534544600082015250565b60006129f86020836125dc565b9150612a03826129c2565b602082019050919050565b60006020820190508181036000830152612a27816129eb565b9050919050565b7f426f74466923537761703a20554e535550504f525445445f4445580000000000600082015250565b6000612a64601b836125dc565b9150612a6f82612a2e565b602082019050919050565b60006020820190508181036000830152612a9381612a57565b9050919050565b7f426f74466923537761703a20444154415f4152475f5245515549524544000000600082015250565b6000612ad0601d836125dc565b9150612adb82612a9a565b602082019050919050565b60006020820190508181036000830152612aff81612ac3565b9050919050565b7f426f74466923537761703a205a45524f5f544f4b454e415f4144445200000000600082015250565b6000612b3c601c836125dc565b9150612b4782612b06565b602082019050919050565b60006020820190508181036000830152612b6b81612b2f565b9050919050565b7f426f74466923537761703a20494e53554646494349454e545f42414c414e4345600082015250565b6000612ba86020836125dc565b9150612bb382612b72565b602082019050919050565b60006020820190508181036000830152612bd781612b9b565b9050919050565b6000612be982611d8d565b9150612bf483611d8d565b9250828203905081811115612c0c57612c0b61267f565b5b92915050565b6000604082019050612c276000830185611d7e565b612c346020830184611d97565b9392505050565b600081519050612c4a81611e30565b92915050565b600060208284031215612c6657612c65611caf565b5b6000612c7484828501612c3b565b91505092915050565b7f426f7446692353776170456e67696e653a20544f4b454e415f415050524f564160008201527f4c5f4641494c4544000000000000000000000000000000000000000000000000602082015250565b6000612cd96028836125dc565b9150612ce482612c7d565b604082019050919050565b60006020820190508181036000830152612d0881612ccc565b9050919050565b600060a082019050612d246000830188611d1c565b612d316020830187611d97565b612d3e6040830186611d7e565b612d4b6060830185611d97565b612d586080830184611d7e565b9695505050505050565b7f426f7446692353776170456e67696e6523616464526f757465723a205a45524f60008201527f5f524f555445525f414444524553530000000000000000000000000000000000602082015250565b6000612dbe602f836125dc565b9150612dc982612d62565b604082019050919050565b60006020820190508181036000830152612ded81612db1565b9050919050565b7f426f7446692353776170456e67696e6523616464526f757465723a20524f555460008201527f45525f4e4f545f415f434f4e5452414354000000000000000000000000000000602082015250565b6000612e506031836125dc565b9150612e5b82612df4565b604082019050919050565b60006020820190508181036000830152612e7f81612e43565b9050919050565b7f426f7446692353776170456e67696e6523616464526f757465723a204641435460008201527f4f52595f4e4f545f415f434f4e54524143540000000000000000000000000000602082015250565b6000612ee26032836125dc565b9150612eed82612e86565b604082019050919050565b60006020820190508181036000830152612f1181612ed5565b9050919050565b7f426f7446692353776170456e67696e6523616464526f757465723a205745544860008201527f5f4e4f545f415f434f4e54524143540000000000000000000000000000000000602082015250565b6000612f74602f836125dc565b9150612f7f82612f18565b604082019050919050565b60006020820190508181036000830152612fa381612f67565b9050919050565b600080fd5b600080fd5b600080fd5b60008083356001602003843603038112612fd657612fd5612faa565b5b80840192508235915067ffffffffffffffff821115612ff857612ff7612faf565b5b60208301925060018202360383131561301457613013612fb4565b5b509250929050565b600081905092915050565b600061303282612454565b61303c818561301c565b935061304c818560208601612470565b80840191505092915050565b60006130648284613027565b915081905092915050565b7f426f744669235472616e7366657248656c7065723a204554485f5452414e534660008201527f45525f4641494c45440000000000000000000000000000000000000000000000602082015250565b60006130cb6029836125dc565b91506130d68261306f565b604082019050919050565b600060208201905081810360008301526130fa816130be565b9050919050565b60006060820190506131166000830186611d7e565b6131236020830185611d7e565b6131306040830184611d97565b949350505050565b7f426f744669235472616e7366657248656c7065723a20544f4b454e5f5452414e60008201527f534645525f4641494c4544000000000000000000000000000000000000000000602082015250565b6000613194602b836125dc565b915061319f82613138565b604082019050919050565b600060208201905081810360008301526131c381613187565b905091905056fe426f7446692353776170456e67696e6523676574556e695632526f75746572496e666f3a20496e76616c696420556e69737761702056322042617365642044657820526f757465722041646472657373a26469706673582212201456d85d9f323950f22a53485456a65461c6d73da778ef55f32d2db3828db28864736f6c63430008140033",
  "devdoc": {
    "errors": {
      "AddressEmptyCode(address)": [
        {
          "details": "There's no code at `target` (it is not a contract)."
        }
      ],
      "AddressInsufficientBalance(address)": [
        {
          "details": "The ETH balance of the account is not enough to perform the operation."
        }
      ],
      "FailedInnerCall()": [
        {
          "details": "A call to an address target failed. The target may have reverted."
        }
      ],
      "OwnableInvalidOwner(address)": [
        {
          "details": "The owner is not a valid owner account. (eg. `address(0)`)"
        }
      ],
      "OwnableUnauthorizedAccount(address)": [
        {
          "details": "The caller account is not authorized to perform an operation."
        }
      ],
      "ReentrancyGuardReentrantCall()": [
        {
          "details": "Unauthorized reentrant call."
        }
      ]
    },
    "kind": "dev",
    "methods": {
      "addRoute(bytes32,bytes32,address,address,address,bool)": {
        "details": "addRouter add a router params",
        "params": {
          "enabled": "is the router enabled or not",
          "factory": "the factory address",
          "group": "router group - uni_v2, uni_v3 ....",
          "id": "router id",
          "router": "the router address ",
          "weth": "wrapped ether or wrapped native token"
        }
      },
      "calPercentage(uint256,uint256)": {
        "details": "convert percentage in basis point of a value ",
        "params": {
          "amount": "the amount to be calculated on",
          "bps": "percentage value in basis point"
        }
      },
      "enableRoute(bytes32,bool)": {
        "details": "enable or disable a route",
        "params": {
          "id": "the router id",
          "opt": "true or false"
        }
      },
      "getAllRoutes()": {
        "details": "getAllRoutes get all the routers returns array "
      },
      "getUniV2RouterInfo(address)": {
        "details": "fecth uniswap v2 router info",
        "params": {
          "uniV2Router": "the router address"
        },
        "returns": {
          "factory": "the factory contract address",
          "weth": "the wrapped ether address"
        }
      },
      "multicall(bytes[])": {
        "custom:oz-upgrades-unsafe-allow-reachable": "delegatecall",
        "details": "Receives and executes a batch of function calls on this contract."
      },
      "owner()": {
        "details": "Returns the address of the current owner."
      },
      "pauseSwap(bool)": {
        "details": "pause the swap operation for the contract",
        "params": {
          "opt": "true or false "
        }
      },
      "renounceOwnership()": {
        "details": "Leaves the contract without owner. It will not be possible to call `onlyOwner` functions. Can only be called by the current owner. NOTE: Renouncing ownership will leave the contract without an owner, thereby disabling any functionality that is only available to the owner."
      },
      "setFeeWallet(address)": {
        "details": "set the address for taking the protocol fees",
        "params": {
          "addr": "the fee in percentage basis point"
        }
      },
      "setProtocolFee(uint256)": {
        "details": "protocol fee in basis point",
        "params": {
          "_feeBps": "the fee in percentage basis point"
        }
      },
      "swap(bytes32,uint256,address,bytes)": {
        "details": "perform a swap",
        "params": {
          "amount": "the total amount including the protocol fee for the swap",
          "payload": "the encoded swap data to foward to the router",
          "routeId": "the identifier of the router to use",
          "tokenA": "the token to swap into another token (tokenB)"
        }
      },
      "transferOwnership(address)": {
        "details": "Transfers ownership of the contract to a new account (`newOwner`). Can only be called by the current owner."
      },
      "withdraw(address,uint256)": {
        "details": "withdraw any stucked tokens in the contract",
        "params": {
          "amount": "the amount to move out",
          "token": "the token address to withdraw"
        }
      }
    },
    "version": 1
  },
  "userdoc": {
    "kind": "user",
    "methods": {},
    "version": 1
  },
  "storageLayout": {
    "storage": [
      {
        "astId": 752,
        "contract": "contracts/Factory.sol:Factory",
        "label": "PROTOCOL_FEE",
        "offset": 0,
        "slot": "0",
        "type": "t_uint256"
      },
      {
        "astId": 754,
        "contract": "contracts/Factory.sol:Factory",
        "label": "FEE_WALLET",
        "offset": 0,
        "slot": "1",
        "type": "t_address"
      },
      {
        "astId": 774,
        "contract": "contracts/Factory.sol:Factory",
        "label": "routes",
        "offset": 0,
        "slot": "2",
        "type": "t_mapping(t_bytes32,t_struct(RouteParams)792_storage)"
      },
      {
        "astId": 777,
        "contract": "contracts/Factory.sol:Factory",
        "label": "routesIds",
        "offset": 0,
        "slot": "3",
        "type": "t_array(t_bytes32)dyn_storage"
      },
      {
        "astId": 8,
        "contract": "contracts/Factory.sol:Factory",
        "label": "_owner",
        "offset": 0,
        "slot": "4",
        "type": "t_address"
      },
      {
        "astId": 571,
        "contract": "contracts/Factory.sol:Factory",
        "label": "_status",
        "offset": 0,
        "slot": "5",
        "type": "t_uint256"
      },
      {
        "astId": 3044,
        "contract": "contracts/Factory.sol:Factory",
        "label": "isPaused",
        "offset": 0,
        "slot": "6",
        "type": "t_bool"
      }
    ],
    "types": {
      "t_address": {
        "encoding": "inplace",
        "label": "address",
        "numberOfBytes": "20"
      },
      "t_address_payable": {
        "encoding": "inplace",
        "label": "address payable",
        "numberOfBytes": "20"
      },
      "t_array(t_bytes32)dyn_storage": {
        "base": "t_bytes32",
        "encoding": "dynamic_array",
        "label": "bytes32[]",
        "numberOfBytes": "32"
      },
      "t_bool": {
        "encoding": "inplace",
        "label": "bool",
        "numberOfBytes": "1"
      },
      "t_bytes32": {
        "encoding": "inplace",
        "label": "bytes32",
        "numberOfBytes": "32"
      },
      "t_mapping(t_bytes32,t_struct(RouteParams)792_storage)": {
        "encoding": "mapping",
        "key": "t_bytes32",
        "label": "mapping(bytes32 => struct Defs.RouteParams)",
        "numberOfBytes": "32",
        "value": "t_struct(RouteParams)792_storage"
      },
      "t_struct(RouteParams)792_storage": {
        "encoding": "inplace",
        "label": "struct Defs.RouteParams",
        "members": [
          {
            "astId": 779,
            "contract": "contracts/Factory.sol:Factory",
            "label": "id",
            "offset": 0,
            "slot": "0",
            "type": "t_bytes32"
          },
          {
            "astId": 781,
            "contract": "contracts/Factory.sol:Factory",
            "label": "group",
            "offset": 0,
            "slot": "1",
            "type": "t_bytes32"
          },
          {
            "astId": 783,
            "contract": "contracts/Factory.sol:Factory",
            "label": "router",
            "offset": 0,
            "slot": "2",
            "type": "t_address_payable"
          },
          {
            "astId": 785,
            "contract": "contracts/Factory.sol:Factory",
            "label": "factory",
            "offset": 0,
            "slot": "3",
            "type": "t_address"
          },
          {
            "astId": 787,
            "contract": "contracts/Factory.sol:Factory",
            "label": "weth",
            "offset": 0,
            "slot": "4",
            "type": "t_address"
          },
          {
            "astId": 789,
            "contract": "contracts/Factory.sol:Factory",
            "label": "createdAt",
            "offset": 0,
            "slot": "5",
            "type": "t_uint256"
          },
          {
            "astId": 791,
            "contract": "contracts/Factory.sol:Factory",
            "label": "enabled",
            "offset": 0,
            "slot": "6",
            "type": "t_bool"
          }
        ],
        "numberOfBytes": "224"
      },
      "t_uint256": {
        "encoding": "inplace",
        "label": "uint256",
        "numberOfBytes": "32"
      }
    }
  }
}