{
  "address": "0x249Abf9E07a9Dc22EF368ddAFA08e510C49f2C97",
  "abi": [
    {
      "inputs": [
        {
          "internalType": "uint256",
          "name": "protocolFee",
          "type": "uint256"
        }
      ],
      "stateMutability": "nonpayable",
      "type": "constructor"
    },
    {
      "inputs": [
        {
          "internalType": "address",
          "name": "target",
          "type": "address"
        }
      ],
      "name": "AddressEmptyCode",
      "type": "error"
    },
    {
      "inputs": [],
      "name": "FailedInnerCall",
      "type": "error"
    },
    {
      "inputs": [
        {
          "internalType": "address",
          "name": "owner",
          "type": "address"
        }
      ],
      "name": "OwnableInvalidOwner",
      "type": "error"
    },
    {
      "inputs": [
        {
          "internalType": "address",
          "name": "account",
          "type": "address"
        }
      ],
      "name": "OwnableUnauthorizedAccount",
      "type": "error"
    },
    {
      "anonymous": false,
      "inputs": [
        {
          "indexed": true,
          "internalType": "address",
          "name": "previousOwner",
          "type": "address"
        },
        {
          "indexed": true,
          "internalType": "address",
          "name": "newOwner",
          "type": "address"
        }
      ],
      "name": "OwnershipTransferred",
      "type": "event"
    },
    {
      "anonymous": false,
      "inputs": [
        {
          "indexed": false,
          "internalType": "uint256",
          "name": "",
          "type": "uint256"
        }
      ],
      "name": "SetProtocolFee",
      "type": "event"
    },
    {
      "inputs": [
        {
          "internalType": "bytes32",
          "name": "dex",
          "type": "bytes32"
        },
        {
          "internalType": "contract IUniswapV2Router02",
          "name": "uniV2Router",
          "type": "address"
        },
        {
          "internalType": "contract ISwapRouter",
          "name": "uniV3Router",
          "type": "address"
        },
        {
          "internalType": "address",
          "name": "uniV3Factory",
          "type": "address"
        },
        {
          "internalType": "bool",
          "name": "enabled",
          "type": "bool"
        }
      ],
      "name": "addDex",
      "outputs": [],
      "stateMutability": "nonpayable",
      "type": "function"
    },
    {
      "inputs": [
        {
          "internalType": "uint256",
          "name": "",
          "type": "uint256"
        }
      ],
      "name": "dexes",
      "outputs": [
        {
          "internalType": "bytes32",
          "name": "",
          "type": "bytes32"
        }
      ],
      "stateMutability": "view",
      "type": "function"
    },
    {
      "inputs": [
        {
          "internalType": "bytes32",
          "name": "",
          "type": "bytes32"
        }
      ],
      "name": "dexesParams",
      "outputs": [
        {
          "internalType": "bytes32",
          "name": "dex",
          "type": "bytes32"
        },
        {
          "internalType": "contract IUniswapV2Router02",
          "name": "v2Router",
          "type": "address"
        },
        {
          "internalType": "contract IUniswapV2Factory",
          "name": "v2Factory",
          "type": "address"
        },
        {
          "internalType": "contract ISwapRouter",
          "name": "v3Router",
          "type": "address"
        },
        {
          "internalType": "contract IUniswapV3Factory",
          "name": "v3Factory",
          "type": "address"
        },
        {
          "internalType": "uint256",
          "name": "createdAt",
          "type": "uint256"
        },
        {
          "internalType": "bool",
          "name": "enabled",
          "type": "bool"
        }
      ],
      "stateMutability": "view",
      "type": "function"
    },
    {
      "inputs": [
        {
          "internalType": "bytes[]",
          "name": "data",
          "type": "bytes[]"
        }
      ],
      "name": "multicall",
      "outputs": [
        {
          "internalType": "bytes[]",
          "name": "results",
          "type": "bytes[]"
        }
      ],
      "stateMutability": "nonpayable",
      "type": "function"
    },
    {
      "inputs": [],
      "name": "owner",
      "outputs": [
        {
          "internalType": "address",
          "name": "",
          "type": "address"
        }
      ],
      "stateMutability": "view",
      "type": "function"
    },
    {
      "inputs": [],
      "name": "renounceOwnership",
      "outputs": [],
      "stateMutability": "nonpayable",
      "type": "function"
    },
    {
      "inputs": [
        {
          "internalType": "uint256",
          "name": "_feeBps",
          "type": "uint256"
        }
      ],
      "name": "setProtocolFee",
      "outputs": [],
      "stateMutability": "nonpayable",
      "type": "function"
    },
    {
      "inputs": [
        {
          "internalType": "address",
          "name": "newOwner",
          "type": "address"
        }
      ],
      "name": "transferOwnership",
      "outputs": [],
      "stateMutability": "nonpayable",
      "type": "function"
    }
  ],
  "transactionHash": "0xa3402ba8ada8e9b86f5027c5f618e60ac4e3a3f869b4e6c92ce6d589253a9037",
  "args": [
    100
  ],
  "numDeployments": 1,
  "solcInputHash": "6b751aea95d3b5b1a7191ef7f8e6884c",
  "bytecode": "0x60806040523480156200001157600080fd5b506040516200161438038062001614833981810160405281019062000037919062000237565b62000047620000e660201b60201c565b600073ffffffffffffffffffffffffffffffffffffffff168173ffffffffffffffffffffffffffffffffffffffff1603620000bc5760006040517f1e4fbdf7000000000000000000000000000000000000000000000000000000008152600401620000b39190620002ae565b60405180910390fd5b620000cd81620000ee60201b60201c565b50620000df81620001b460201b60201c565b50620002f9565b600033905090565b6000600160009054906101000a900473ffffffffffffffffffffffffffffffffffffffff16905081600160006101000a81548173ffffffffffffffffffffffffffffffffffffffff021916908373ffffffffffffffffffffffffffffffffffffffff1602179055508173ffffffffffffffffffffffffffffffffffffffff168173ffffffffffffffffffffffffffffffffffffffff167f8be0079c531659141344cd1fd0a4f28419497f9722a3daafe3b4186f6b6457e060405160405180910390a35050565b806000819055507fdc0410a296e1e33943a772020d333d5f99319d7fcad932a484c53889f7aaa2b181604051620001ec9190620002dc565b60405180910390a150565b600080fd5b6000819050919050565b6200021181620001fc565b81146200021d57600080fd5b50565b600081519050620002318162000206565b92915050565b60006020828403121562000250576200024f620001f7565b5b6000620002608482850162000220565b91505092915050565b600073ffffffffffffffffffffffffffffffffffffffff82169050919050565b6000620002968262000269565b9050919050565b620002a88162000289565b82525050565b6000602082019050620002c560008301846200029d565b92915050565b620002d681620001fc565b82525050565b6000602082019050620002f36000830184620002cb565b92915050565b61130b80620003096000396000f3fe608060405234801561001057600080fd5b50600436106100885760003560e01c80638da5cb5b1161005b5780638da5cb5b14610119578063ac9650d814610137578063e514e48114610167578063f2fde38b1461018357610088565b80630941b25e1461008d5780636338a7c0146100c3578063715018a6146100f3578063787dce3d146100fd575b600080fd5b6100a760048036038101906100a29190610acb565b61019f565b6040516100ba9796959493929190610c1d565b60405180910390f35b6100dd60048036038101906100d89190610cb8565b61026e565b6040516100ea9190610ce5565b60405180910390f35b6100fb610292565b005b61011760048036038101906101129190610cb8565b6102a6565b005b6101216102ba565b60405161012e9190610d21565b60405180910390f35b610151600480360381019061014c9190610da1565b6102e4565b60405161015e9190610f40565b60405180910390f35b610181600480360381019061017c9190611036565b6103f0565b005b61019d600480360381019061019891906110b1565b610717565b005b60026020528060005260406000206000915090508060000154908060010160009054906101000a900473ffffffffffffffffffffffffffffffffffffffff16908060020160009054906101000a900473ffffffffffffffffffffffffffffffffffffffff16908060030160009054906101000a900473ffffffffffffffffffffffffffffffffffffffff16908060040160009054906101000a900473ffffffffffffffffffffffffffffffffffffffff16908060050154908060060160009054906101000a900460ff16905087565b6003818154811061027e57600080fd5b906000526020600020016000915090505481565b61029a61079d565b6102a46000610824565b565b6102ae61079d565b6102b7816108ea565b50565b6000600160009054906101000a900473ffffffffffffffffffffffffffffffffffffffff16905090565b60608282905067ffffffffffffffff811115610303576103026110de565b5b60405190808252806020026020018201604052801561033657816020015b60608152602001906001900390816103215790505b50905060005b838390508110156103e9576103b83085858481811061035e5761035d61110d565b5b9050602002810190610370919061114b565b8080601f016020809104026020016040519081016040528093929190818152602001838380828437600081840152601f19601f8201169050808301925050505050505061092b565b8282815181106103cb576103ca61110d565b5b602002602001018190525080806103e1906111dd565b91505061033c565b5092915050565b6103f861079d565b600080600260008881526020019081526020016000206005015414905060008073ffffffffffffffffffffffffffffffffffffffff168673ffffffffffffffffffffffffffffffffffffffff16146104be578573ffffffffffffffffffffffffffffffffffffffff1663c45a01556040518163ffffffff1660e01b8152600401602060405180830381865afa158015610495573d6000803e3d6000fd5b505050506040513d601f19601f820116820180604052508101906104b9919061123a565b6104c1565b60005b90506000826104e65760026000898152602001908152602001600020600501546104e8565b425b90506040518060e001604052808981526020018873ffffffffffffffffffffffffffffffffffffffff1681526020018373ffffffffffffffffffffffffffffffffffffffff1681526020018773ffffffffffffffffffffffffffffffffffffffff1681526020018673ffffffffffffffffffffffffffffffffffffffff168152602001828152602001851515815250600260008a81526020019081526020016000206000820151816000015560208201518160010160006101000a81548173ffffffffffffffffffffffffffffffffffffffff021916908373ffffffffffffffffffffffffffffffffffffffff16021790555060408201518160020160006101000a81548173ffffffffffffffffffffffffffffffffffffffff021916908373ffffffffffffffffffffffffffffffffffffffff16021790555060608201518160030160006101000a81548173ffffffffffffffffffffffffffffffffffffffff021916908373ffffffffffffffffffffffffffffffffffffffff16021790555060808201518160040160006101000a81548173ffffffffffffffffffffffffffffffffffffffff021916908373ffffffffffffffffffffffffffffffffffffffff16021790555060a0820151816005015560c08201518160060160006101000a81548160ff021916908315150217905550905050821561070d5760038890806001815401808255809150506001900390600052602060002001600090919091909150555b5050505050505050565b61071f61079d565b600073ffffffffffffffffffffffffffffffffffffffff168173ffffffffffffffffffffffffffffffffffffffff16036107915760006040517f1e4fbdf70000000000000000000000000000000000000000000000000000000081526004016107889190610d21565b60405180910390fd5b61079a81610824565b50565b6107a56109af565b73ffffffffffffffffffffffffffffffffffffffff166107c36102ba565b73ffffffffffffffffffffffffffffffffffffffff1614610822576107e66109af565b6040517f118cdaa70000000000000000000000000000000000000000000000000000000081526004016108199190610d21565b60405180910390fd5b565b6000600160009054906101000a900473ffffffffffffffffffffffffffffffffffffffff16905081600160006101000a81548173ffffffffffffffffffffffffffffffffffffffff021916908373ffffffffffffffffffffffffffffffffffffffff1602179055508173ffffffffffffffffffffffffffffffffffffffff168173ffffffffffffffffffffffffffffffffffffffff167f8be0079c531659141344cd1fd0a4f28419497f9722a3daafe3b4186f6b6457e060405160405180910390a35050565b806000819055507fdc0410a296e1e33943a772020d333d5f99319d7fcad932a484c53889f7aaa2b1816040516109209190611267565b60405180910390a150565b60606000808473ffffffffffffffffffffffffffffffffffffffff168460405161095591906112be565b600060405180830381855af49150503d8060008114610990576040519150601f19603f3d011682016040523d82523d6000602084013e610995565b606091505b50915091506109a58583836109b7565b9250505092915050565b600033905090565b6060826109cc576109c782610a46565b610a3e565b600082511480156109f4575060008473ffffffffffffffffffffffffffffffffffffffff163b145b15610a3657836040517f9996b315000000000000000000000000000000000000000000000000000000008152600401610a2d9190610d21565b60405180910390fd5b819050610a3f565b5b9392505050565b600081511115610a595780518082602001fd5b6040517f1425ea4200000000000000000000000000000000000000000000000000000000815260040160405180910390fd5b600080fd5b600080fd5b6000819050919050565b610aa881610a95565b8114610ab357600080fd5b50565b600081359050610ac581610a9f565b92915050565b600060208284031215610ae157610ae0610a8b565b5b6000610aef84828501610ab6565b91505092915050565b610b0181610a95565b82525050565b600073ffffffffffffffffffffffffffffffffffffffff82169050919050565b6000819050919050565b6000610b4c610b47610b4284610b07565b610b27565b610b07565b9050919050565b6000610b5e82610b31565b9050919050565b6000610b7082610b53565b9050919050565b610b8081610b65565b82525050565b6000610b9182610b53565b9050919050565b610ba181610b86565b82525050565b6000610bb282610b53565b9050919050565b610bc281610ba7565b82525050565b6000610bd382610b53565b9050919050565b610be381610bc8565b82525050565b6000819050919050565b610bfc81610be9565b82525050565b60008115159050919050565b610c1781610c02565b82525050565b600060e082019050610c32600083018a610af8565b610c3f6020830189610b77565b610c4c6040830188610b98565b610c596060830187610bb9565b610c666080830186610bda565b610c7360a0830185610bf3565b610c8060c0830184610c0e565b98975050505050505050565b610c9581610be9565b8114610ca057600080fd5b50565b600081359050610cb281610c8c565b92915050565b600060208284031215610cce57610ccd610a8b565b5b6000610cdc84828501610ca3565b91505092915050565b6000602082019050610cfa6000830184610af8565b92915050565b6000610d0b82610b07565b9050919050565b610d1b81610d00565b82525050565b6000602082019050610d366000830184610d12565b92915050565b600080fd5b600080fd5b600080fd5b60008083601f840112610d6157610d60610d3c565b5b8235905067ffffffffffffffff811115610d7e57610d7d610d41565b5b602083019150836020820283011115610d9a57610d99610d46565b5b9250929050565b60008060208385031215610db857610db7610a8b565b5b600083013567ffffffffffffffff811115610dd657610dd5610a90565b5b610de285828601610d4b565b92509250509250929050565b600081519050919050565b600082825260208201905092915050565b6000819050602082019050919050565b600081519050919050565b600082825260208201905092915050565b60005b83811015610e54578082015181840152602081019050610e39565b60008484015250505050565b6000601f19601f8301169050919050565b6000610e7c82610e1a565b610e868185610e25565b9350610e96818560208601610e36565b610e9f81610e60565b840191505092915050565b6000610eb68383610e71565b905092915050565b6000602082019050919050565b6000610ed682610dee565b610ee08185610df9565b935083602082028501610ef285610e0a565b8060005b85811015610f2e5784840389528151610f0f8582610eaa565b9450610f1a83610ebe565b925060208a01995050600181019050610ef6565b50829750879550505050505092915050565b60006020820190508181036000830152610f5a8184610ecb565b905092915050565b6000610f6d82610d00565b9050919050565b610f7d81610f62565b8114610f8857600080fd5b50565b600081359050610f9a81610f74565b92915050565b6000610fab82610d00565b9050919050565b610fbb81610fa0565b8114610fc657600080fd5b50565b600081359050610fd881610fb2565b92915050565b610fe781610d00565b8114610ff257600080fd5b50565b60008135905061100481610fde565b92915050565b61101381610c02565b811461101e57600080fd5b50565b6000813590506110308161100a565b92915050565b600080600080600060a0868803121561105257611051610a8b565b5b600061106088828901610ab6565b955050602061107188828901610f8b565b945050604061108288828901610fc9565b935050606061109388828901610ff5565b92505060806110a488828901611021565b9150509295509295909350565b6000602082840312156110c7576110c6610a8b565b5b60006110d584828501610ff5565b91505092915050565b7f4e487b7100000000000000000000000000000000000000000000000000000000600052604160045260246000fd5b7f4e487b7100000000000000000000000000000000000000000000000000000000600052603260045260246000fd5b600080fd5b600080fd5b600080fd5b600080833560016020038436030381126111685761116761113c565b5b80840192508235915067ffffffffffffffff82111561118a57611189611141565b5b6020830192506001820236038313156111a6576111a5611146565b5b509250929050565b7f4e487b7100000000000000000000000000000000000000000000000000000000600052601160045260246000fd5b60006111e882610be9565b91507fffffffffffffffffffffffffffffffffffffffffffffffffffffffffffffffff820361121a576112196111ae565b5b600182019050919050565b60008151905061123481610fde565b92915050565b6000602082840312156112505761124f610a8b565b5b600061125e84828501611225565b91505092915050565b600060208201905061127c6000830184610bf3565b92915050565b600081905092915050565b600061129882610e1a565b6112a28185611282565b93506112b2818560208601610e36565b80840191505092915050565b60006112ca828461128d565b91508190509291505056fea2646970667358221220a965dc9f7e5380c21f745055ad05f2bca3de672578af36103c0a721ef83484cc64736f6c63430008140033",
  "devdoc": {
    "errors": {
      "AddressEmptyCode(address)": [
        {
          "details": "There's no code at `target` (it is not a contract)."
        }
      ],
      "FailedInnerCall()": [
        {
          "details": "A call to an address target failed. The target may have reverted."
        }
      ],
      "OwnableInvalidOwner(address)": [
        {
          "details": "The owner is not a valid owner account. (eg. `address(0)`)"
        }
      ],
      "OwnableUnauthorizedAccount(address)": [
        {
          "details": "The caller account is not authorized to perform an operation."
        }
      ]
    },
    "kind": "dev",
    "methods": {
      "multicall(bytes[])": {
        "custom:oz-upgrades-unsafe-allow-reachable": "delegatecall",
        "details": "Receives and executes a batch of function calls on this contract."
      },
      "owner()": {
        "details": "Returns the address of the current owner."
      },
      "renounceOwnership()": {
        "details": "Leaves the contract without owner. It will not be possible to call `onlyOwner` functions. Can only be called by the current owner. NOTE: Renouncing ownership will leave the contract without an owner, thereby disabling any functionality that is only available to the owner."
      },
      "setProtocolFee(uint256)": {
        "details": "protocol fee in basis point",
        "params": {
          "_feeBps": "the fee in percentage basis point"
        }
      },
      "transferOwnership(address)": {
        "details": "Transfers ownership of the contract to a new account (`newOwner`). Can only be called by the current owner."
      }
    },
    "version": 1
  },
  "userdoc": {
    "kind": "user",
    "methods": {},
    "version": 1
  },
  "storageLayout": {
    "storage": [
      {
        "astId": 670,
        "contract": "contracts/Factory.sol:Factory",
        "label": "protocolFee",
        "offset": 0,
        "slot": "0",
        "type": "t_uint256"
      },
      {
        "astId": 8,
        "contract": "contracts/Factory.sol:Factory",
        "label": "_owner",
        "offset": 0,
        "slot": "1",
        "type": "t_address"
      },
      {
        "astId": 697,
        "contract": "contracts/Factory.sol:Factory",
        "label": "initialized",
        "offset": 20,
        "slot": "1",
        "type": "t_bool"
      },
      {
        "astId": 702,
        "contract": "contracts/Factory.sol:Factory",
        "label": "dexesParams",
        "offset": 0,
        "slot": "2",
        "type": "t_mapping(t_bytes32,t_struct(DexParams)689_storage)"
      },
      {
        "astId": 705,
        "contract": "contracts/Factory.sol:Factory",
        "label": "dexes",
        "offset": 0,
        "slot": "3",
        "type": "t_array(t_bytes32)dyn_storage"
      }
    ],
    "types": {
      "t_address": {
        "encoding": "inplace",
        "label": "address",
        "numberOfBytes": "20"
      },
      "t_array(t_bytes32)dyn_storage": {
        "base": "t_bytes32",
        "encoding": "dynamic_array",
        "label": "bytes32[]",
        "numberOfBytes": "32"
      },
      "t_bool": {
        "encoding": "inplace",
        "label": "bool",
        "numberOfBytes": "1"
      },
      "t_bytes32": {
        "encoding": "inplace",
        "label": "bytes32",
        "numberOfBytes": "32"
      },
      "t_contract(ISwapRouter)2805": {
        "encoding": "inplace",
        "label": "contract ISwapRouter",
        "numberOfBytes": "20"
      },
      "t_contract(IUniswapV2Factory)1074": {
        "encoding": "inplace",
        "label": "contract IUniswapV2Factory",
        "numberOfBytes": "20"
      },
      "t_contract(IUniswapV2Router02)1812": {
        "encoding": "inplace",
        "label": "contract IUniswapV2Router02",
        "numberOfBytes": "20"
      },
      "t_contract(IUniswapV3Factory)2053": {
        "encoding": "inplace",
        "label": "contract IUniswapV3Factory",
        "numberOfBytes": "20"
      },
      "t_mapping(t_bytes32,t_struct(DexParams)689_storage)": {
        "encoding": "mapping",
        "key": "t_bytes32",
        "label": "mapping(bytes32 => struct Globals.DexParams)",
        "numberOfBytes": "32",
        "value": "t_struct(DexParams)689_storage"
      },
      "t_struct(DexParams)689_storage": {
        "encoding": "inplace",
        "label": "struct Globals.DexParams",
        "members": [
          {
            "astId": 672,
            "contract": "contracts/Factory.sol:Factory",
            "label": "dex",
            "offset": 0,
            "slot": "0",
            "type": "t_bytes32"
          },
          {
            "astId": 675,
            "contract": "contracts/Factory.sol:Factory",
            "label": "v2Router",
            "offset": 0,
            "slot": "1",
            "type": "t_contract(IUniswapV2Router02)1812"
          },
          {
            "astId": 678,
            "contract": "contracts/Factory.sol:Factory",
            "label": "v2Factory",
            "offset": 0,
            "slot": "2",
            "type": "t_contract(IUniswapV2Factory)1074"
          },
          {
            "astId": 681,
            "contract": "contracts/Factory.sol:Factory",
            "label": "v3Router",
            "offset": 0,
            "slot": "3",
            "type": "t_contract(ISwapRouter)2805"
          },
          {
            "astId": 684,
            "contract": "contracts/Factory.sol:Factory",
            "label": "v3Factory",
            "offset": 0,
            "slot": "4",
            "type": "t_contract(IUniswapV3Factory)2053"
          },
          {
            "astId": 686,
            "contract": "contracts/Factory.sol:Factory",
            "label": "createdAt",
            "offset": 0,
            "slot": "5",
            "type": "t_uint256"
          },
          {
            "astId": 688,
            "contract": "contracts/Factory.sol:Factory",
            "label": "enabled",
            "offset": 0,
            "slot": "6",
            "type": "t_bool"
          }
        ],
        "numberOfBytes": "224"
      },
      "t_uint256": {
        "encoding": "inplace",
        "label": "uint256",
        "numberOfBytes": "32"
      }
    }
  }
}