{
  "address": "0x276e26cC88BCBD885c855fBf7D9b6Aa64d60140a",
  "abi": [
    {
      "inputs": [
        {
          "internalType": "uint256",
          "name": "protocolFee",
          "type": "uint256"
        },
        {
          "internalType": "address",
          "name": "feeWallet",
          "type": "address"
        }
      ],
      "stateMutability": "nonpayable",
      "type": "constructor"
    },
    {
      "inputs": [
        {
          "internalType": "address",
          "name": "target",
          "type": "address"
        }
      ],
      "name": "AddressEmptyCode",
      "type": "error"
    },
    {
      "inputs": [
        {
          "internalType": "address",
          "name": "account",
          "type": "address"
        }
      ],
      "name": "AddressInsufficientBalance",
      "type": "error"
    },
    {
      "inputs": [],
      "name": "FailedInnerCall",
      "type": "error"
    },
    {
      "inputs": [
        {
          "internalType": "address",
          "name": "owner",
          "type": "address"
        }
      ],
      "name": "OwnableInvalidOwner",
      "type": "error"
    },
    {
      "inputs": [
        {
          "internalType": "address",
          "name": "account",
          "type": "address"
        }
      ],
      "name": "OwnableUnauthorizedAccount",
      "type": "error"
    },
    {
      "inputs": [],
      "name": "ReentrancyGuardReentrantCall",
      "type": "error"
    },
    {
      "anonymous": false,
      "inputs": [
        {
          "indexed": true,
          "internalType": "address",
          "name": "previousOwner",
          "type": "address"
        },
        {
          "indexed": true,
          "internalType": "address",
          "name": "newOwner",
          "type": "address"
        }
      ],
      "name": "OwnershipTransferred",
      "type": "event"
    },
    {
      "anonymous": false,
      "inputs": [
        {
          "indexed": false,
          "internalType": "address",
          "name": "addr",
          "type": "address"
        }
      ],
      "name": "SetFeeWallet",
      "type": "event"
    },
    {
      "anonymous": false,
      "inputs": [
        {
          "indexed": false,
          "internalType": "uint256",
          "name": "",
          "type": "uint256"
        }
      ],
      "name": "SetProtocolFee",
      "type": "event"
    },
    {
      "anonymous": false,
      "inputs": [
        {
          "indexed": false,
          "internalType": "bytes32",
          "name": "routerId",
          "type": "bytes32"
        },
        {
          "indexed": false,
          "internalType": "uint256",
          "name": "amount",
          "type": "uint256"
        },
        {
          "indexed": false,
          "internalType": "address",
          "name": "tokenA",
          "type": "address"
        },
        {
          "indexed": false,
          "internalType": "uint256",
          "name": "feeBps",
          "type": "uint256"
        },
        {
          "indexed": false,
          "internalType": "address",
          "name": "account",
          "type": "address"
        }
      ],
      "name": "Swap",
      "type": "event"
    },
    {
      "stateMutability": "payable",
      "type": "fallback"
    },
    {
      "inputs": [
        {
          "internalType": "bytes32",
          "name": "id",
          "type": "bytes32"
        },
        {
          "internalType": "bytes32",
          "name": "adapter",
          "type": "bytes32"
        },
        {
          "internalType": "address payable",
          "name": "route",
          "type": "address"
        },
        {
          "internalType": "address",
          "name": "factory",
          "type": "address"
        },
        {
          "internalType": "address",
          "name": "weth",
          "type": "address"
        },
        {
          "internalType": "bool",
          "name": "enabled",
          "type": "bool"
        }
      ],
      "name": "addRouter",
      "outputs": [],
      "stateMutability": "nonpayable",
      "type": "function"
    },
    {
      "inputs": [
        {
          "internalType": "uint256",
          "name": "amount",
          "type": "uint256"
        },
        {
          "internalType": "uint256",
          "name": "bps",
          "type": "uint256"
        }
      ],
      "name": "calPercentage",
      "outputs": [
        {
          "internalType": "uint256",
          "name": "",
          "type": "uint256"
        }
      ],
      "stateMutability": "pure",
      "type": "function"
    },
    {
      "inputs": [
        {
          "internalType": "address",
          "name": "uniV2Router",
          "type": "address"
        }
      ],
      "name": "getUniV2RouterInfo",
      "outputs": [
        {
          "internalType": "address",
          "name": "factory",
          "type": "address"
        },
        {
          "internalType": "address",
          "name": "weth",
          "type": "address"
        }
      ],
      "stateMutability": "pure",
      "type": "function"
    },
    {
      "inputs": [
        {
          "internalType": "bytes[]",
          "name": "data",
          "type": "bytes[]"
        }
      ],
      "name": "multicall",
      "outputs": [
        {
          "internalType": "bytes[]",
          "name": "results",
          "type": "bytes[]"
        }
      ],
      "stateMutability": "nonpayable",
      "type": "function"
    },
    {
      "inputs": [],
      "name": "owner",
      "outputs": [
        {
          "internalType": "address",
          "name": "",
          "type": "address"
        }
      ],
      "stateMutability": "view",
      "type": "function"
    },
    {
      "inputs": [
        {
          "internalType": "bool",
          "name": "opt",
          "type": "bool"
        }
      ],
      "name": "pauseSwap",
      "outputs": [],
      "stateMutability": "nonpayable",
      "type": "function"
    },
    {
      "inputs": [],
      "name": "renounceOwnership",
      "outputs": [],
      "stateMutability": "nonpayable",
      "type": "function"
    },
    {
      "inputs": [
        {
          "internalType": "bytes32",
          "name": "",
          "type": "bytes32"
        }
      ],
      "name": "routers",
      "outputs": [
        {
          "internalType": "bytes32",
          "name": "id",
          "type": "bytes32"
        },
        {
          "internalType": "bytes32",
          "name": "adapter",
          "type": "bytes32"
        },
        {
          "internalType": "address payable",
          "name": "route",
          "type": "address"
        },
        {
          "internalType": "address",
          "name": "factory",
          "type": "address"
        },
        {
          "internalType": "address",
          "name": "weth",
          "type": "address"
        },
        {
          "internalType": "uint256",
          "name": "createdAt",
          "type": "uint256"
        },
        {
          "internalType": "bool",
          "name": "enabled",
          "type": "bool"
        }
      ],
      "stateMutability": "view",
      "type": "function"
    },
    {
      "inputs": [
        {
          "internalType": "uint256",
          "name": "",
          "type": "uint256"
        }
      ],
      "name": "routersIds",
      "outputs": [
        {
          "internalType": "bytes32",
          "name": "",
          "type": "bytes32"
        }
      ],
      "stateMutability": "view",
      "type": "function"
    },
    {
      "inputs": [
        {
          "internalType": "address",
          "name": "addr",
          "type": "address"
        }
      ],
      "name": "setFeeWallet",
      "outputs": [],
      "stateMutability": "nonpayable",
      "type": "function"
    },
    {
      "inputs": [
        {
          "internalType": "uint256",
          "name": "_feeBps",
          "type": "uint256"
        }
      ],
      "name": "setProtocolFee",
      "outputs": [],
      "stateMutability": "nonpayable",
      "type": "function"
    },
    {
      "inputs": [
        {
          "internalType": "bytes32",
          "name": "routerId",
          "type": "bytes32"
        },
        {
          "internalType": "uint256",
          "name": "amount",
          "type": "uint256"
        },
        {
          "internalType": "address",
          "name": "tokenA",
          "type": "address"
        },
        {
          "internalType": "bytes",
          "name": "payload",
          "type": "bytes"
        }
      ],
      "name": "swap",
      "outputs": [],
      "stateMutability": "payable",
      "type": "function"
    },
    {
      "inputs": [
        {
          "internalType": "address",
          "name": "newOwner",
          "type": "address"
        }
      ],
      "name": "transferOwnership",
      "outputs": [],
      "stateMutability": "nonpayable",
      "type": "function"
    },
    {
      "inputs": [
        {
          "internalType": "address",
          "name": "token",
          "type": "address"
        },
        {
          "internalType": "uint256",
          "name": "amount",
          "type": "uint256"
        }
      ],
      "name": "withdraw",
      "outputs": [],
      "stateMutability": "nonpayable",
      "type": "function"
    },
    {
      "stateMutability": "payable",
      "type": "receive"
    }
  ],
  "transactionHash": "0x40a407264aea2fdf3b7bc79a3718ec24aee883a252514b5e8b1d23551a7a3e8e",
  "args": [
    100,
    "0x92c9E17a2f02b2119350F3E90918bEd3c6e24F3c"
  ],
  "numDeployments": 1,
  "solcInputHash": "b8d2be3cf4a3405286abb8b0d7773cf7",
  "bytecode": "0x60806040523480156200001157600080fd5b5060405162002ffd38038062002ffd833981810160405281019062000037919062000333565b620000476200010060201b60201c565b600073ffffffffffffffffffffffffffffffffffffffff168173ffffffffffffffffffffffffffffffffffffffff1603620000bc5760006040517f1e4fbdf7000000000000000000000000000000000000000000000000000000008152600401620000b391906200038b565b60405180910390fd5b620000cd816200010860201b60201c565b506001600581905550620000e782620001ce60201b60201c565b620000f8816200021160201b60201c565b5050620003d6565b600033905090565b6000600460009054906101000a900473ffffffffffffffffffffffffffffffffffffffff16905081600460006101000a81548173ffffffffffffffffffffffffffffffffffffffff021916908373ffffffffffffffffffffffffffffffffffffffff1602179055508173ffffffffffffffffffffffffffffffffffffffff168173ffffffffffffffffffffffffffffffffffffffff167f8be0079c531659141344cd1fd0a4f28419497f9722a3daafe3b4186f6b6457e060405160405180910390a35050565b806000819055507fdc0410a296e1e33943a772020d333d5f99319d7fcad932a484c53889f7aaa2b181604051620002069190620003b9565b60405180910390a150565b80600160006101000a81548173ffffffffffffffffffffffffffffffffffffffff021916908373ffffffffffffffffffffffffffffffffffffffff1602179055507f3d21e5a2b633291bd1ff5f9c654e402d063783c95759d2ea521b31fb30e4da41816040516200028391906200038b565b60405180910390a150565b600080fd5b6000819050919050565b620002a88162000293565b8114620002b457600080fd5b50565b600081519050620002c8816200029d565b92915050565b600073ffffffffffffffffffffffffffffffffffffffff82169050919050565b6000620002fb82620002ce565b9050919050565b6200030d81620002ee565b81146200031957600080fd5b50565b6000815190506200032d8162000302565b92915050565b600080604083850312156200034d576200034c6200028e565b5b60006200035d85828601620002b7565b925050602062000370858286016200031c565b9150509250929050565b6200038581620002ee565b82525050565b6000602082019050620003a260008301846200037a565b92915050565b620003b38162000293565b82525050565b6000602082019050620003d06000830184620003a8565b92915050565b612c1780620003e66000396000f3fe6080604052600436106100e15760003560e01c80638da5cb5b1161007f578063aa1fce6911610059578063aa1fce69146102a4578063ac9650d8146102e7578063f2fde38b14610324578063f3fef3a31461034d576100e8565b80638da5cb5b1461022757806390d49b9d146102525780639d6304211461027b576100e8565b8063438c74fd116100bb578063438c74fd1461018d5780636f8e6176146101cb578063715018a6146101e7578063787dce3d146101fe576100e8565b80631b80b510146100ea57806328b70aea1461012757806339691ed914610164576100e8565b366100e857005b005b3480156100f657600080fd5b50610111600480360381019061010c9190611932565b610376565b60405161011e9190611981565b60405180910390f35b34801561013357600080fd5b5061014e6004803603810190610149919061199c565b6103b3565b60405161015b91906119e2565b60405180910390f35b34801561017057600080fd5b5061018b60048036038101906101869190611a35565b6103d7565b005b34801561019957600080fd5b506101b460048036038101906101af9190611ac0565b6103fc565b6040516101c2929190611afc565b60405180910390f35b6101e560048036038101906101e09190611bb6565b610582565b005b3480156101f357600080fd5b506101fc610b27565b005b34801561020a57600080fd5b506102256004803603810190610220919061199c565b610b3b565b005b34801561023357600080fd5b5061023c610b4f565b6040516102499190611c3e565b60405180910390f35b34801561025e57600080fd5b5061027960048036038101906102749190611ac0565b610b79565b005b34801561028757600080fd5b506102a2600480360381019061029d9190611c97565b610b8d565b005b3480156102b057600080fd5b506102cb60048036038101906102c69190611d24565b610f38565b6040516102de9796959493929190611d6f565b60405180910390f35b3480156102f357600080fd5b5061030e60048036038101906103099190611e34565b610fe7565b60405161031b9190611fd3565b60405180910390f35b34801561033057600080fd5b5061034b60048036038101906103469190611ac0565b6110f3565b005b34801561035957600080fd5b50610374600480360381019061036f9190611ff5565b611179565b005b600061271082846103879190612064565b101561039257600080fd5b61271082846103a19190612064565b6103ab91906120d5565b905092915050565b600381815481106103c357600080fd5b906000526020600020016000915090505481565b6103df611198565b80600660006101000a81548160ff02191690831515021790555050565b60008060008390506000604051806080016040528060508152602001612b926050913990508173ffffffffffffffffffffffffffffffffffffffff1663c45a01556040518163ffffffff1660e01b8152600401602060405180830381865afa92505050801561048957506040513d601f19601f82011682018060405250810190610486919061211b565b60015b6104ca57806040517f08c379a00000000000000000000000000000000000000000000000000000000081526004016104c1919061219d565b60405180910390fd5b809450508173ffffffffffffffffffffffffffffffffffffffff1663ad5c46486040518163ffffffff1660e01b8152600401602060405180830381865afa92505050801561053657506040513d601f19601f82011682018060405250810190610533919061211b565b60015b61057757806040517f08c379a000000000000000000000000000000000000000000000000000000000815260040161056e919061219d565b60405180910390fd5b809350505050915091565b8460006002600083815260200190815260200160002060050154116105dc576040517f08c379a00000000000000000000000000000000000000000000000000000000081526004016105d390612231565b60405180910390fd5b6002600082815260200190815260200160002060060160009054906101000a900460ff1661063f576040517f08c379a0000000000000000000000000000000000000000000000000000000008152600401610636906122c3565b60405180910390fd5b61064761121f565b600660009054906101000a900460ff1615610697576040517f08c379a000000000000000000000000000000000000000000000000000000000815260040161068e9061232f565b60405180910390fd5b60006002600088815260200190815260200160002060050154116106f0576040517f08c379a00000000000000000000000000000000000000000000000000000000081526004016106e79061239b565b60405180910390fd5b60008383905011610736576040517f08c379a000000000000000000000000000000000000000000000000000000000815260040161072d90612407565b60405180910390fd5b600073ffffffffffffffffffffffffffffffffffffffff168473ffffffffffffffffffffffffffffffffffffffff16036107a5576040517f08c379a000000000000000000000000000000000000000000000000000000000815260040161079c90612473565b60405180910390fd5b73eeeeeeeeeeeeeeeeeeeeeeeeeeeeeeeeeeeeeeee73ffffffffffffffffffffffffffffffffffffffff168473ffffffffffffffffffffffffffffffffffffffff16036108335784341461082e576040517f08c379a0000000000000000000000000000000000000000000000000000000008152600401610825906124df565b60405180910390fd5b610847565b6108468461083f611265565b308861126d565b5b600061085586600054610376565b8661086091906124ff565b90506108978561086e611265565b600160009054906101000a900473ffffffffffffffffffffffffffffffffffffffff168461126d565b60006002600089815260200190815260200160002060020160009054906101000a900473ffffffffffffffffffffffffffffffffffffffff169050600082886108e091906124ff565b905073eeeeeeeeeeeeeeeeeeeeeeeeeeeeeeeeeeeeeeee73ffffffffffffffffffffffffffffffffffffffff168773ffffffffffffffffffffffffffffffffffffffff160361099e5761099886868080601f016020809104026020016040519081016040528093929190818152602001838380828437600081840152601f19601f82011690508083019250505050505050828473ffffffffffffffffffffffffffffffffffffffff166112d69092919063ffffffff16565b50610acc565b8673ffffffffffffffffffffffffffffffffffffffff1663095ea7b383836040518363ffffffff1660e01b81526004016109d9929190612533565b6020604051808303816000875af11580156109f8573d6000803e3d6000fd5b505050506040513d601f19601f82011682018060405250810190610a1c9190612571565b610a5b576040517f08c379a0000000000000000000000000000000000000000000000000000000008152600401610a5290612610565b60405180910390fd5b610aca86868080601f016020809104026020016040519081016040528093929190818152602001838380828437600081840152601f19601f82011690508083019250505050505050348473ffffffffffffffffffffffffffffffffffffffff166112d69092919063ffffffff16565b505b7fa1cf747ad001476b442e3c9c4a2b2180fbc1b3a710b44c90e2f2d23d2f2710c2898989600054610afb611265565b604051610b0c959493929190612630565b60405180910390a1505050610b1f6113a3565b505050505050565b610b2f611198565b610b3960006113ad565b565b610b43611198565b610b4c81611473565b50565b6000600460009054906101000a900473ffffffffffffffffffffffffffffffffffffffff16905090565b610b81611198565b610b8a816114b4565b50565b610b95611198565b600073ffffffffffffffffffffffffffffffffffffffff168473ffffffffffffffffffffffffffffffffffffffff1603610c04576040517f08c379a0000000000000000000000000000000000000000000000000000000008152600401610bfb906126f5565b60405180910390fd5b610c0d8461152f565b610c4c576040517f08c379a0000000000000000000000000000000000000000000000000000000008152600401610c4390612787565b60405180910390fd5b6000806002600089815260200190815260200160002060050154149050600081610c8c576002600089815260200190815260200160002060050154610c8e565b425b90507f756e695f763200000000000000000000000000000000000000000000000000008703610ccd57610cc0866103fc565b8095508196505050610d5e565b610cd68561152f565b610d15576040517f08c379a0000000000000000000000000000000000000000000000000000000008152600401610d0c90612819565b60405180910390fd5b610d1e8461152f565b610d5d576040517f08c379a0000000000000000000000000000000000000000000000000000000008152600401610d54906128ab565b60405180910390fd5b5b6040518060e001604052808981526020018881526020018773ffffffffffffffffffffffffffffffffffffffff1681526020018673ffffffffffffffffffffffffffffffffffffffff1681526020018573ffffffffffffffffffffffffffffffffffffffff168152602001828152602001841515815250600260008a8152602001908152602001600020600082015181600001556020820151816001015560408201518160020160006101000a81548173ffffffffffffffffffffffffffffffffffffffff021916908373ffffffffffffffffffffffffffffffffffffffff16021790555060608201518160030160006101000a81548173ffffffffffffffffffffffffffffffffffffffff021916908373ffffffffffffffffffffffffffffffffffffffff16021790555060808201518160040160006101000a81548173ffffffffffffffffffffffffffffffffffffffff021916908373ffffffffffffffffffffffffffffffffffffffff16021790555060a0820151816005015560c08201518160060160006101000a81548160ff0219169083151502179055509050508115610f2e5760038890806001815401808255809150506001900390600052602060002001600090919091909150555b5050505050505050565b60026020528060005260406000206000915090508060000154908060010154908060020160009054906101000a900473ffffffffffffffffffffffffffffffffffffffff16908060030160009054906101000a900473ffffffffffffffffffffffffffffffffffffffff16908060040160009054906101000a900473ffffffffffffffffffffffffffffffffffffffff16908060050154908060060160009054906101000a900460ff16905087565b60608282905067ffffffffffffffff811115611006576110056128cb565b5b60405190808252806020026020018201604052801561103957816020015b60608152602001906001900390816110245790505b50905060005b838390508110156110ec576110bb30858584818110611061576110606128fa565b5b90506020028101906110739190612938565b8080601f016020809104026020016040519081016040528093929190818152602001838380828437600081840152601f19601f82011690508083019250505050505050611542565b8282815181106110ce576110cd6128fa565b5b602002602001018190525080806110e49061299b565b91505061103f565b5092915050565b6110fb611198565b600073ffffffffffffffffffffffffffffffffffffffff168173ffffffffffffffffffffffffffffffffffffffff160361116d5760006040517f1e4fbdf70000000000000000000000000000000000000000000000000000000081526004016111649190611c3e565b60405180910390fd5b611176816113ad565b50565b611181611198565b611194823061118e611265565b8461126d565b5050565b6111a0611265565b73ffffffffffffffffffffffffffffffffffffffff166111be610b4f565b73ffffffffffffffffffffffffffffffffffffffff161461121d576111e1611265565b6040517f118cdaa70000000000000000000000000000000000000000000000000000000081526004016112149190611c3e565b60405180910390fd5b565b60026005540361125b576040517f3ee5aeb500000000000000000000000000000000000000000000000000000000815260040160405180910390fd5b6002600581905550565b600033905090565b73eeeeeeeeeeeeeeeeeeeeeeeeeeeeeeeeeeeeeeee73ffffffffffffffffffffffffffffffffffffffff168473ffffffffffffffffffffffffffffffffffffffff16036112c3576112be82826115c6565b6112d0565b6112cf848484846116c6565b5b50505050565b60608147101561131d57306040517fcd7860590000000000000000000000000000000000000000000000000000000081526004016113149190611c3e565b60405180910390fd5b6000808573ffffffffffffffffffffffffffffffffffffffff1684866040516113469190612a1f565b60006040518083038185875af1925050503d8060008114611383576040519150601f19603f3d011682016040523d82523d6000602084013e611388565b606091505b509150915061139886838361181e565b925050509392505050565b6001600581905550565b6000600460009054906101000a900473ffffffffffffffffffffffffffffffffffffffff16905081600460006101000a81548173ffffffffffffffffffffffffffffffffffffffff021916908373ffffffffffffffffffffffffffffffffffffffff1602179055508173ffffffffffffffffffffffffffffffffffffffff168173ffffffffffffffffffffffffffffffffffffffff167f8be0079c531659141344cd1fd0a4f28419497f9722a3daafe3b4186f6b6457e060405160405180910390a35050565b806000819055507fdc0410a296e1e33943a772020d333d5f99319d7fcad932a484c53889f7aaa2b1816040516114a99190611981565b60405180910390a150565b80600160006101000a81548173ffffffffffffffffffffffffffffffffffffffff021916908373ffffffffffffffffffffffffffffffffffffffff1602179055507f3d21e5a2b633291bd1ff5f9c654e402d063783c95759d2ea521b31fb30e4da41816040516115249190611c3e565b60405180910390a150565b600080823b905060008111915050919050565b60606000808473ffffffffffffffffffffffffffffffffffffffff168460405161156c9190612a1f565b600060405180830381855af49150503d80600081146115a7576040519150601f19603f3d011682016040523d82523d6000602084013e6115ac565b606091505b50915091506115bc85838361181e565b9250505092915050565b60008273ffffffffffffffffffffffffffffffffffffffff1682600067ffffffffffffffff8111156115fb576115fa6128cb565b5b6040519080825280601f01601f19166020018201604052801561162d5781602001600182028036833780820191505090505b5060405161163b9190612a1f565b60006040518083038185875af1925050503d8060008114611678576040519150601f19603f3d011682016040523d82523d6000602084013e61167d565b606091505b50509050806116c1576040517f08c379a00000000000000000000000000000000000000000000000000000000081526004016116b890612aa8565b60405180910390fd5b505050565b6000808573ffffffffffffffffffffffffffffffffffffffff166323b872dd60e01b8686866040516024016116fd93929190612ac8565b604051602081830303815290604052907bffffffffffffffffffffffffffffffffffffffffffffffffffffffff19166020820180517bffffffffffffffffffffffffffffffffffffffffffffffffffffffff83818316178352505050506040516117679190612a1f565b6000604051808303816000865af19150503d80600081146117a4576040519150601f19603f3d011682016040523d82523d6000602084013e6117a9565b606091505b50915091508180156117d757506000815114806117d65750808060200190518101906117d59190612571565b5b5b611816576040517f08c379a000000000000000000000000000000000000000000000000000000000815260040161180d90612b71565b60405180910390fd5b505050505050565b6060826118335761182e826118ad565b6118a5565b6000825114801561185b575060008473ffffffffffffffffffffffffffffffffffffffff163b145b1561189d57836040517f9996b3150000000000000000000000000000000000000000000000000000000081526004016118949190611c3e565b60405180910390fd5b8190506118a6565b5b9392505050565b6000815111156118c05780518082602001fd5b6040517f1425ea4200000000000000000000000000000000000000000000000000000000815260040160405180910390fd5b600080fd5b600080fd5b6000819050919050565b61190f816118fc565b811461191a57600080fd5b50565b60008135905061192c81611906565b92915050565b60008060408385031215611949576119486118f2565b5b60006119578582860161191d565b92505060206119688582860161191d565b9150509250929050565b61197b816118fc565b82525050565b60006020820190506119966000830184611972565b92915050565b6000602082840312156119b2576119b16118f2565b5b60006119c08482850161191d565b91505092915050565b6000819050919050565b6119dc816119c9565b82525050565b60006020820190506119f760008301846119d3565b92915050565b60008115159050919050565b611a12816119fd565b8114611a1d57600080fd5b50565b600081359050611a2f81611a09565b92915050565b600060208284031215611a4b57611a4a6118f2565b5b6000611a5984828501611a20565b91505092915050565b600073ffffffffffffffffffffffffffffffffffffffff82169050919050565b6000611a8d82611a62565b9050919050565b611a9d81611a82565b8114611aa857600080fd5b50565b600081359050611aba81611a94565b92915050565b600060208284031215611ad657611ad56118f2565b5b6000611ae484828501611aab565b91505092915050565b611af681611a82565b82525050565b6000604082019050611b116000830185611aed565b611b1e6020830184611aed565b9392505050565b611b2e816119c9565b8114611b3957600080fd5b50565b600081359050611b4b81611b25565b92915050565b600080fd5b600080fd5b600080fd5b60008083601f840112611b7657611b75611b51565b5b8235905067ffffffffffffffff811115611b9357611b92611b56565b5b602083019150836001820283011115611baf57611bae611b5b565b5b9250929050565b600080600080600060808688031215611bd257611bd16118f2565b5b6000611be088828901611b3c565b9550506020611bf18882890161191d565b9450506040611c0288828901611aab565b935050606086013567ffffffffffffffff811115611c2357611c226118f7565b5b611c2f88828901611b60565b92509250509295509295909350565b6000602082019050611c536000830184611aed565b92915050565b6000611c6482611a62565b9050919050565b611c7481611c59565b8114611c7f57600080fd5b50565b600081359050611c9181611c6b565b92915050565b60008060008060008060c08789031215611cb457611cb36118f2565b5b6000611cc289828a01611b3c565b9650506020611cd389828a01611b3c565b9550506040611ce489828a01611c82565b9450506060611cf589828a01611aab565b9350506080611d0689828a01611aab565b92505060a0611d1789828a01611a20565b9150509295509295509295565b600060208284031215611d3a57611d396118f2565b5b6000611d4884828501611b3c565b91505092915050565b611d5a81611c59565b82525050565b611d69816119fd565b82525050565b600060e082019050611d84600083018a6119d3565b611d9160208301896119d3565b611d9e6040830188611d51565b611dab6060830187611aed565b611db86080830186611aed565b611dc560a0830185611972565b611dd260c0830184611d60565b98975050505050505050565b60008083601f840112611df457611df3611b51565b5b8235905067ffffffffffffffff811115611e1157611e10611b56565b5b602083019150836020820283011115611e2d57611e2c611b5b565b5b9250929050565b60008060208385031215611e4b57611e4a6118f2565b5b600083013567ffffffffffffffff811115611e6957611e686118f7565b5b611e7585828601611dde565b92509250509250929050565b600081519050919050565b600082825260208201905092915050565b6000819050602082019050919050565b600081519050919050565b600082825260208201905092915050565b60005b83811015611ee7578082015181840152602081019050611ecc565b60008484015250505050565b6000601f19601f8301169050919050565b6000611f0f82611ead565b611f198185611eb8565b9350611f29818560208601611ec9565b611f3281611ef3565b840191505092915050565b6000611f498383611f04565b905092915050565b6000602082019050919050565b6000611f6982611e81565b611f738185611e8c565b935083602082028501611f8585611e9d565b8060005b85811015611fc15784840389528151611fa28582611f3d565b9450611fad83611f51565b925060208a01995050600181019050611f89565b50829750879550505050505092915050565b60006020820190508181036000830152611fed8184611f5e565b905092915050565b6000806040838503121561200c5761200b6118f2565b5b600061201a85828601611aab565b925050602061202b8582860161191d565b9150509250929050565b7f4e487b7100000000000000000000000000000000000000000000000000000000600052601160045260246000fd5b600061206f826118fc565b915061207a836118fc565b9250828202612088816118fc565b9150828204841483151761209f5761209e612035565b5b5092915050565b7f4e487b7100000000000000000000000000000000000000000000000000000000600052601260045260246000fd5b60006120e0826118fc565b91506120eb836118fc565b9250826120fb576120fa6120a6565b5b828204905092915050565b60008151905061211581611a94565b92915050565b600060208284031215612131576121306118f2565b5b600061213f84828501612106565b91505092915050565b600081519050919050565b600082825260208201905092915050565b600061216f82612148565b6121798185612153565b9350612189818560208601611ec9565b61219281611ef3565b840191505092915050565b600060208201905081810360008301526121b78184612164565b905092915050565b7f426f7446692353776170456e67696e652376616c6964617465526f757465723a60008201527f20554e4b4e4f574e5f524f555445525f49440000000000000000000000000000602082015250565b600061221b603283612153565b9150612226826121bf565b604082019050919050565b6000602082019050818103600083015261224a8161220e565b9050919050565b7f426f7446692353776170456e67696e652376616c6964617465526f757465723a60008201527f20524f555445525f4e4f545f454e41424c454400000000000000000000000000602082015250565b60006122ad603383612153565b91506122b882612251565b604082019050919050565b600060208201905081810360008301526122dc816122a0565b9050919050565b7f426f74466923737761704e6f745061757365643a20535741505f504155534544600082015250565b6000612319602083612153565b9150612324826122e3565b602082019050919050565b600060208201905081810360008301526123488161230c565b9050919050565b7f426f74466923537761703a20554e535550504f525445445f4445580000000000600082015250565b6000612385601b83612153565b91506123908261234f565b602082019050919050565b600060208201905081810360008301526123b481612378565b9050919050565b7f426f74466923537761703a20444154415f4152475f5245515549524544000000600082015250565b60006123f1601d83612153565b91506123fc826123bb565b602082019050919050565b60006020820190508181036000830152612420816123e4565b9050919050565b7f426f74466923537761703a205a45524f5f544f4b454e415f4144445200000000600082015250565b600061245d601c83612153565b915061246882612427565b602082019050919050565b6000602082019050818103600083015261248c81612450565b9050919050565b7f426f74466923537761703a20494e53554646494349454e545f42414c414e4345600082015250565b60006124c9602083612153565b91506124d482612493565b602082019050919050565b600060208201905081810360008301526124f8816124bc565b9050919050565b600061250a826118fc565b9150612515836118fc565b925082820390508181111561252d5761252c612035565b5b92915050565b60006040820190506125486000830185611aed565b6125556020830184611972565b9392505050565b60008151905061256b81611a09565b92915050565b600060208284031215612587576125866118f2565b5b60006125958482850161255c565b91505092915050565b7f426f74466923537761703a20544f4b454e415f415050524f56414c5f4641494c60008201527f4544000000000000000000000000000000000000000000000000000000000000602082015250565b60006125fa602283612153565b91506126058261259e565b604082019050919050565b60006020820190508181036000830152612629816125ed565b9050919050565b600060a08201905061264560008301886119d3565b6126526020830187611972565b61265f6040830186611aed565b61266c6060830185611972565b6126796080830184611aed565b9695505050505050565b7f426f7446692353776170456e67696e6523616464526f757465723a205a45524f60008201527f5f524f555445525f414444524553530000000000000000000000000000000000602082015250565b60006126df602f83612153565b91506126ea82612683565b604082019050919050565b6000602082019050818103600083015261270e816126d2565b9050919050565b7f426f7446692353776170456e67696e6523616464526f757465723a20524f555460008201527f455f4e4f545f415f434f4e545241435400000000000000000000000000000000602082015250565b6000612771603083612153565b915061277c82612715565b604082019050919050565b600060208201905081810360008301526127a081612764565b9050919050565b7f426f7446692353776170456e67696e6523616464526f757465723a204641435460008201527f4f52595f4e4f545f415f434f4e54524143540000000000000000000000000000602082015250565b6000612803603283612153565b915061280e826127a7565b604082019050919050565b60006020820190508181036000830152612832816127f6565b9050919050565b7f426f7446692353776170456e67696e6523616464526f757465723a205745544860008201527f5f4e4f545f415f434f4e54524143540000000000000000000000000000000000602082015250565b6000612895602f83612153565b91506128a082612839565b604082019050919050565b600060208201905081810360008301526128c481612888565b9050919050565b7f4e487b7100000000000000000000000000000000000000000000000000000000600052604160045260246000fd5b7f4e487b7100000000000000000000000000000000000000000000000000000000600052603260045260246000fd5b600080fd5b600080fd5b600080fd5b6000808335600160200384360303811261295557612954612929565b5b80840192508235915067ffffffffffffffff8211156129775761297661292e565b5b60208301925060018202360383131561299357612992612933565b5b509250929050565b60006129a6826118fc565b91507fffffffffffffffffffffffffffffffffffffffffffffffffffffffffffffffff82036129d8576129d7612035565b5b600182019050919050565b600081905092915050565b60006129f982611ead565b612a0381856129e3565b9350612a13818560208601611ec9565b80840191505092915050565b6000612a2b82846129ee565b915081905092915050565b7f426f744669235472616e7366657248656c7065723a204554485f5452414e534660008201527f45525f4641494c45440000000000000000000000000000000000000000000000602082015250565b6000612a92602983612153565b9150612a9d82612a36565b604082019050919050565b60006020820190508181036000830152612ac181612a85565b9050919050565b6000606082019050612add6000830186611aed565b612aea6020830185611aed565b612af76040830184611972565b949350505050565b7f426f744669235472616e7366657248656c7065723a20544f4b454e5f5452414e60008201527f534645525f4641494c4544000000000000000000000000000000000000000000602082015250565b6000612b5b602b83612153565b9150612b6682612aff565b604082019050919050565b60006020820190508181036000830152612b8a81612b4e565b905091905056fe426f7446692353776170456e67696e6523676574556e695632526f75746572496e666f3a20496e76616c696420556e69737761702056322042617365642044657820526f757465722041646472657373a264697066735822122058ce704218c2a8730daa1667d1b6eb65f305d7f68ec98c0d0cc2ec36bc78280864736f6c63430008140033",
  "devdoc": {
    "errors": {
      "AddressEmptyCode(address)": [
        {
          "details": "There's no code at `target` (it is not a contract)."
        }
      ],
      "AddressInsufficientBalance(address)": [
        {
          "details": "The ETH balance of the account is not enough to perform the operation."
        }
      ],
      "FailedInnerCall()": [
        {
          "details": "A call to an address target failed. The target may have reverted."
        }
      ],
      "OwnableInvalidOwner(address)": [
        {
          "details": "The owner is not a valid owner account. (eg. `address(0)`)"
        }
      ],
      "OwnableUnauthorizedAccount(address)": [
        {
          "details": "The caller account is not authorized to perform an operation."
        }
      ],
      "ReentrancyGuardReentrantCall()": [
        {
          "details": "Unauthorized reentrant call."
        }
      ]
    },
    "kind": "dev",
    "methods": {
      "calPercentage(uint256,uint256)": {
        "details": "convert percentage in basis point of a value ",
        "params": {
          "amount": "the amount to be calculated on",
          "bps": "percentage value in basis point"
        }
      },
      "getUniV2RouterInfo(address)": {
        "details": "fecth uniswap v2 router info",
        "params": {
          "uniV2Router": "the router address"
        },
        "returns": {
          "factory": "the factory contract address",
          "weth": "the wrapped ether address"
        }
      },
      "multicall(bytes[])": {
        "custom:oz-upgrades-unsafe-allow-reachable": "delegatecall",
        "details": "Receives and executes a batch of function calls on this contract."
      },
      "owner()": {
        "details": "Returns the address of the current owner."
      },
      "pauseSwap(bool)": {
        "details": "pause the swap operation for the contract",
        "params": {
          "opt": "true or false "
        }
      },
      "renounceOwnership()": {
        "details": "Leaves the contract without owner. It will not be possible to call `onlyOwner` functions. Can only be called by the current owner. NOTE: Renouncing ownership will leave the contract without an owner, thereby disabling any functionality that is only available to the owner."
      },
      "setFeeWallet(address)": {
        "details": "set the address for taking the protocol fees",
        "params": {
          "addr": "the fee in percentage basis point"
        }
      },
      "setProtocolFee(uint256)": {
        "details": "protocol fee in basis point",
        "params": {
          "_feeBps": "the fee in percentage basis point"
        }
      },
      "swap(bytes32,uint256,address,bytes)": {
        "details": "perform a swap",
        "params": {
          "amount": "the total amount including the protocol fee for the swap",
          "payload": "the encoded swap data to foward to the router",
          "routerId": "the identifier of the router to use",
          "tokenA": "the token to swap into another token (tokenB)"
        }
      },
      "transferOwnership(address)": {
        "details": "Transfers ownership of the contract to a new account (`newOwner`). Can only be called by the current owner."
      },
      "withdraw(address,uint256)": {
        "details": "withdraw any stucked tokens in the contract",
        "params": {
          "amount": "the amount to move out",
          "token": "the token address to withdraw"
        }
      }
    },
    "version": 1
  },
  "userdoc": {
    "kind": "user",
    "methods": {},
    "version": 1
  },
  "storageLayout": {
    "storage": [
      {
        "astId": 752,
        "contract": "contracts/Factory.sol:Factory",
        "label": "PROTOCOL_FEE",
        "offset": 0,
        "slot": "0",
        "type": "t_uint256"
      },
      {
        "astId": 754,
        "contract": "contracts/Factory.sol:Factory",
        "label": "FEE_WALLET",
        "offset": 0,
        "slot": "1",
        "type": "t_address"
      },
      {
        "astId": 774,
        "contract": "contracts/Factory.sol:Factory",
        "label": "routers",
        "offset": 0,
        "slot": "2",
        "type": "t_mapping(t_bytes32,t_struct(RouterParams)792_storage)"
      },
      {
        "astId": 777,
        "contract": "contracts/Factory.sol:Factory",
        "label": "routersIds",
        "offset": 0,
        "slot": "3",
        "type": "t_array(t_bytes32)dyn_storage"
      },
      {
        "astId": 8,
        "contract": "contracts/Factory.sol:Factory",
        "label": "_owner",
        "offset": 0,
        "slot": "4",
        "type": "t_address"
      },
      {
        "astId": 571,
        "contract": "contracts/Factory.sol:Factory",
        "label": "_status",
        "offset": 0,
        "slot": "5",
        "type": "t_uint256"
      },
      {
        "astId": 3044,
        "contract": "contracts/Factory.sol:Factory",
        "label": "swapPaused",
        "offset": 0,
        "slot": "6",
        "type": "t_bool"
      }
    ],
    "types": {
      "t_address": {
        "encoding": "inplace",
        "label": "address",
        "numberOfBytes": "20"
      },
      "t_address_payable": {
        "encoding": "inplace",
        "label": "address payable",
        "numberOfBytes": "20"
      },
      "t_array(t_bytes32)dyn_storage": {
        "base": "t_bytes32",
        "encoding": "dynamic_array",
        "label": "bytes32[]",
        "numberOfBytes": "32"
      },
      "t_bool": {
        "encoding": "inplace",
        "label": "bool",
        "numberOfBytes": "1"
      },
      "t_bytes32": {
        "encoding": "inplace",
        "label": "bytes32",
        "numberOfBytes": "32"
      },
      "t_mapping(t_bytes32,t_struct(RouterParams)792_storage)": {
        "encoding": "mapping",
        "key": "t_bytes32",
        "label": "mapping(bytes32 => struct Defs.RouterParams)",
        "numberOfBytes": "32",
        "value": "t_struct(RouterParams)792_storage"
      },
      "t_struct(RouterParams)792_storage": {
        "encoding": "inplace",
        "label": "struct Defs.RouterParams",
        "members": [
          {
            "astId": 779,
            "contract": "contracts/Factory.sol:Factory",
            "label": "id",
            "offset": 0,
            "slot": "0",
            "type": "t_bytes32"
          },
          {
            "astId": 781,
            "contract": "contracts/Factory.sol:Factory",
            "label": "adapter",
            "offset": 0,
            "slot": "1",
            "type": "t_bytes32"
          },
          {
            "astId": 783,
            "contract": "contracts/Factory.sol:Factory",
            "label": "route",
            "offset": 0,
            "slot": "2",
            "type": "t_address_payable"
          },
          {
            "astId": 785,
            "contract": "contracts/Factory.sol:Factory",
            "label": "factory",
            "offset": 0,
            "slot": "3",
            "type": "t_address"
          },
          {
            "astId": 787,
            "contract": "contracts/Factory.sol:Factory",
            "label": "weth",
            "offset": 0,
            "slot": "4",
            "type": "t_address"
          },
          {
            "astId": 789,
            "contract": "contracts/Factory.sol:Factory",
            "label": "createdAt",
            "offset": 0,
            "slot": "5",
            "type": "t_uint256"
          },
          {
            "astId": 791,
            "contract": "contracts/Factory.sol:Factory",
            "label": "enabled",
            "offset": 0,
            "slot": "6",
            "type": "t_bool"
          }
        ],
        "numberOfBytes": "224"
      },
      "t_uint256": {
        "encoding": "inplace",
        "label": "uint256",
        "numberOfBytes": "32"
      }
    }
  }
}