{
  "address": "0xEB4076A714c6785D2C420EbC70203CFeCf87cd4e",
  "abi": [
    {
      "inputs": [
        {
          "internalType": "uint256",
          "name": "protocolFee",
          "type": "uint256"
        },
        {
          "internalType": "address",
          "name": "feeWallet",
          "type": "address"
        }
      ],
      "stateMutability": "nonpayable",
      "type": "constructor"
    },
    {
      "inputs": [
        {
          "internalType": "address",
          "name": "target",
          "type": "address"
        }
      ],
      "name": "AddressEmptyCode",
      "type": "error"
    },
    {
      "inputs": [
        {
          "internalType": "address",
          "name": "account",
          "type": "address"
        }
      ],
      "name": "AddressInsufficientBalance",
      "type": "error"
    },
    {
      "inputs": [],
      "name": "FailedInnerCall",
      "type": "error"
    },
    {
      "inputs": [
        {
          "internalType": "address",
          "name": "owner",
          "type": "address"
        }
      ],
      "name": "OwnableInvalidOwner",
      "type": "error"
    },
    {
      "inputs": [
        {
          "internalType": "address",
          "name": "account",
          "type": "address"
        }
      ],
      "name": "OwnableUnauthorizedAccount",
      "type": "error"
    },
    {
      "inputs": [],
      "name": "ReentrancyGuardReentrantCall",
      "type": "error"
    },
    {
      "anonymous": false,
      "inputs": [
        {
          "indexed": true,
          "internalType": "address",
          "name": "previousOwner",
          "type": "address"
        },
        {
          "indexed": true,
          "internalType": "address",
          "name": "newOwner",
          "type": "address"
        }
      ],
      "name": "OwnershipTransferred",
      "type": "event"
    },
    {
      "anonymous": false,
      "inputs": [
        {
          "indexed": false,
          "internalType": "address",
          "name": "addr",
          "type": "address"
        }
      ],
      "name": "SetFeeWallet",
      "type": "event"
    },
    {
      "anonymous": false,
      "inputs": [
        {
          "indexed": false,
          "internalType": "uint256",
          "name": "",
          "type": "uint256"
        }
      ],
      "name": "SetProtocolFee",
      "type": "event"
    },
    {
      "anonymous": false,
      "inputs": [
        {
          "indexed": false,
          "internalType": "bytes32",
          "name": "routerId",
          "type": "bytes32"
        },
        {
          "indexed": false,
          "internalType": "uint256",
          "name": "amount",
          "type": "uint256"
        },
        {
          "indexed": false,
          "internalType": "address",
          "name": "tokenA",
          "type": "address"
        },
        {
          "indexed": false,
          "internalType": "uint256",
          "name": "feeBps",
          "type": "uint256"
        },
        {
          "indexed": false,
          "internalType": "address",
          "name": "account",
          "type": "address"
        }
      ],
      "name": "Swap",
      "type": "event"
    },
    {
      "stateMutability": "payable",
      "type": "fallback"
    },
    {
      "inputs": [
        {
          "internalType": "bytes32",
          "name": "id",
          "type": "bytes32"
        },
        {
          "internalType": "bytes32",
          "name": "group",
          "type": "bytes32"
        },
        {
          "internalType": "address payable",
          "name": "router",
          "type": "address"
        },
        {
          "internalType": "address",
          "name": "factory",
          "type": "address"
        },
        {
          "internalType": "address",
          "name": "weth",
          "type": "address"
        },
        {
          "internalType": "bool",
          "name": "enabled",
          "type": "bool"
        }
      ],
      "name": "addRoute",
      "outputs": [],
      "stateMutability": "nonpayable",
      "type": "function"
    },
    {
      "inputs": [
        {
          "internalType": "uint256",
          "name": "amount",
          "type": "uint256"
        },
        {
          "internalType": "uint256",
          "name": "bps",
          "type": "uint256"
        }
      ],
      "name": "calPercentage",
      "outputs": [
        {
          "internalType": "uint256",
          "name": "",
          "type": "uint256"
        }
      ],
      "stateMutability": "pure",
      "type": "function"
    },
    {
      "inputs": [
        {
          "internalType": "bytes32",
          "name": "id",
          "type": "bytes32"
        },
        {
          "internalType": "bool",
          "name": "opt",
          "type": "bool"
        }
      ],
      "name": "enableRoute",
      "outputs": [],
      "stateMutability": "nonpayable",
      "type": "function"
    },
    {
      "inputs": [],
      "name": "getAllRoutes",
      "outputs": [
        {
          "components": [
            {
              "internalType": "bytes32",
              "name": "id",
              "type": "bytes32"
            },
            {
              "internalType": "bytes32",
              "name": "group",
              "type": "bytes32"
            },
            {
              "internalType": "address payable",
              "name": "router",
              "type": "address"
            },
            {
              "internalType": "address",
              "name": "factory",
              "type": "address"
            },
            {
              "internalType": "address",
              "name": "weth",
              "type": "address"
            },
            {
              "internalType": "uint256",
              "name": "createdAt",
              "type": "uint256"
            },
            {
              "internalType": "bool",
              "name": "enabled",
              "type": "bool"
            }
          ],
          "internalType": "struct Defs.RouteParams[]",
          "name": "rp",
          "type": "tuple[]"
        }
      ],
      "stateMutability": "view",
      "type": "function"
    },
    {
      "inputs": [
        {
          "internalType": "bytes[]",
          "name": "data",
          "type": "bytes[]"
        }
      ],
      "name": "multicall",
      "outputs": [
        {
          "internalType": "bytes[]",
          "name": "results",
          "type": "bytes[]"
        }
      ],
      "stateMutability": "nonpayable",
      "type": "function"
    },
    {
      "inputs": [],
      "name": "owner",
      "outputs": [
        {
          "internalType": "address",
          "name": "",
          "type": "address"
        }
      ],
      "stateMutability": "view",
      "type": "function"
    },
    {
      "inputs": [
        {
          "internalType": "bool",
          "name": "opt",
          "type": "bool"
        }
      ],
      "name": "pauseSwap",
      "outputs": [],
      "stateMutability": "nonpayable",
      "type": "function"
    },
    {
      "inputs": [],
      "name": "renounceOwnership",
      "outputs": [],
      "stateMutability": "nonpayable",
      "type": "function"
    },
    {
      "inputs": [
        {
          "internalType": "bytes32",
          "name": "",
          "type": "bytes32"
        }
      ],
      "name": "routes",
      "outputs": [
        {
          "internalType": "bytes32",
          "name": "id",
          "type": "bytes32"
        },
        {
          "internalType": "bytes32",
          "name": "group",
          "type": "bytes32"
        },
        {
          "internalType": "address payable",
          "name": "router",
          "type": "address"
        },
        {
          "internalType": "address",
          "name": "factory",
          "type": "address"
        },
        {
          "internalType": "address",
          "name": "weth",
          "type": "address"
        },
        {
          "internalType": "uint256",
          "name": "createdAt",
          "type": "uint256"
        },
        {
          "internalType": "bool",
          "name": "enabled",
          "type": "bool"
        }
      ],
      "stateMutability": "view",
      "type": "function"
    },
    {
      "inputs": [
        {
          "internalType": "uint256",
          "name": "",
          "type": "uint256"
        }
      ],
      "name": "routesIds",
      "outputs": [
        {
          "internalType": "bytes32",
          "name": "",
          "type": "bytes32"
        }
      ],
      "stateMutability": "view",
      "type": "function"
    },
    {
      "inputs": [
        {
          "internalType": "address",
          "name": "addr",
          "type": "address"
        }
      ],
      "name": "setFeeWallet",
      "outputs": [],
      "stateMutability": "nonpayable",
      "type": "function"
    },
    {
      "inputs": [
        {
          "internalType": "uint256",
          "name": "_feeBps",
          "type": "uint256"
        }
      ],
      "name": "setProtocolFee",
      "outputs": [],
      "stateMutability": "nonpayable",
      "type": "function"
    },
    {
      "inputs": [
        {
          "internalType": "bytes32",
          "name": "routeId",
          "type": "bytes32"
        },
        {
          "internalType": "uint256",
          "name": "amount",
          "type": "uint256"
        },
        {
          "internalType": "address",
          "name": "tokenA",
          "type": "address"
        },
        {
          "internalType": "bytes",
          "name": "payload",
          "type": "bytes"
        }
      ],
      "name": "swap",
      "outputs": [],
      "stateMutability": "payable",
      "type": "function"
    },
    {
      "inputs": [
        {
          "internalType": "address",
          "name": "token",
          "type": "address"
        },
        {
          "internalType": "uint256",
          "name": "amount",
          "type": "uint256"
        }
      ],
      "name": "sweep",
      "outputs": [],
      "stateMutability": "nonpayable",
      "type": "function"
    },
    {
      "inputs": [
        {
          "internalType": "address",
          "name": "newOwner",
          "type": "address"
        }
      ],
      "name": "transferOwnership",
      "outputs": [],
      "stateMutability": "nonpayable",
      "type": "function"
    },
    {
      "stateMutability": "payable",
      "type": "receive"
    }
  ],
  "transactionHash": "0xec1dae3ab823112411ca9b48a335a649652e01f7a40ecd0077304fdad2e5e675",
  "args": [
    100,
    "0x92c9E17a2f02b2119350F3E90918bEd3c6e24F3c"
  ],
  "numDeployments": 1,
  "solcInputHash": "1e74f695bc6559485430827c78495baf",
  "bytecode": "0x60806040523480156200001157600080fd5b50604051620032e0380380620032e0833981810160405281019062000037919062000333565b620000476200010060201b60201c565b600073ffffffffffffffffffffffffffffffffffffffff168173ffffffffffffffffffffffffffffffffffffffff1603620000bc5760006040517f1e4fbdf7000000000000000000000000000000000000000000000000000000008152600401620000b391906200038b565b60405180910390fd5b620000cd816200010860201b60201c565b506001600581905550620000e782620001ce60201b60201c565b620000f8816200021160201b60201c565b5050620003d6565b600033905090565b6000600460009054906101000a900473ffffffffffffffffffffffffffffffffffffffff16905081600460006101000a81548173ffffffffffffffffffffffffffffffffffffffff021916908373ffffffffffffffffffffffffffffffffffffffff1602179055508173ffffffffffffffffffffffffffffffffffffffff168173ffffffffffffffffffffffffffffffffffffffff167f8be0079c531659141344cd1fd0a4f28419497f9722a3daafe3b4186f6b6457e060405160405180910390a35050565b806000819055507fdc0410a296e1e33943a772020d333d5f99319d7fcad932a484c53889f7aaa2b181604051620002069190620003b9565b60405180910390a150565b80600160006101000a81548173ffffffffffffffffffffffffffffffffffffffff021916908373ffffffffffffffffffffffffffffffffffffffff1602179055507f3d21e5a2b633291bd1ff5f9c654e402d063783c95759d2ea521b31fb30e4da41816040516200028391906200038b565b60405180910390a150565b600080fd5b6000819050919050565b620002a88162000293565b8114620002b457600080fd5b50565b600081519050620002c8816200029d565b92915050565b600073ffffffffffffffffffffffffffffffffffffffff82169050919050565b6000620002fb82620002ce565b9050919050565b6200030d81620002ee565b81146200031957600080fd5b50565b6000815190506200032d8162000302565b92915050565b600080604083850312156200034d576200034c6200028e565b5b60006200035d85828601620002b7565b925050602062000370858286016200031c565b9150509250929050565b6200038581620002ee565b82525050565b6000602082019050620003a260008301846200037a565b92915050565b620003b38162000293565b82525050565b6000602082019050620003d06000830184620003a8565b92915050565b612efa80620003e66000396000f3fe6080604052600436106100ec5760003560e01c8063715018a61161008a57806390d49b9d1161005957806390d49b9d146102df5780639d783ea414610308578063ac9650d814610331578063f2fde38b1461036e576100f3565b8063715018a614610237578063787dce3d1461024e5780637c249d29146102775780638da5cb5b146102b4576100f3565b80631f696924116100c65780631f6969241461019e57806339691ed9146101c95780636ea056a9146101f25780636f8e61761461021b576100f3565b8063066e9481146100f55780630dd3ca83146101385780631b80b51014610161576100f3565b366100f357005b005b34801561010157600080fd5b5061011c60048036038101906101179190611aba565b610397565b60405161012f9796959493929190611b8c565b60405180910390f35b34801561014457600080fd5b5061015f600480360381019061015a9190611c27565b610446565b005b34801561016d57600080fd5b5061018860048036038101906101839190611c93565b6104d1565b6040516101959190611cd3565b60405180910390f35b3480156101aa57600080fd5b506101b361050e565b6040516101c09190611e76565b60405180910390f35b3480156101d557600080fd5b506101f060048036038101906101eb9190611e98565b610727565b005b3480156101fe57600080fd5b5061021960048036038101906102149190611ef1565b61074c565b005b61023560048036038101906102309190611f96565b61076b565b005b34801561024357600080fd5b5061024c610d10565b005b34801561025a57600080fd5b506102756004803603810190610270919061201e565b610d24565b005b34801561028357600080fd5b5061029e6004803603810190610299919061201e565b610d38565b6040516102ab919061204b565b60405180910390f35b3480156102c057600080fd5b506102c9610d5c565b6040516102d69190612066565b60405180910390f35b3480156102eb57600080fd5b5061030660048036038101906103019190612081565b610d86565b005b34801561031457600080fd5b5061032f600480360381019061032a91906120da565b610d9a565b005b34801561033d57600080fd5b50610358600480360381019061035391906121bd565b611107565b604051610365919061235c565b60405180910390f35b34801561037a57600080fd5b5061039560048036038101906103909190612081565b611213565b005b60026020528060005260406000206000915090508060000154908060010154908060020160009054906101000a900473ffffffffffffffffffffffffffffffffffffffff16908060030160009054906101000a900473ffffffffffffffffffffffffffffffffffffffff16908060040160009054906101000a900473ffffffffffffffffffffffffffffffffffffffff16908060050154908060060160009054906101000a900460ff16905087565b600060026000848152602001908152602001600020600501541161049f576040517f08c379a000000000000000000000000000000000000000000000000000000000815260040161049690612401565b60405180910390fd5b806002600084815260200190815260200160002060060160006101000a81548160ff0219169083151502179055505050565b600061271082846104e29190612450565b10156104ed57600080fd5b61271082846104fc9190612450565b61050691906124c1565b905092915050565b606060038054905067ffffffffffffffff81111561052f5761052e6124f2565b5b60405190808252806020026020018201604052801561056857816020015b6105556119f3565b81526020019060019003908161054d5790505b50905060005b60038054905081101561072357600260006003838154811061059357610592612521565b5b906000526020600020015481526020019081526020016000206040518060e001604052908160008201548152602001600182015481526020016002820160009054906101000a900473ffffffffffffffffffffffffffffffffffffffff1673ffffffffffffffffffffffffffffffffffffffff1673ffffffffffffffffffffffffffffffffffffffff1681526020016003820160009054906101000a900473ffffffffffffffffffffffffffffffffffffffff1673ffffffffffffffffffffffffffffffffffffffff1673ffffffffffffffffffffffffffffffffffffffff1681526020016004820160009054906101000a900473ffffffffffffffffffffffffffffffffffffffff1673ffffffffffffffffffffffffffffffffffffffff1673ffffffffffffffffffffffffffffffffffffffff168152602001600582015481526020016006820160009054906101000a900460ff16151515158152505082828151811061070557610704612521565b5b6020026020010181905250808061071b90612550565b91505061056e565b5090565b61072f611299565b80600660006101000a81548160ff02191690831515021790555050565b610754611299565b6107678230610761611320565b84611328565b5050565b8460006002600083815260200190815260200160002060050154116107c5576040517f08c379a00000000000000000000000000000000000000000000000000000000081526004016107bc9061260a565b60405180910390fd5b6002600082815260200190815260200160002060060160009054906101000a900460ff16610828576040517f08c379a000000000000000000000000000000000000000000000000000000000815260040161081f9061269c565b60405180910390fd5b610830611391565b600660009054906101000a900460ff1615610880576040517f08c379a000000000000000000000000000000000000000000000000000000000815260040161087790612708565b60405180910390fd5b60006002600088815260200190815260200160002060050154116108d9576040517f08c379a00000000000000000000000000000000000000000000000000000000081526004016108d090612774565b60405180910390fd5b6000838390501161091f576040517f08c379a0000000000000000000000000000000000000000000000000000000008152600401610916906127e0565b60405180910390fd5b600073ffffffffffffffffffffffffffffffffffffffff168473ffffffffffffffffffffffffffffffffffffffff160361098e576040517f08c379a00000000000000000000000000000000000000000000000000000000081526004016109859061284c565b60405180910390fd5b73eeeeeeeeeeeeeeeeeeeeeeeeeeeeeeeeeeeeeeee73ffffffffffffffffffffffffffffffffffffffff168473ffffffffffffffffffffffffffffffffffffffff1603610a1c57843414610a17576040517f08c379a0000000000000000000000000000000000000000000000000000000008152600401610a0e906128b8565b60405180910390fd5b610a30565b610a2f84610a28611320565b3088611328565b5b6000610a3e866000546104d1565b86610a4991906128d8565b9050610a8085610a57611320565b600160009054906101000a900473ffffffffffffffffffffffffffffffffffffffff1684611328565b60006002600089815260200190815260200160002060020160009054906101000a900473ffffffffffffffffffffffffffffffffffffffff16905060008288610ac991906128d8565b905073eeeeeeeeeeeeeeeeeeeeeeeeeeeeeeeeeeeeeeee73ffffffffffffffffffffffffffffffffffffffff168773ffffffffffffffffffffffffffffffffffffffff1603610b8757610b8186868080601f016020809104026020016040519081016040528093929190818152602001838380828437600081840152601f19601f82011690508083019250505050505050828473ffffffffffffffffffffffffffffffffffffffff166113d79092919063ffffffff16565b50610cb5565b8673ffffffffffffffffffffffffffffffffffffffff1663095ea7b383836040518363ffffffff1660e01b8152600401610bc292919061290c565b6020604051808303816000875af1158015610be1573d6000803e3d6000fd5b505050506040513d601f19601f82011682018060405250810190610c05919061294a565b610c44576040517f08c379a0000000000000000000000000000000000000000000000000000000008152600401610c3b906129e9565b60405180910390fd5b610cb386868080601f016020809104026020016040519081016040528093929190818152602001838380828437600081840152601f19601f82011690508083019250505050505050348473ffffffffffffffffffffffffffffffffffffffff166113d79092919063ffffffff16565b505b7fa1cf747ad001476b442e3c9c4a2b2180fbc1b3a710b44c90e2f2d23d2f2710c2898989600054610ce4611320565b604051610cf5959493929190612a09565b60405180910390a1505050610d086114a4565b505050505050565b610d18611299565b610d2260006114ae565b565b610d2c611299565b610d3581611574565b50565b60038181548110610d4857600080fd5b906000526020600020016000915090505481565b6000600460009054906101000a900473ffffffffffffffffffffffffffffffffffffffff16905090565b610d8e611299565b610d97816115b5565b50565b610da2611299565b600073ffffffffffffffffffffffffffffffffffffffff168473ffffffffffffffffffffffffffffffffffffffff1603610e11576040517f08c379a0000000000000000000000000000000000000000000000000000000008152600401610e0890612ace565b60405180910390fd5b610e1a84611630565b610e59576040517f08c379a0000000000000000000000000000000000000000000000000000000008152600401610e5090612b60565b60405180910390fd5b610e6283611630565b610ea1576040517f08c379a0000000000000000000000000000000000000000000000000000000008152600401610e9890612bf2565b60405180910390fd5b610eaa82611630565b610ee9576040517f08c379a0000000000000000000000000000000000000000000000000000000008152600401610ee090612c84565b60405180910390fd5b6000806002600089815260200190815260200160002060050154149050600081610f29576002600089815260200190815260200160002060050154610f2b565b425b90506040518060e001604052808981526020018881526020018773ffffffffffffffffffffffffffffffffffffffff1681526020018673ffffffffffffffffffffffffffffffffffffffff1681526020018573ffffffffffffffffffffffffffffffffffffffff168152602001828152602001841515815250600260008a8152602001908152602001600020600082015181600001556020820151816001015560408201518160020160006101000a81548173ffffffffffffffffffffffffffffffffffffffff021916908373ffffffffffffffffffffffffffffffffffffffff16021790555060608201518160030160006101000a81548173ffffffffffffffffffffffffffffffffffffffff021916908373ffffffffffffffffffffffffffffffffffffffff16021790555060808201518160040160006101000a81548173ffffffffffffffffffffffffffffffffffffffff021916908373ffffffffffffffffffffffffffffffffffffffff16021790555060a0820151816005015560c08201518160060160006101000a81548160ff02191690831515021790555090505081156110fd5760038890806001815401808255809150506001900390600052602060002001600090919091909150555b5050505050505050565b60608282905067ffffffffffffffff811115611126576111256124f2565b5b60405190808252806020026020018201604052801561115957816020015b60608152602001906001900390816111445790505b50905060005b8383905081101561120c576111db3085858481811061118157611180612521565b5b90506020028101906111939190612cb3565b8080601f016020809104026020016040519081016040528093929190818152602001838380828437600081840152601f19601f82011690508083019250505050505050611643565b8282815181106111ee576111ed612521565b5b6020026020010181905250808061120490612550565b91505061115f565b5092915050565b61121b611299565b600073ffffffffffffffffffffffffffffffffffffffff168173ffffffffffffffffffffffffffffffffffffffff160361128d5760006040517f1e4fbdf70000000000000000000000000000000000000000000000000000000081526004016112849190612066565b60405180910390fd5b611296816114ae565b50565b6112a1611320565b73ffffffffffffffffffffffffffffffffffffffff166112bf610d5c565b73ffffffffffffffffffffffffffffffffffffffff161461131e576112e2611320565b6040517f118cdaa70000000000000000000000000000000000000000000000000000000081526004016113159190612066565b60405180910390fd5b565b600033905090565b73eeeeeeeeeeeeeeeeeeeeeeeeeeeeeeeeeeeeeeee73ffffffffffffffffffffffffffffffffffffffff168473ffffffffffffffffffffffffffffffffffffffff160361137e5761137982826116c7565b61138b565b61138a848484846117c7565b5b50505050565b6002600554036113cd576040517f3ee5aeb500000000000000000000000000000000000000000000000000000000815260040160405180910390fd5b6002600581905550565b60608147101561141e57306040517fcd7860590000000000000000000000000000000000000000000000000000000081526004016114159190612066565b60405180910390fd5b6000808573ffffffffffffffffffffffffffffffffffffffff1684866040516114479190612d52565b60006040518083038185875af1925050503d8060008114611484576040519150601f19603f3d011682016040523d82523d6000602084013e611489565b606091505b509150915061149986838361191f565b925050509392505050565b6001600581905550565b6000600460009054906101000a900473ffffffffffffffffffffffffffffffffffffffff16905081600460006101000a81548173ffffffffffffffffffffffffffffffffffffffff021916908373ffffffffffffffffffffffffffffffffffffffff1602179055508173ffffffffffffffffffffffffffffffffffffffff168173ffffffffffffffffffffffffffffffffffffffff167f8be0079c531659141344cd1fd0a4f28419497f9722a3daafe3b4186f6b6457e060405160405180910390a35050565b806000819055507fdc0410a296e1e33943a772020d333d5f99319d7fcad932a484c53889f7aaa2b1816040516115aa9190611cd3565b60405180910390a150565b80600160006101000a81548173ffffffffffffffffffffffffffffffffffffffff021916908373ffffffffffffffffffffffffffffffffffffffff1602179055507f3d21e5a2b633291bd1ff5f9c654e402d063783c95759d2ea521b31fb30e4da41816040516116259190612066565b60405180910390a150565b600080823b905060008111915050919050565b60606000808473ffffffffffffffffffffffffffffffffffffffff168460405161166d9190612d52565b600060405180830381855af49150503d80600081146116a8576040519150601f19603f3d011682016040523d82523d6000602084013e6116ad565b606091505b50915091506116bd85838361191f565b9250505092915050565b60008273ffffffffffffffffffffffffffffffffffffffff1682600067ffffffffffffffff8111156116fc576116fb6124f2565b5b6040519080825280601f01601f19166020018201604052801561172e5781602001600182028036833780820191505090505b5060405161173c9190612d52565b60006040518083038185875af1925050503d8060008114611779576040519150601f19603f3d011682016040523d82523d6000602084013e61177e565b606091505b50509050806117c2576040517f08c379a00000000000000000000000000000000000000000000000000000000081526004016117b990612ddb565b60405180910390fd5b505050565b6000808573ffffffffffffffffffffffffffffffffffffffff166323b872dd60e01b8686866040516024016117fe93929190612dfb565b604051602081830303815290604052907bffffffffffffffffffffffffffffffffffffffffffffffffffffffff19166020820180517bffffffffffffffffffffffffffffffffffffffffffffffffffffffff83818316178352505050506040516118689190612d52565b6000604051808303816000865af19150503d80600081146118a5576040519150601f19603f3d011682016040523d82523d6000602084013e6118aa565b606091505b50915091508180156118d857506000815114806118d75750808060200190518101906118d6919061294a565b5b5b611917576040517f08c379a000000000000000000000000000000000000000000000000000000000815260040161190e90612ea4565b60405180910390fd5b505050505050565b6060826119345761192f826119ae565b6119a6565b6000825114801561195c575060008473ffffffffffffffffffffffffffffffffffffffff163b145b1561199e57836040517f9996b3150000000000000000000000000000000000000000000000000000000081526004016119959190612066565b60405180910390fd5b8190506119a7565b5b9392505050565b6000815111156119c15780518082602001fd5b6040517f1425ea4200000000000000000000000000000000000000000000000000000000815260040160405180910390fd5b6040518060e001604052806000801916815260200160008019168152602001600073ffffffffffffffffffffffffffffffffffffffff168152602001600073ffffffffffffffffffffffffffffffffffffffff168152602001600073ffffffffffffffffffffffffffffffffffffffff168152602001600081526020016000151581525090565b600080fd5b600080fd5b6000819050919050565b611a9781611a84565b8114611aa257600080fd5b50565b600081359050611ab481611a8e565b92915050565b600060208284031215611ad057611acf611a7a565b5b6000611ade84828501611aa5565b91505092915050565b611af081611a84565b82525050565b600073ffffffffffffffffffffffffffffffffffffffff82169050919050565b6000611b2182611af6565b9050919050565b611b3181611b16565b82525050565b6000611b4282611af6565b9050919050565b611b5281611b37565b82525050565b6000819050919050565b611b6b81611b58565b82525050565b60008115159050919050565b611b8681611b71565b82525050565b600060e082019050611ba1600083018a611ae7565b611bae6020830189611ae7565b611bbb6040830188611b28565b611bc86060830187611b49565b611bd56080830186611b49565b611be260a0830185611b62565b611bef60c0830184611b7d565b98975050505050505050565b611c0481611b71565b8114611c0f57600080fd5b50565b600081359050611c2181611bfb565b92915050565b60008060408385031215611c3e57611c3d611a7a565b5b6000611c4c85828601611aa5565b9250506020611c5d85828601611c12565b9150509250929050565b611c7081611b58565b8114611c7b57600080fd5b50565b600081359050611c8d81611c67565b92915050565b60008060408385031215611caa57611ca9611a7a565b5b6000611cb885828601611c7e565b9250506020611cc985828601611c7e565b9150509250929050565b6000602082019050611ce86000830184611b62565b92915050565b600081519050919050565b600082825260208201905092915050565b6000819050602082019050919050565b611d2381611a84565b82525050565b611d3281611b16565b82525050565b611d4181611b37565b82525050565b611d5081611b58565b82525050565b611d5f81611b71565b82525050565b60e082016000820151611d7b6000850182611d1a565b506020820151611d8e6020850182611d1a565b506040820151611da16040850182611d29565b506060820151611db46060850182611d38565b506080820151611dc76080850182611d38565b5060a0820151611dda60a0850182611d47565b5060c0820151611ded60c0850182611d56565b50505050565b6000611dff8383611d65565b60e08301905092915050565b6000602082019050919050565b6000611e2382611cee565b611e2d8185611cf9565b9350611e3883611d0a565b8060005b83811015611e69578151611e508882611df3565b9750611e5b83611e0b565b925050600181019050611e3c565b5085935050505092915050565b60006020820190508181036000830152611e908184611e18565b905092915050565b600060208284031215611eae57611ead611a7a565b5b6000611ebc84828501611c12565b91505092915050565b611ece81611b37565b8114611ed957600080fd5b50565b600081359050611eeb81611ec5565b92915050565b60008060408385031215611f0857611f07611a7a565b5b6000611f1685828601611edc565b9250506020611f2785828601611c7e565b9150509250929050565b600080fd5b600080fd5b600080fd5b60008083601f840112611f5657611f55611f31565b5b8235905067ffffffffffffffff811115611f7357611f72611f36565b5b602083019150836001820283011115611f8f57611f8e611f3b565b5b9250929050565b600080600080600060808688031215611fb257611fb1611a7a565b5b6000611fc088828901611aa5565b9550506020611fd188828901611c7e565b9450506040611fe288828901611edc565b935050606086013567ffffffffffffffff81111561200357612002611a7f565b5b61200f88828901611f40565b92509250509295509295909350565b60006020828403121561203457612033611a7a565b5b600061204284828501611c7e565b91505092915050565b60006020820190506120606000830184611ae7565b92915050565b600060208201905061207b6000830184611b49565b92915050565b60006020828403121561209757612096611a7a565b5b60006120a584828501611edc565b91505092915050565b6120b781611b16565b81146120c257600080fd5b50565b6000813590506120d4816120ae565b92915050565b60008060008060008060c087890312156120f7576120f6611a7a565b5b600061210589828a01611aa5565b965050602061211689828a01611aa5565b955050604061212789828a016120c5565b945050606061213889828a01611edc565b935050608061214989828a01611edc565b92505060a061215a89828a01611c12565b9150509295509295509295565b60008083601f84011261217d5761217c611f31565b5b8235905067ffffffffffffffff81111561219a57612199611f36565b5b6020830191508360208202830111156121b6576121b5611f3b565b5b9250929050565b600080602083850312156121d4576121d3611a7a565b5b600083013567ffffffffffffffff8111156121f2576121f1611a7f565b5b6121fe85828601612167565b92509250509250929050565b600081519050919050565b600082825260208201905092915050565b6000819050602082019050919050565b600081519050919050565b600082825260208201905092915050565b60005b83811015612270578082015181840152602081019050612255565b60008484015250505050565b6000601f19601f8301169050919050565b600061229882612236565b6122a28185612241565b93506122b2818560208601612252565b6122bb8161227c565b840191505092915050565b60006122d2838361228d565b905092915050565b6000602082019050919050565b60006122f28261220a565b6122fc8185612215565b93508360208202850161230e85612226565b8060005b8581101561234a578484038952815161232b85826122c6565b9450612336836122da565b925060208a01995050600181019050612312565b50829750879550505050505092915050565b6000602082019050818103600083015261237681846122e7565b905092915050565b600082825260208201905092915050565b7f426f7446693a53776170456e67696e6523656e61626c65526f757465723a204960008201527f4e56414c49445f524f5554450000000000000000000000000000000000000000602082015250565b60006123eb602c8361237e565b91506123f68261238f565b604082019050919050565b6000602082019050818103600083015261241a816123de565b9050919050565b7f4e487b7100000000000000000000000000000000000000000000000000000000600052601160045260246000fd5b600061245b82611b58565b915061246683611b58565b925082820261247481611b58565b9150828204841483151761248b5761248a612421565b5b5092915050565b7f4e487b7100000000000000000000000000000000000000000000000000000000600052601260045260246000fd5b60006124cc82611b58565b91506124d783611b58565b9250826124e7576124e6612492565b5b828204905092915050565b7f4e487b7100000000000000000000000000000000000000000000000000000000600052604160045260246000fd5b7f4e487b7100000000000000000000000000000000000000000000000000000000600052603260045260246000fd5b600061255b82611b58565b91507fffffffffffffffffffffffffffffffffffffffffffffffffffffffffffffffff820361258d5761258c612421565b5b600182019050919050565b7f426f7446692353776170456e67696e652376616c6964617465526f757465723a60008201527f20554e4b4e4f574e5f524f555445525f49440000000000000000000000000000602082015250565b60006125f460328361237e565b91506125ff82612598565b604082019050919050565b60006020820190508181036000830152612623816125e7565b9050919050565b7f426f7446692353776170456e67696e652376616c6964617465526f757465723a60008201527f20524f555445525f4e4f545f454e41424c454400000000000000000000000000602082015250565b600061268660338361237e565b91506126918261262a565b604082019050919050565b600060208201905081810360008301526126b581612679565b9050919050565b7f426f74466923737761704e6f745061757365643a20535741505f504155534544600082015250565b60006126f260208361237e565b91506126fd826126bc565b602082019050919050565b60006020820190508181036000830152612721816126e5565b9050919050565b7f426f74466923537761703a20554e535550504f525445445f4445580000000000600082015250565b600061275e601b8361237e565b915061276982612728565b602082019050919050565b6000602082019050818103600083015261278d81612751565b9050919050565b7f426f74466923537761703a20444154415f4152475f5245515549524544000000600082015250565b60006127ca601d8361237e565b91506127d582612794565b602082019050919050565b600060208201905081810360008301526127f9816127bd565b9050919050565b7f426f74466923537761703a205a45524f5f544f4b454e415f4144445200000000600082015250565b6000612836601c8361237e565b915061284182612800565b602082019050919050565b6000602082019050818103600083015261286581612829565b9050919050565b7f426f74466923537761703a20494e53554646494349454e545f42414c414e4345600082015250565b60006128a260208361237e565b91506128ad8261286c565b602082019050919050565b600060208201905081810360008301526128d181612895565b9050919050565b60006128e382611b58565b91506128ee83611b58565b925082820390508181111561290657612905612421565b5b92915050565b60006040820190506129216000830185611b49565b61292e6020830184611b62565b9392505050565b60008151905061294481611bfb565b92915050565b6000602082840312156129605761295f611a7a565b5b600061296e84828501612935565b91505092915050565b7f426f7446692353776170456e67696e653a20544f4b454e415f415050524f564160008201527f4c5f4641494c4544000000000000000000000000000000000000000000000000602082015250565b60006129d360288361237e565b91506129de82612977565b604082019050919050565b60006020820190508181036000830152612a02816129c6565b9050919050565b600060a082019050612a1e6000830188611ae7565b612a2b6020830187611b62565b612a386040830186611b49565b612a456060830185611b62565b612a526080830184611b49565b9695505050505050565b7f426f7446692353776170456e67696e6523616464526f757465723a205a45524f60008201527f5f524f555445525f414444524553530000000000000000000000000000000000602082015250565b6000612ab8602f8361237e565b9150612ac382612a5c565b604082019050919050565b60006020820190508181036000830152612ae781612aab565b9050919050565b7f426f7446692353776170456e67696e6523616464526f757465723a20524f555460008201527f45525f4e4f545f415f434f4e5452414354000000000000000000000000000000602082015250565b6000612b4a60318361237e565b9150612b5582612aee565b604082019050919050565b60006020820190508181036000830152612b7981612b3d565b9050919050565b7f426f7446692353776170456e67696e6523616464526f757465723a204641435460008201527f4f52595f4e4f545f415f434f4e54524143540000000000000000000000000000602082015250565b6000612bdc60328361237e565b9150612be782612b80565b604082019050919050565b60006020820190508181036000830152612c0b81612bcf565b9050919050565b7f426f7446692353776170456e67696e6523616464526f757465723a205745544860008201527f5f4e4f545f415f434f4e54524143540000000000000000000000000000000000602082015250565b6000612c6e602f8361237e565b9150612c7982612c12565b604082019050919050565b60006020820190508181036000830152612c9d81612c61565b9050919050565b600080fd5b600080fd5b600080fd5b60008083356001602003843603038112612cd057612ccf612ca4565b5b80840192508235915067ffffffffffffffff821115612cf257612cf1612ca9565b5b602083019250600182023603831315612d0e57612d0d612cae565b5b509250929050565b600081905092915050565b6000612d2c82612236565b612d368185612d16565b9350612d46818560208601612252565b80840191505092915050565b6000612d5e8284612d21565b915081905092915050565b7f426f744669235472616e7366657248656c7065723a204554485f5452414e534660008201527f45525f4641494c45440000000000000000000000000000000000000000000000602082015250565b6000612dc560298361237e565b9150612dd082612d69565b604082019050919050565b60006020820190508181036000830152612df481612db8565b9050919050565b6000606082019050612e106000830186611b49565b612e1d6020830185611b49565b612e2a6040830184611b62565b949350505050565b7f426f744669235472616e7366657248656c7065723a20544f4b454e5f5452414e60008201527f534645525f4641494c4544000000000000000000000000000000000000000000602082015250565b6000612e8e602b8361237e565b9150612e9982612e32565b604082019050919050565b60006020820190508181036000830152612ebd81612e81565b905091905056fea26469706673582212203d61fa43d72a78294258aa87efe3346ed93ee73ed2bc62b2d7e6ee76e5adaa9864736f6c63430008140033",
  "devdoc": {
    "errors": {
      "AddressEmptyCode(address)": [
        {
          "details": "There's no code at `target` (it is not a contract)."
        }
      ],
      "AddressInsufficientBalance(address)": [
        {
          "details": "The ETH balance of the account is not enough to perform the operation."
        }
      ],
      "FailedInnerCall()": [
        {
          "details": "A call to an address target failed. The target may have reverted."
        }
      ],
      "OwnableInvalidOwner(address)": [
        {
          "details": "The owner is not a valid owner account. (eg. `address(0)`)"
        }
      ],
      "OwnableUnauthorizedAccount(address)": [
        {
          "details": "The caller account is not authorized to perform an operation."
        }
      ],
      "ReentrancyGuardReentrantCall()": [
        {
          "details": "Unauthorized reentrant call."
        }
      ]
    },
    "kind": "dev",
    "methods": {
      "addRoute(bytes32,bytes32,address,address,address,bool)": {
        "details": "addRouter add a router params",
        "params": {
          "enabled": "is the router enabled or not",
          "factory": "the factory address",
          "group": "router group - uni_v2, uni_v3 ....",
          "id": "router id",
          "router": "the router address ",
          "weth": "wrapped ether or wrapped native token"
        }
      },
      "calPercentage(uint256,uint256)": {
        "details": "convert percentage in basis point of a value ",
        "params": {
          "amount": "the amount to be calculated on",
          "bps": "percentage value in basis point"
        }
      },
      "enableRoute(bytes32,bool)": {
        "details": "enable or disable a route",
        "params": {
          "id": "the router id",
          "opt": "true or false"
        }
      },
      "getAllRoutes()": {
        "details": "getAllRoutes get all the routers returns array "
      },
      "multicall(bytes[])": {
        "custom:oz-upgrades-unsafe-allow-reachable": "delegatecall",
        "details": "Receives and executes a batch of function calls on this contract."
      },
      "owner()": {
        "details": "Returns the address of the current owner."
      },
      "pauseSwap(bool)": {
        "details": "pause the swap operation for the contract",
        "params": {
          "opt": "true or false "
        }
      },
      "renounceOwnership()": {
        "details": "Leaves the contract without owner. It will not be possible to call `onlyOwner` functions. Can only be called by the current owner. NOTE: Renouncing ownership will leave the contract without an owner, thereby disabling any functionality that is only available to the owner."
      },
      "setFeeWallet(address)": {
        "details": "set the address for taking the protocol fees",
        "params": {
          "addr": "the fee in percentage basis point"
        }
      },
      "setProtocolFee(uint256)": {
        "details": "protocol fee in basis point",
        "params": {
          "_feeBps": "the fee in percentage basis point"
        }
      },
      "swap(bytes32,uint256,address,bytes)": {
        "details": "perform a swap",
        "params": {
          "amount": "the total amount including the protocol fee for the swap",
          "payload": "the encoded swap data to foward to the router",
          "routeId": "the identifier of the router to use",
          "tokenA": "the token to swap into another token (tokenB)"
        }
      },
      "sweep(address,uint256)": {
        "details": "withdraw any stucked tokens in the contract",
        "params": {
          "amount": "the amount to move out",
          "token": "the token address to withdraw"
        }
      },
      "transferOwnership(address)": {
        "details": "Transfers ownership of the contract to a new account (`newOwner`). Can only be called by the current owner."
      }
    },
    "version": 1
  },
  "userdoc": {
    "kind": "user",
    "methods": {},
    "version": 1
  },
  "storageLayout": {
    "storage": [
      {
        "astId": 752,
        "contract": "contracts/Factory.sol:Factory",
        "label": "PROTOCOL_FEE",
        "offset": 0,
        "slot": "0",
        "type": "t_uint256"
      },
      {
        "astId": 754,
        "contract": "contracts/Factory.sol:Factory",
        "label": "FEE_WALLET",
        "offset": 0,
        "slot": "1",
        "type": "t_address"
      },
      {
        "astId": 762,
        "contract": "contracts/Factory.sol:Factory",
        "label": "routes",
        "offset": 0,
        "slot": "2",
        "type": "t_mapping(t_bytes32,t_struct(RouteParams)780_storage)"
      },
      {
        "astId": 765,
        "contract": "contracts/Factory.sol:Factory",
        "label": "routesIds",
        "offset": 0,
        "slot": "3",
        "type": "t_array(t_bytes32)dyn_storage"
      },
      {
        "astId": 8,
        "contract": "contracts/Factory.sol:Factory",
        "label": "_owner",
        "offset": 0,
        "slot": "4",
        "type": "t_address"
      },
      {
        "astId": 571,
        "contract": "contracts/Factory.sol:Factory",
        "label": "_status",
        "offset": 0,
        "slot": "5",
        "type": "t_uint256"
      },
      {
        "astId": 3580,
        "contract": "contracts/Factory.sol:Factory",
        "label": "isPaused",
        "offset": 0,
        "slot": "6",
        "type": "t_bool"
      }
    ],
    "types": {
      "t_address": {
        "encoding": "inplace",
        "label": "address",
        "numberOfBytes": "20"
      },
      "t_address_payable": {
        "encoding": "inplace",
        "label": "address payable",
        "numberOfBytes": "20"
      },
      "t_array(t_bytes32)dyn_storage": {
        "base": "t_bytes32",
        "encoding": "dynamic_array",
        "label": "bytes32[]",
        "numberOfBytes": "32"
      },
      "t_bool": {
        "encoding": "inplace",
        "label": "bool",
        "numberOfBytes": "1"
      },
      "t_bytes32": {
        "encoding": "inplace",
        "label": "bytes32",
        "numberOfBytes": "32"
      },
      "t_mapping(t_bytes32,t_struct(RouteParams)780_storage)": {
        "encoding": "mapping",
        "key": "t_bytes32",
        "label": "mapping(bytes32 => struct Defs.RouteParams)",
        "numberOfBytes": "32",
        "value": "t_struct(RouteParams)780_storage"
      },
      "t_struct(RouteParams)780_storage": {
        "encoding": "inplace",
        "label": "struct Defs.RouteParams",
        "members": [
          {
            "astId": 767,
            "contract": "contracts/Factory.sol:Factory",
            "label": "id",
            "offset": 0,
            "slot": "0",
            "type": "t_bytes32"
          },
          {
            "astId": 769,
            "contract": "contracts/Factory.sol:Factory",
            "label": "group",
            "offset": 0,
            "slot": "1",
            "type": "t_bytes32"
          },
          {
            "astId": 771,
            "contract": "contracts/Factory.sol:Factory",
            "label": "router",
            "offset": 0,
            "slot": "2",
            "type": "t_address_payable"
          },
          {
            "astId": 773,
            "contract": "contracts/Factory.sol:Factory",
            "label": "factory",
            "offset": 0,
            "slot": "3",
            "type": "t_address"
          },
          {
            "astId": 775,
            "contract": "contracts/Factory.sol:Factory",
            "label": "weth",
            "offset": 0,
            "slot": "4",
            "type": "t_address"
          },
          {
            "astId": 777,
            "contract": "contracts/Factory.sol:Factory",
            "label": "createdAt",
            "offset": 0,
            "slot": "5",
            "type": "t_uint256"
          },
          {
            "astId": 779,
            "contract": "contracts/Factory.sol:Factory",
            "label": "enabled",
            "offset": 0,
            "slot": "6",
            "type": "t_bool"
          }
        ],
        "numberOfBytes": "224"
      },
      "t_uint256": {
        "encoding": "inplace",
        "label": "uint256",
        "numberOfBytes": "32"
      }
    }
  }
}