{
  "address": "0x3a00c496e64710dD2aD953c66b8211ec18d15D8a",
  "abi": [
    {
      "inputs": [
        {
          "internalType": "uint256",
          "name": "protocolFee",
          "type": "uint256"
        },
        {
          "internalType": "address",
          "name": "feeWallet",
          "type": "address"
        }
      ],
      "stateMutability": "nonpayable",
      "type": "constructor"
    },
    {
      "inputs": [
        {
          "internalType": "address",
          "name": "target",
          "type": "address"
        }
      ],
      "name": "AddressEmptyCode",
      "type": "error"
    },
    {
      "inputs": [
        {
          "internalType": "address",
          "name": "account",
          "type": "address"
        }
      ],
      "name": "AddressInsufficientBalance",
      "type": "error"
    },
    {
      "inputs": [],
      "name": "FailedInnerCall",
      "type": "error"
    },
    {
      "inputs": [
        {
          "internalType": "address",
          "name": "owner",
          "type": "address"
        }
      ],
      "name": "OwnableInvalidOwner",
      "type": "error"
    },
    {
      "inputs": [
        {
          "internalType": "address",
          "name": "account",
          "type": "address"
        }
      ],
      "name": "OwnableUnauthorizedAccount",
      "type": "error"
    },
    {
      "inputs": [],
      "name": "ReentrancyGuardReentrantCall",
      "type": "error"
    },
    {
      "anonymous": false,
      "inputs": [
        {
          "indexed": true,
          "internalType": "address",
          "name": "previousOwner",
          "type": "address"
        },
        {
          "indexed": true,
          "internalType": "address",
          "name": "newOwner",
          "type": "address"
        }
      ],
      "name": "OwnershipTransferred",
      "type": "event"
    },
    {
      "anonymous": false,
      "inputs": [
        {
          "indexed": false,
          "internalType": "address",
          "name": "addr",
          "type": "address"
        }
      ],
      "name": "SetFeeWallet",
      "type": "event"
    },
    {
      "anonymous": false,
      "inputs": [
        {
          "indexed": false,
          "internalType": "uint256",
          "name": "",
          "type": "uint256"
        }
      ],
      "name": "SetProtocolFee",
      "type": "event"
    },
    {
      "anonymous": false,
      "inputs": [
        {
          "indexed": false,
          "internalType": "bytes32",
          "name": "routerId",
          "type": "bytes32"
        },
        {
          "indexed": false,
          "internalType": "uint256",
          "name": "amount",
          "type": "uint256"
        },
        {
          "indexed": false,
          "internalType": "address",
          "name": "tokenA",
          "type": "address"
        },
        {
          "indexed": false,
          "internalType": "uint256",
          "name": "feeBps",
          "type": "uint256"
        },
        {
          "indexed": false,
          "internalType": "address",
          "name": "account",
          "type": "address"
        }
      ],
      "name": "Swap",
      "type": "event"
    },
    {
      "stateMutability": "payable",
      "type": "fallback"
    },
    {
      "inputs": [
        {
          "internalType": "bytes32",
          "name": "id",
          "type": "bytes32"
        },
        {
          "internalType": "bytes32",
          "name": "group",
          "type": "bytes32"
        },
        {
          "internalType": "address payable",
          "name": "router",
          "type": "address"
        },
        {
          "internalType": "address",
          "name": "factory",
          "type": "address"
        },
        {
          "internalType": "address",
          "name": "weth",
          "type": "address"
        },
        {
          "internalType": "address",
          "name": "quoter",
          "type": "address"
        },
        {
          "internalType": "bool",
          "name": "enabled",
          "type": "bool"
        }
      ],
      "name": "addRoute",
      "outputs": [],
      "stateMutability": "nonpayable",
      "type": "function"
    },
    {
      "inputs": [
        {
          "internalType": "uint256",
          "name": "amount",
          "type": "uint256"
        },
        {
          "internalType": "uint256",
          "name": "bps",
          "type": "uint256"
        }
      ],
      "name": "calPercentage",
      "outputs": [
        {
          "internalType": "uint256",
          "name": "",
          "type": "uint256"
        }
      ],
      "stateMutability": "pure",
      "type": "function"
    },
    {
      "inputs": [
        {
          "internalType": "bytes32",
          "name": "id",
          "type": "bytes32"
        },
        {
          "internalType": "bool",
          "name": "opt",
          "type": "bool"
        }
      ],
      "name": "enableRoute",
      "outputs": [],
      "stateMutability": "nonpayable",
      "type": "function"
    },
    {
      "inputs": [],
      "name": "getAllRoutes",
      "outputs": [
        {
          "components": [
            {
              "internalType": "bytes32",
              "name": "id",
              "type": "bytes32"
            },
            {
              "internalType": "bytes32",
              "name": "group",
              "type": "bytes32"
            },
            {
              "internalType": "address payable",
              "name": "router",
              "type": "address"
            },
            {
              "internalType": "address",
              "name": "factory",
              "type": "address"
            },
            {
              "internalType": "address",
              "name": "weth",
              "type": "address"
            },
            {
              "internalType": "address",
              "name": "quoter",
              "type": "address"
            },
            {
              "internalType": "uint256",
              "name": "createdAt",
              "type": "uint256"
            },
            {
              "internalType": "bool",
              "name": "enabled",
              "type": "bool"
            }
          ],
          "internalType": "struct Defs.RouteParams[]",
          "name": "rp",
          "type": "tuple[]"
        }
      ],
      "stateMutability": "view",
      "type": "function"
    },
    {
      "inputs": [
        {
          "internalType": "bytes32",
          "name": "routeId",
          "type": "bytes32"
        },
        {
          "internalType": "uint256",
          "name": "amount",
          "type": "uint256"
        },
        {
          "internalType": "address",
          "name": "tokenA",
          "type": "address"
        },
        {
          "internalType": "bytes",
          "name": "payload",
          "type": "bytes"
        }
      ],
      "name": "getSwapGasInfo",
      "outputs": [
        {
          "components": [
            {
              "internalType": "uint256",
              "name": "gasUsed",
              "type": "uint256"
            },
            {
              "internalType": "uint256",
              "name": "gasPrice",
              "type": "uint256"
            },
            {
              "internalType": "uint256",
              "name": "gasLimit",
              "type": "uint256"
            }
          ],
          "internalType": "struct Defs.SwapGasInfo",
          "name": "",
          "type": "tuple"
        }
      ],
      "stateMutability": "payable",
      "type": "function"
    },
    {
      "inputs": [
        {
          "internalType": "bytes32",
          "name": "routeId",
          "type": "bytes32"
        },
        {
          "internalType": "uint256",
          "name": "amount",
          "type": "uint256"
        },
        {
          "internalType": "address",
          "name": "tokenA",
          "type": "address"
        },
        {
          "internalType": "bytes[]",
          "name": "payloadArr",
          "type": "bytes[]"
        }
      ],
      "name": "getSwapGasInfoBatch",
      "outputs": [
        {
          "components": [
            {
              "internalType": "uint256",
              "name": "gasUsed",
              "type": "uint256"
            },
            {
              "internalType": "uint256",
              "name": "gasPrice",
              "type": "uint256"
            },
            {
              "internalType": "uint256",
              "name": "gasLimit",
              "type": "uint256"
            }
          ],
          "internalType": "struct Defs.SwapGasInfo[]",
          "name": "results",
          "type": "tuple[]"
        }
      ],
      "stateMutability": "payable",
      "type": "function"
    },
    {
      "inputs": [
        {
          "internalType": "bytes[]",
          "name": "data",
          "type": "bytes[]"
        }
      ],
      "name": "multicall",
      "outputs": [
        {
          "internalType": "bytes[]",
          "name": "results",
          "type": "bytes[]"
        }
      ],
      "stateMutability": "nonpayable",
      "type": "function"
    },
    {
      "inputs": [
        {
          "internalType": "bytes[]",
          "name": "data",
          "type": "bytes[]"
        }
      ],
      "name": "multicallWithValue",
      "outputs": [
        {
          "internalType": "bytes[]",
          "name": "results",
          "type": "bytes[]"
        }
      ],
      "stateMutability": "nonpayable",
      "type": "function"
    },
    {
      "inputs": [],
      "name": "owner",
      "outputs": [
        {
          "internalType": "address",
          "name": "",
          "type": "address"
        }
      ],
      "stateMutability": "view",
      "type": "function"
    },
    {
      "inputs": [
        {
          "internalType": "bool",
          "name": "opt",
          "type": "bool"
        }
      ],
      "name": "pauseSwap",
      "outputs": [],
      "stateMutability": "nonpayable",
      "type": "function"
    },
    {
      "inputs": [],
      "name": "renounceOwnership",
      "outputs": [],
      "stateMutability": "nonpayable",
      "type": "function"
    },
    {
      "inputs": [
        {
          "internalType": "bytes32",
          "name": "",
          "type": "bytes32"
        }
      ],
      "name": "routes",
      "outputs": [
        {
          "internalType": "bytes32",
          "name": "id",
          "type": "bytes32"
        },
        {
          "internalType": "bytes32",
          "name": "group",
          "type": "bytes32"
        },
        {
          "internalType": "address payable",
          "name": "router",
          "type": "address"
        },
        {
          "internalType": "address",
          "name": "factory",
          "type": "address"
        },
        {
          "internalType": "address",
          "name": "weth",
          "type": "address"
        },
        {
          "internalType": "address",
          "name": "quoter",
          "type": "address"
        },
        {
          "internalType": "uint256",
          "name": "createdAt",
          "type": "uint256"
        },
        {
          "internalType": "bool",
          "name": "enabled",
          "type": "bool"
        }
      ],
      "stateMutability": "view",
      "type": "function"
    },
    {
      "inputs": [
        {
          "internalType": "uint256",
          "name": "",
          "type": "uint256"
        }
      ],
      "name": "routesIds",
      "outputs": [
        {
          "internalType": "bytes32",
          "name": "",
          "type": "bytes32"
        }
      ],
      "stateMutability": "view",
      "type": "function"
    },
    {
      "inputs": [
        {
          "internalType": "address",
          "name": "addr",
          "type": "address"
        }
      ],
      "name": "setFeeWallet",
      "outputs": [],
      "stateMutability": "nonpayable",
      "type": "function"
    },
    {
      "inputs": [
        {
          "internalType": "uint256",
          "name": "_feeBps",
          "type": "uint256"
        }
      ],
      "name": "setProtocolFee",
      "outputs": [],
      "stateMutability": "nonpayable",
      "type": "function"
    },
    {
      "inputs": [
        {
          "internalType": "bytes32",
          "name": "routeId",
          "type": "bytes32"
        },
        {
          "internalType": "uint256",
          "name": "amount",
          "type": "uint256"
        },
        {
          "internalType": "address",
          "name": "tokenA",
          "type": "address"
        },
        {
          "internalType": "bytes",
          "name": "payload",
          "type": "bytes"
        }
      ],
      "name": "swap",
      "outputs": [],
      "stateMutability": "payable",
      "type": "function"
    },
    {
      "inputs": [
        {
          "internalType": "address",
          "name": "token",
          "type": "address"
        },
        {
          "internalType": "uint256",
          "name": "amount",
          "type": "uint256"
        }
      ],
      "name": "sweep",
      "outputs": [],
      "stateMutability": "nonpayable",
      "type": "function"
    },
    {
      "inputs": [
        {
          "internalType": "address",
          "name": "newOwner",
          "type": "address"
        }
      ],
      "name": "transferOwnership",
      "outputs": [],
      "stateMutability": "nonpayable",
      "type": "function"
    },
    {
      "stateMutability": "payable",
      "type": "receive"
    }
  ],
  "transactionHash": "0x77b020c6d9920de734c93c5043d1ca52a343e7b3df0842e7fcc7db56a369006a",
  "args": [
    80,
    "0x92c9E17a2f02b2119350F3E90918bEd3c6e24F3c"
  ],
  "numDeployments": 1,
  "solcInputHash": "b5dbde94e18c9a6515e3c137719d8e7a",
  "bytecode": "0x60806040527f756e695f763300000000000000000000000000000000000000000000000000006002553480156200003557600080fd5b5060405162003f3638038062003f3683398181016040528101906200005b919062000357565b6200006b6200012460201b60201c565b600073ffffffffffffffffffffffffffffffffffffffff168173ffffffffffffffffffffffffffffffffffffffff1603620000e05760006040517f1e4fbdf7000000000000000000000000000000000000000000000000000000008152600401620000d79190620003af565b60405180910390fd5b620000f1816200012c60201b60201c565b5060016006819055506200010b82620001f260201b60201c565b6200011c816200023560201b60201c565b5050620003fa565b600033905090565b6000600560009054906101000a900473ffffffffffffffffffffffffffffffffffffffff16905081600560006101000a81548173ffffffffffffffffffffffffffffffffffffffff021916908373ffffffffffffffffffffffffffffffffffffffff1602179055508173ffffffffffffffffffffffffffffffffffffffff168173ffffffffffffffffffffffffffffffffffffffff167f8be0079c531659141344cd1fd0a4f28419497f9722a3daafe3b4186f6b6457e060405160405180910390a35050565b806000819055507fdc0410a296e1e33943a772020d333d5f99319d7fcad932a484c53889f7aaa2b1816040516200022a9190620003dd565b60405180910390a150565b80600160006101000a81548173ffffffffffffffffffffffffffffffffffffffff021916908373ffffffffffffffffffffffffffffffffffffffff1602179055507f3d21e5a2b633291bd1ff5f9c654e402d063783c95759d2ea521b31fb30e4da4181604051620002a79190620003af565b60405180910390a150565b600080fd5b6000819050919050565b620002cc81620002b7565b8114620002d857600080fd5b50565b600081519050620002ec81620002c1565b92915050565b600073ffffffffffffffffffffffffffffffffffffffff82169050919050565b60006200031f82620002f2565b9050919050565b620003318162000312565b81146200033d57600080fd5b50565b600081519050620003518162000326565b92915050565b60008060408385031215620003715762000370620002b2565b5b60006200038185828601620002db565b9250506020620003948582860162000340565b9150509250929050565b620003a98162000312565b82525050565b6000602082019050620003c660008301846200039e565b92915050565b620003d781620002b7565b82525050565b6000602082019050620003f46000830184620003cc565b92915050565b613b2c806200040a6000396000f3fe60806040526004361061010d5760003560e01c80636f8e6176116100955780638ca78528116100645780638ca78528146103735780638da5cb5b1461039c57806390d49b9d146103c7578063ac9650d8146103f0578063f2fde38b1461042d57610114565b80636f8e6176146102da578063715018a6146102f6578063787dce3d1461030d5780637c249d291461033657610114565b80631f696924116100dc5780631f696924146101fd57806338395a9d1461022857806339691ed9146102585780636703e977146102815780636ea056a9146102b157610114565b8063066e9481146101165780630dd3ca831461015a5780630ecc1cab146101835780631b80b510146101c057610114565b3661011457005b005b34801561012257600080fd5b5061013d60048036038101906101389190612297565b610456565b604051610151989796959493929190612369565b60405180910390f35b34801561016657600080fd5b50610181600480360381019061017c9190612413565b61052b565b005b34801561018f57600080fd5b506101aa60048036038101906101a591906124b8565b6105b6565b6040516101b79190612657565b60405180910390f35b3480156101cc57600080fd5b506101e760048036038101906101e291906126a5565b6106c2565b6040516101f491906126e5565b60405180910390f35b34801561020957600080fd5b506102126106ff565b60405161021f919061289d565b60405180910390f35b610242600480360381019061023d9190612941565b61096f565b60405161024f9190612a0b565b60405180910390f35b34801561026457600080fd5b5061027f600480360381019061027a9190612a26565b610a1e565b005b61029b60048036038101906102969190612a53565b610a43565b6040516102a89190612bcc565b60405180910390f35b3480156102bd57600080fd5b506102d860048036038101906102d39190612bee565b610b8e565b005b6102f460048036038101906102ef9190612941565b610bad565b005b34801561030257600080fd5b5061030b6113ac565b005b34801561031957600080fd5b50610334600480360381019061032f9190612c2e565b6113c0565b005b34801561034257600080fd5b5061035d60048036038101906103589190612c2e565b6113d4565b60405161036a9190612c5b565b60405180910390f35b34801561037f57600080fd5b5061039a60048036038101906103959190612ca2565b6113f8565b005b3480156103a857600080fd5b506103b1611847565b6040516103be9190612d44565b60405180910390f35b3480156103d357600080fd5b506103ee60048036038101906103e99190612d5f565b611871565b005b3480156103fc57600080fd5b50610417600480360381019061041291906124b8565b611885565b6040516104249190612657565b60405180910390f35b34801561043957600080fd5b50610454600480360381019061044f9190612d5f565b611991565b005b60036020528060005260406000206000915090508060000154908060010154908060020160009054906101000a900473ffffffffffffffffffffffffffffffffffffffff16908060030160009054906101000a900473ffffffffffffffffffffffffffffffffffffffff16908060040160009054906101000a900473ffffffffffffffffffffffffffffffffffffffff16908060050160009054906101000a900473ffffffffffffffffffffffffffffffffffffffff16908060060154908060070160009054906101000a900460ff16905088565b6000600360008481526020019081526020016000206006015411610584576040517f08c379a000000000000000000000000000000000000000000000000000000000815260040161057b90612e0f565b60405180910390fd5b806003600084815260200190815260200160002060070160006101000a81548160ff0219169083151502179055505050565b60608282905067ffffffffffffffff8111156105d5576105d4612e2f565b5b60405190808252806020026020018201604052801561060857816020015b60608152602001906001900390816105f35790505b50905060005b838390508110156106bb5761068a308585848181106106305761062f612e5e565b5b90506020028101906106429190612e9c565b8080601f016020809104026020016040519081016040528093929190818152602001838380828437600081840152601f19601f82011690508083019250505050505050611a17565b82828151811061069d5761069c612e5e565b5b602002602001018190525080806106b390612f2e565b91505061060e565b5092915050565b600061271082846106d39190612f76565b10156106de57600080fd5b61271082846106ed9190612f76565b6106f79190612fe7565b905092915050565b606060048054905067ffffffffffffffff8111156107205761071f612e2f565b5b60405190808252806020026020018201604052801561075957816020015b610746612187565b81526020019060019003908161073e5790505b50905060005b60048054905081101561096b57600360006004838154811061078457610783612e5e565b5b906000526020600020015481526020019081526020016000206040518061010001604052908160008201548152602001600182015481526020016002820160009054906101000a900473ffffffffffffffffffffffffffffffffffffffff1673ffffffffffffffffffffffffffffffffffffffff1673ffffffffffffffffffffffffffffffffffffffff1681526020016003820160009054906101000a900473ffffffffffffffffffffffffffffffffffffffff1673ffffffffffffffffffffffffffffffffffffffff1673ffffffffffffffffffffffffffffffffffffffff1681526020016004820160009054906101000a900473ffffffffffffffffffffffffffffffffffffffff1673ffffffffffffffffffffffffffffffffffffffff1673ffffffffffffffffffffffffffffffffffffffff1681526020016005820160009054906101000a900473ffffffffffffffffffffffffffffffffffffffff1673ffffffffffffffffffffffffffffffffffffffff1673ffffffffffffffffffffffffffffffffffffffff168152602001600682015481526020016007820160009054906101000a900460ff16151515158152505082828151811061094d5761094c612e5e565b5b6020026020010181905250808061096390612f2e565b91505061075f565b5090565b61097761222c565b60005a90503073ffffffffffffffffffffffffffffffffffffffff16636f8e617688888888886040518663ffffffff1660e01b81526004016109bd959493929190613065565b600060405180830381600087803b1580156109d757600080fd5b505af11580156109eb573d6000803e3d6000fd5b5050505060005a8203905060405180606001604052808281526020013a8152602001458152509250505095945050505050565b610a26611a9b565b80600760006101000a81548160ff02191690831515021790555050565b60608282905067ffffffffffffffff811115610a6257610a61612e2f565b5b604051908082528060200260200182016040528015610a9b57816020015b610a8861222c565b815260200190600190039081610a805790505b50905060005b83839050811015610b84573073ffffffffffffffffffffffffffffffffffffffff166338395a9d888888888887818110610ade57610add612e5e565b5b9050602002810190610af09190612e9c565b6040518663ffffffff1660e01b8152600401610b10959493929190613065565b6060604051808303816000875af1158015610b2f573d6000803e3d6000fd5b505050506040513d601f19601f82011682018060405250810190610b53919061317d565b828281518110610b6657610b65612e5e565b5b60200260200101819052508080610b7c90612f2e565b915050610aa1565b5095945050505050565b610b96611a9b565b610ba98230610ba3611b22565b84611b2a565b5050565b846000600360008381526020019081526020016000206006015411610c07576040517f08c379a0000000000000000000000000000000000000000000000000000000008152600401610bfe9061321c565b60405180910390fd5b6003600082815260200190815260200160002060070160009054906101000a900460ff16610c6a576040517f08c379a0000000000000000000000000000000000000000000000000000000008152600401610c61906132ae565b60405180910390fd5b610c72611b93565b600760009054906101000a900460ff1615610cc2576040517f08c379a0000000000000000000000000000000000000000000000000000000008152600401610cb99061331a565b60405180910390fd5b6000600360008881526020019081526020016000206040518061010001604052908160008201548152602001600182015481526020016002820160009054906101000a900473ffffffffffffffffffffffffffffffffffffffff1673ffffffffffffffffffffffffffffffffffffffff1673ffffffffffffffffffffffffffffffffffffffff1681526020016003820160009054906101000a900473ffffffffffffffffffffffffffffffffffffffff1673ffffffffffffffffffffffffffffffffffffffff1673ffffffffffffffffffffffffffffffffffffffff1681526020016004820160009054906101000a900473ffffffffffffffffffffffffffffffffffffffff1673ffffffffffffffffffffffffffffffffffffffff1673ffffffffffffffffffffffffffffffffffffffff1681526020016005820160009054906101000a900473ffffffffffffffffffffffffffffffffffffffff1673ffffffffffffffffffffffffffffffffffffffff1673ffffffffffffffffffffffffffffffffffffffff168152602001600682015481526020016007820160009054906101000a900460ff161515151581525050905060008160c0015111610ebd576040517f08c379a0000000000000000000000000000000000000000000000000000000008152600401610eb490613386565b60405180910390fd5b60008484905011610f03576040517f08c379a0000000000000000000000000000000000000000000000000000000008152600401610efa906133f2565b60405180910390fd5b600073ffffffffffffffffffffffffffffffffffffffff168573ffffffffffffffffffffffffffffffffffffffff1603610f72576040517f08c379a0000000000000000000000000000000000000000000000000000000008152600401610f699061345e565b60405180910390fd5b73eeeeeeeeeeeeeeeeeeeeeeeeeeeeeeeeeeeeeeee73ffffffffffffffffffffffffffffffffffffffff168573ffffffffffffffffffffffffffffffffffffffff160361100057853414610ffb576040517f08c379a0000000000000000000000000000000000000000000000000000000008152600401610ff2906134ca565b60405180910390fd5b611014565b6110138561100c611b22565b3089611b2a565b5b60008160400151905060008060008054111561108057611036896000546106c2565b9050808961104491906134ea565b915061107b88611052611b22565b600160009054906101000a900473ffffffffffffffffffffffffffffffffffffffff1684611b2a565b611084565b8891505b73eeeeeeeeeeeeeeeeeeeeeeeeeeeeeeeeeeeeeeee73ffffffffffffffffffffffffffffffffffffffff168873ffffffffffffffffffffffffffffffffffffffff161480156110d95750600254846020015114155b156111535761114d87878080601f016020809104026020016040519081016040528093929190818152602001838380828437600081840152601f19601f82011690508083019250505050505050838573ffffffffffffffffffffffffffffffffffffffff16611bd99092919063ffffffff16565b50611350565b600073eeeeeeeeeeeeeeeeeeeeeeeeeeeeeeeeeeeeeeee73ffffffffffffffffffffffffffffffffffffffff168973ffffffffffffffffffffffffffffffffffffffff161480156111a957506002548560200151145b1561121f57846080015173ffffffffffffffffffffffffffffffffffffffff1663d0e30db0846040518263ffffffff1660e01b81526004016000604051808303818588803b1580156111fa57600080fd5b505af115801561120e573d6000803e3d6000fd5b505050505084608001519050611223565b8890505b8073ffffffffffffffffffffffffffffffffffffffff1663095ea7b385856040518363ffffffff1660e01b815260040161125e92919061351e565b6020604051808303816000875af115801561127d573d6000803e3d6000fd5b505050506040513d601f19601f820116820180604052508101906112a1919061355c565b6112e0576040517f08c379a00000000000000000000000000000000000000000000000000000000081526004016112d7906135fb565b60405180910390fd5b61134d88888080601f016020809104026020016040519081016040528093929190818152602001838380828437600081840152601f19601f820116905080830192505050505050508573ffffffffffffffffffffffffffffffffffffffff16611ca690919063ffffffff16565b50505b7fa1cf747ad001476b442e3c9c4a2b2180fbc1b3a710b44c90e2f2d23d2f2710c28a8a8a60005461137f611b22565b60405161139095949392919061361b565b60405180910390a1505050506113a4611cbc565b505050505050565b6113b4611a9b565b6113be6000611cc6565b565b6113c8611a9b565b6113d181611d8c565b50565b600481815481106113e457600080fd5b906000526020600020016000915090505481565b611400611a9b565b600073ffffffffffffffffffffffffffffffffffffffff168573ffffffffffffffffffffffffffffffffffffffff160361146f576040517f08c379a0000000000000000000000000000000000000000000000000000000008152600401611466906136e0565b60405180910390fd5b61147885611dcd565b6114b7576040517f08c379a00000000000000000000000000000000000000000000000000000000081526004016114ae90613772565b60405180910390fd5b6114c084611dcd565b6114ff576040517f08c379a00000000000000000000000000000000000000000000000000000000081526004016114f690613804565b60405180910390fd5b61150883611dcd565b611547576040517f08c379a000000000000000000000000000000000000000000000000000000000815260040161153e90613896565b60405180910390fd5b600073ffffffffffffffffffffffffffffffffffffffff168273ffffffffffffffffffffffffffffffffffffffff16146115c45761158482611dcd565b6115c3576040517f08c379a00000000000000000000000000000000000000000000000000000000081526004016115ba90613928565b60405180910390fd5b5b600080600360008a81526020019081526020016000206006015414905060008161160457600360008a815260200190815260200160002060060154611606565b425b90506040518061010001604052808a81526020018981526020018873ffffffffffffffffffffffffffffffffffffffff1681526020018773ffffffffffffffffffffffffffffffffffffffff1681526020018673ffffffffffffffffffffffffffffffffffffffff1681526020018573ffffffffffffffffffffffffffffffffffffffff168152602001828152602001841515815250600360008b8152602001908152602001600020600082015181600001556020820151816001015560408201518160020160006101000a81548173ffffffffffffffffffffffffffffffffffffffff021916908373ffffffffffffffffffffffffffffffffffffffff16021790555060608201518160030160006101000a81548173ffffffffffffffffffffffffffffffffffffffff021916908373ffffffffffffffffffffffffffffffffffffffff16021790555060808201518160040160006101000a81548173ffffffffffffffffffffffffffffffffffffffff021916908373ffffffffffffffffffffffffffffffffffffffff16021790555060a08201518160050160006101000a81548173ffffffffffffffffffffffffffffffffffffffff021916908373ffffffffffffffffffffffffffffffffffffffff16021790555060c0820151816006015560e08201518160070160006101000a81548160ff021916908315150217905550905050811561183c5760048990806001815401808255809150506001900390600052602060002001600090919091909150555b505050505050505050565b6000600560009054906101000a900473ffffffffffffffffffffffffffffffffffffffff16905090565b611879611a9b565b61188281611de0565b50565b60608282905067ffffffffffffffff8111156118a4576118a3612e2f565b5b6040519080825280602002602001820160405280156118d757816020015b60608152602001906001900390816118c25790505b50905060005b8383905081101561198a57611959308585848181106118ff576118fe612e5e565b5b90506020028101906119119190612e9c565b8080601f016020809104026020016040519081016040528093929190818152602001838380828437600081840152601f19601f82011690508083019250505050505050611a17565b82828151811061196c5761196b612e5e565b5b6020026020010181905250808061198290612f2e565b9150506118dd565b5092915050565b611999611a9b565b600073ffffffffffffffffffffffffffffffffffffffff168173ffffffffffffffffffffffffffffffffffffffff1603611a0b5760006040517f1e4fbdf7000000000000000000000000000000000000000000000000000000008152600401611a029190612d44565b60405180910390fd5b611a1481611cc6565b50565b60606000808473ffffffffffffffffffffffffffffffffffffffff1684604051611a419190613984565b600060405180830381855af49150503d8060008114611a7c576040519150601f19603f3d011682016040523d82523d6000602084013e611a81565b606091505b5091509150611a91858383611e5b565b9250505092915050565b611aa3611b22565b73ffffffffffffffffffffffffffffffffffffffff16611ac1611847565b73ffffffffffffffffffffffffffffffffffffffff1614611b2057611ae4611b22565b6040517f118cdaa7000000000000000000000000000000000000000000000000000000008152600401611b179190612d44565b60405180910390fd5b565b600033905090565b73eeeeeeeeeeeeeeeeeeeeeeeeeeeeeeeeeeeeeeee73ffffffffffffffffffffffffffffffffffffffff168473ffffffffffffffffffffffffffffffffffffffff1603611b8057611b7b8282611eea565b611b8d565b611b8c84848484611fea565b5b50505050565b600260065403611bcf576040517f3ee5aeb500000000000000000000000000000000000000000000000000000000815260040160405180910390fd5b6002600681905550565b606081471015611c2057306040517fcd786059000000000000000000000000000000000000000000000000000000008152600401611c179190612d44565b60405180910390fd5b6000808573ffffffffffffffffffffffffffffffffffffffff168486604051611c499190613984565b60006040518083038185875af1925050503d8060008114611c86576040519150601f19603f3d011682016040523d82523d6000602084013e611c8b565b606091505b5091509150611c9b868383611e5b565b925050509392505050565b6060611cb483836000611bd9565b905092915050565b6001600681905550565b6000600560009054906101000a900473ffffffffffffffffffffffffffffffffffffffff16905081600560006101000a81548173ffffffffffffffffffffffffffffffffffffffff021916908373ffffffffffffffffffffffffffffffffffffffff1602179055508173ffffffffffffffffffffffffffffffffffffffff168173ffffffffffffffffffffffffffffffffffffffff167f8be0079c531659141344cd1fd0a4f28419497f9722a3daafe3b4186f6b6457e060405160405180910390a35050565b806000819055507fdc0410a296e1e33943a772020d333d5f99319d7fcad932a484c53889f7aaa2b181604051611dc291906126e5565b60405180910390a150565b600080823b905060008111915050919050565b80600160006101000a81548173ffffffffffffffffffffffffffffffffffffffff021916908373ffffffffffffffffffffffffffffffffffffffff1602179055507f3d21e5a2b633291bd1ff5f9c654e402d063783c95759d2ea521b31fb30e4da4181604051611e509190612d44565b60405180910390a150565b606082611e7057611e6b82612142565b611ee2565b60008251148015611e98575060008473ffffffffffffffffffffffffffffffffffffffff163b145b15611eda57836040517f9996b315000000000000000000000000000000000000000000000000000000008152600401611ed19190612d44565b60405180910390fd5b819050611ee3565b5b9392505050565b60008273ffffffffffffffffffffffffffffffffffffffff1682600067ffffffffffffffff811115611f1f57611f1e612e2f565b5b6040519080825280601f01601f191660200182016040528015611f515781602001600182028036833780820191505090505b50604051611f5f9190613984565b60006040518083038185875af1925050503d8060008114611f9c576040519150601f19603f3d011682016040523d82523d6000602084013e611fa1565b606091505b5050905080611fe5576040517f08c379a0000000000000000000000000000000000000000000000000000000008152600401611fdc90613a0d565b60405180910390fd5b505050565b6000808573ffffffffffffffffffffffffffffffffffffffff166323b872dd60e01b86868660405160240161202193929190613a2d565b604051602081830303815290604052907bffffffffffffffffffffffffffffffffffffffffffffffffffffffff19166020820180517bffffffffffffffffffffffffffffffffffffffffffffffffffffffff838183161783525050505060405161208b9190613984565b6000604051808303816000865af19150503d80600081146120c8576040519150601f19603f3d011682016040523d82523d6000602084013e6120cd565b606091505b50915091508180156120fb57506000815114806120fa5750808060200190518101906120f9919061355c565b5b5b61213a576040517f08c379a000000000000000000000000000000000000000000000000000000000815260040161213190613ad6565b60405180910390fd5b505050505050565b6000815111156121555780518082602001fd5b6040517f1425ea4200000000000000000000000000000000000000000000000000000000815260040160405180910390fd5b6040518061010001604052806000801916815260200160008019168152602001600073ffffffffffffffffffffffffffffffffffffffff168152602001600073ffffffffffffffffffffffffffffffffffffffff168152602001600073ffffffffffffffffffffffffffffffffffffffff168152602001600073ffffffffffffffffffffffffffffffffffffffff168152602001600081526020016000151581525090565b60405180606001604052806000815260200160008152602001600081525090565b6000604051905090565b600080fd5b600080fd5b6000819050919050565b61227481612261565b811461227f57600080fd5b50565b6000813590506122918161226b565b92915050565b6000602082840312156122ad576122ac612257565b5b60006122bb84828501612282565b91505092915050565b6122cd81612261565b82525050565b600073ffffffffffffffffffffffffffffffffffffffff82169050919050565b60006122fe826122d3565b9050919050565b61230e816122f3565b82525050565b600061231f826122d3565b9050919050565b61232f81612314565b82525050565b6000819050919050565b61234881612335565b82525050565b60008115159050919050565b6123638161234e565b82525050565b60006101008201905061237f600083018b6122c4565b61238c602083018a6122c4565b6123996040830189612305565b6123a66060830188612326565b6123b36080830187612326565b6123c060a0830186612326565b6123cd60c083018561233f565b6123da60e083018461235a565b9998505050505050505050565b6123f08161234e565b81146123fb57600080fd5b50565b60008135905061240d816123e7565b92915050565b6000806040838503121561242a57612429612257565b5b600061243885828601612282565b9250506020612449858286016123fe565b9150509250929050565b600080fd5b600080fd5b600080fd5b60008083601f84011261247857612477612453565b5b8235905067ffffffffffffffff81111561249557612494612458565b5b6020830191508360208202830111156124b1576124b061245d565b5b9250929050565b600080602083850312156124cf576124ce612257565b5b600083013567ffffffffffffffff8111156124ed576124ec61225c565b5b6124f985828601612462565b92509250509250929050565b600081519050919050565b600082825260208201905092915050565b6000819050602082019050919050565b600081519050919050565b600082825260208201905092915050565b60005b8381101561256b578082015181840152602081019050612550565b60008484015250505050565b6000601f19601f8301169050919050565b600061259382612531565b61259d818561253c565b93506125ad81856020860161254d565b6125b681612577565b840191505092915050565b60006125cd8383612588565b905092915050565b6000602082019050919050565b60006125ed82612505565b6125f78185612510565b93508360208202850161260985612521565b8060005b85811015612645578484038952815161262685826125c1565b9450612631836125d5565b925060208a0199505060018101905061260d565b50829750879550505050505092915050565b6000602082019050818103600083015261267181846125e2565b905092915050565b61268281612335565b811461268d57600080fd5b50565b60008135905061269f81612679565b92915050565b600080604083850312156126bc576126bb612257565b5b60006126ca85828601612690565b92505060206126db85828601612690565b9150509250929050565b60006020820190506126fa600083018461233f565b92915050565b600081519050919050565b600082825260208201905092915050565b6000819050602082019050919050565b61273581612261565b82525050565b612744816122f3565b82525050565b61275381612314565b82525050565b61276281612335565b82525050565b6127718161234e565b82525050565b6101008201600082015161278e600085018261272c565b5060208201516127a1602085018261272c565b5060408201516127b4604085018261273b565b5060608201516127c7606085018261274a565b5060808201516127da608085018261274a565b5060a08201516127ed60a085018261274a565b5060c082015161280060c0850182612759565b5060e082015161281360e0850182612768565b50505050565b60006128258383612777565b6101008301905092915050565b6000602082019050919050565b600061284a82612700565b612854818561270b565b935061285f8361271c565b8060005b838110156128905781516128778882612819565b975061288283612832565b925050600181019050612863565b5085935050505092915050565b600060208201905081810360008301526128b7818461283f565b905092915050565b6128c881612314565b81146128d357600080fd5b50565b6000813590506128e5816128bf565b92915050565b60008083601f84011261290157612900612453565b5b8235905067ffffffffffffffff81111561291e5761291d612458565b5b60208301915083600182028301111561293a5761293961245d565b5b9250929050565b60008060008060006080868803121561295d5761295c612257565b5b600061296b88828901612282565b955050602061297c88828901612690565b945050604061298d888289016128d6565b935050606086013567ffffffffffffffff8111156129ae576129ad61225c565b5b6129ba888289016128eb565b92509250509295509295909350565b6060820160008201516129df6000850182612759565b5060208201516129f26020850182612759565b506040820151612a056040850182612759565b50505050565b6000606082019050612a2060008301846129c9565b92915050565b600060208284031215612a3c57612a3b612257565b5b6000612a4a848285016123fe565b91505092915050565b600080600080600060808688031215612a6f57612a6e612257565b5b6000612a7d88828901612282565b9550506020612a8e88828901612690565b9450506040612a9f888289016128d6565b935050606086013567ffffffffffffffff811115612ac057612abf61225c565b5b612acc88828901612462565b92509250509295509295909350565b600081519050919050565b600082825260208201905092915050565b6000819050602082019050919050565b606082016000820151612b1d6000850182612759565b506020820151612b306020850182612759565b506040820151612b436040850182612759565b50505050565b6000612b558383612b07565b60608301905092915050565b6000602082019050919050565b6000612b7982612adb565b612b838185612ae6565b9350612b8e83612af7565b8060005b83811015612bbf578151612ba68882612b49565b9750612bb183612b61565b925050600181019050612b92565b5085935050505092915050565b60006020820190508181036000830152612be68184612b6e565b905092915050565b60008060408385031215612c0557612c04612257565b5b6000612c13858286016128d6565b9250506020612c2485828601612690565b9150509250929050565b600060208284031215612c4457612c43612257565b5b6000612c5284828501612690565b91505092915050565b6000602082019050612c7060008301846122c4565b92915050565b612c7f816122f3565b8114612c8a57600080fd5b50565b600081359050612c9c81612c76565b92915050565b600080600080600080600060e0888a031215612cc157612cc0612257565b5b6000612ccf8a828b01612282565b9750506020612ce08a828b01612282565b9650506040612cf18a828b01612c8d565b9550506060612d028a828b016128d6565b9450506080612d138a828b016128d6565b93505060a0612d248a828b016128d6565b92505060c0612d358a828b016123fe565b91505092959891949750929550565b6000602082019050612d596000830184612326565b92915050565b600060208284031215612d7557612d74612257565b5b6000612d83848285016128d6565b91505092915050565b600082825260208201905092915050565b7f426f7446693a53776170456e67696e6523656e61626c65526f757465723a204960008201527f4e56414c49445f524f5554450000000000000000000000000000000000000000602082015250565b6000612df9602c83612d8c565b9150612e0482612d9d565b604082019050919050565b60006020820190508181036000830152612e2881612dec565b9050919050565b7f4e487b7100000000000000000000000000000000000000000000000000000000600052604160045260246000fd5b7f4e487b7100000000000000000000000000000000000000000000000000000000600052603260045260246000fd5b600080fd5b600080fd5b600080fd5b60008083356001602003843603038112612eb957612eb8612e8d565b5b80840192508235915067ffffffffffffffff821115612edb57612eda612e92565b5b602083019250600182023603831315612ef757612ef6612e97565b5b509250929050565b7f4e487b7100000000000000000000000000000000000000000000000000000000600052601160045260246000fd5b6000612f3982612335565b91507fffffffffffffffffffffffffffffffffffffffffffffffffffffffffffffffff8203612f6b57612f6a612eff565b5b600182019050919050565b6000612f8182612335565b9150612f8c83612335565b9250828202612f9a81612335565b91508282048414831517612fb157612fb0612eff565b5b5092915050565b7f4e487b7100000000000000000000000000000000000000000000000000000000600052601260045260246000fd5b6000612ff282612335565b9150612ffd83612335565b92508261300d5761300c612fb8565b5b828204905092915050565b600082825260208201905092915050565b82818337600083830152505050565b60006130448385613018565b9350613051838584613029565b61305a83612577565b840190509392505050565b600060808201905061307a60008301886122c4565b613087602083018761233f565b6130946040830186612326565b81810360608301526130a7818486613038565b90509695505050505050565b600080fd5b6130c182612577565b810181811067ffffffffffffffff821117156130e0576130df612e2f565b5b80604052505050565b60006130f361224d565b90506130ff82826130b8565b919050565b60008151905061311381612679565b92915050565b60006060828403121561312f5761312e6130b3565b5b61313960606130e9565b9050600061314984828501613104565b600083015250602061315d84828501613104565b602083015250604061317184828501613104565b60408301525092915050565b60006060828403121561319357613192612257565b5b60006131a184828501613119565b91505092915050565b7f426f7446692353776170456e67696e652376616c6964617465526f757465723a60008201527f20554e4b4e4f574e5f524f555445525f49440000000000000000000000000000602082015250565b6000613206603283612d8c565b9150613211826131aa565b604082019050919050565b60006020820190508181036000830152613235816131f9565b9050919050565b7f426f7446692353776170456e67696e652376616c6964617465526f757465723a60008201527f20524f555445525f4e4f545f454e41424c454400000000000000000000000000602082015250565b6000613298603383612d8c565b91506132a38261323c565b604082019050919050565b600060208201905081810360008301526132c78161328b565b9050919050565b7f426f74466923737761704e6f745061757365643a20535741505f504155534544600082015250565b6000613304602083612d8c565b915061330f826132ce565b602082019050919050565b60006020820190508181036000830152613333816132f7565b9050919050565b7f426f74466923537761703a2020554e535550504f525445445f44455800000000600082015250565b6000613370601c83612d8c565b915061337b8261333a565b602082019050919050565b6000602082019050818103600083015261339f81613363565b9050919050565b7f426f74466923537761703a20205041594c4f41445f5245515549524544000000600082015250565b60006133dc601d83612d8c565b91506133e7826133a6565b602082019050919050565b6000602082019050818103600083015261340b816133cf565b9050919050565b7f426f74466923537761703a20205a45524f5f544f4b454e415f41444452000000600082015250565b6000613448601d83612d8c565b915061345382613412565b602082019050919050565b600060208201905081810360008301526134778161343b565b9050919050565b7f426f74466923537761703a20494e53554646494349454e545f42414c414e4345600082015250565b60006134b4602083612d8c565b91506134bf8261347e565b602082019050919050565b600060208201905081810360008301526134e3816134a7565b9050919050565b60006134f582612335565b915061350083612335565b925082820390508181111561351857613517612eff565b5b92915050565b60006040820190506135336000830185612326565b613540602083018461233f565b9392505050565b600081519050613556816123e7565b92915050565b60006020828403121561357257613571612257565b5b600061358084828501613547565b91505092915050565b7f426f7446692353776170456e67696e653a20544f4b454e415f415050524f564160008201527f4c5f4641494c4544000000000000000000000000000000000000000000000000602082015250565b60006135e5602883612d8c565b91506135f082613589565b604082019050919050565b60006020820190508181036000830152613614816135d8565b9050919050565b600060a08201905061363060008301886122c4565b61363d602083018761233f565b61364a6040830186612326565b613657606083018561233f565b6136646080830184612326565b9695505050505050565b7f426f7446692353776170456e67696e6523616464526f757465723a205a45524f60008201527f5f524f555445525f414444524553530000000000000000000000000000000000602082015250565b60006136ca602f83612d8c565b91506136d58261366e565b604082019050919050565b600060208201905081810360008301526136f9816136bd565b9050919050565b7f426f7446692353776170456e67696e6523616464526f757465723a20524f555460008201527f45525f4e4f545f415f434f4e5452414354000000000000000000000000000000602082015250565b600061375c603183612d8c565b915061376782613700565b604082019050919050565b6000602082019050818103600083015261378b8161374f565b9050919050565b7f426f7446692353776170456e67696e6523616464526f757465723a204641435460008201527f4f52595f4e4f545f415f434f4e54524143540000000000000000000000000000602082015250565b60006137ee603283612d8c565b91506137f982613792565b604082019050919050565b6000602082019050818103600083015261381d816137e1565b9050919050565b7f426f7446692353776170456e67696e6523616464526f757465723a205745544860008201527f5f4e4f545f415f434f4e54524143540000000000000000000000000000000000602082015250565b6000613880602f83612d8c565b915061388b82613824565b604082019050919050565b600060208201905081810360008301526138af81613873565b9050919050565b7f426f7446692353776170456e67696e6523616464526f757465723a2051554f5460008201527f45525f4e4f545f415f434f4e5452414354000000000000000000000000000000602082015250565b6000613912603183612d8c565b915061391d826138b6565b604082019050919050565b6000602082019050818103600083015261394181613905565b9050919050565b600081905092915050565b600061395e82612531565b6139688185613948565b935061397881856020860161254d565b80840191505092915050565b60006139908284613953565b915081905092915050565b7f426f744669235472616e7366657248656c7065723a204554485f5452414e534660008201527f45525f4641494c45440000000000000000000000000000000000000000000000602082015250565b60006139f7602983612d8c565b9150613a028261399b565b604082019050919050565b60006020820190508181036000830152613a26816139ea565b9050919050565b6000606082019050613a426000830186612326565b613a4f6020830185612326565b613a5c604083018461233f565b949350505050565b7f426f744669235472616e7366657248656c7065723a20544f4b454e5f5452414e60008201527f534645525f4641494c4544000000000000000000000000000000000000000000602082015250565b6000613ac0602b83612d8c565b9150613acb82613a64565b604082019050919050565b60006020820190508181036000830152613aef81613ab3565b905091905056fea2646970667358221220b0107f61fd09c70aa387892c643a0d967bb284b6b9a27da573081fb90827b59264736f6c63430008140033",
  "devdoc": {
    "errors": {
      "AddressEmptyCode(address)": [
        {
          "details": "There's no code at `target` (it is not a contract)."
        }
      ],
      "AddressInsufficientBalance(address)": [
        {
          "details": "The ETH balance of the account is not enough to perform the operation."
        }
      ],
      "FailedInnerCall()": [
        {
          "details": "A call to an address target failed. The target may have reverted."
        }
      ],
      "OwnableInvalidOwner(address)": [
        {
          "details": "The owner is not a valid owner account. (eg. `address(0)`)"
        }
      ],
      "OwnableUnauthorizedAccount(address)": [
        {
          "details": "The caller account is not authorized to perform an operation."
        }
      ],
      "ReentrancyGuardReentrantCall()": [
        {
          "details": "Unauthorized reentrant call."
        }
      ]
    },
    "kind": "dev",
    "methods": {
      "addRoute(bytes32,bytes32,address,address,address,address,bool)": {
        "details": "addRouter add a router params",
        "params": {
          "enabled": "is the router enabled or not",
          "factory": "the factory address",
          "group": "router group - uni_v2, uni_v3 ....",
          "id": "router id",
          "quoter": "swap quoter ",
          "router": "the router address ",
          "weth": "wrapped ether or wrapped native token"
        }
      },
      "calPercentage(uint256,uint256)": {
        "details": "convert percentage in basis point of a value ",
        "params": {
          "amount": "the amount to be calculated on",
          "bps": "percentage value in basis point"
        }
      },
      "enableRoute(bytes32,bool)": {
        "details": "enable or disable a route",
        "params": {
          "id": "the router id",
          "opt": "true or false"
        }
      },
      "getAllRoutes()": {
        "details": "getAllRoutes get all the routers returns array "
      },
      "multicall(bytes[])": {
        "custom:oz-upgrades-unsafe-allow-reachable": "delegatecall",
        "details": "Receives and executes a batch of function calls on this contract."
      },
      "owner()": {
        "details": "Returns the address of the current owner."
      },
      "pauseSwap(bool)": {
        "details": "pause the swap operation for the contract",
        "params": {
          "opt": "true or false "
        }
      },
      "renounceOwnership()": {
        "details": "Leaves the contract without owner. It will not be possible to call `onlyOwner` functions. Can only be called by the current owner. NOTE: Renouncing ownership will leave the contract without an owner, thereby disabling any functionality that is only available to the owner."
      },
      "setFeeWallet(address)": {
        "details": "set the address for taking the protocol fees",
        "params": {
          "addr": "the fee in percentage basis point"
        }
      },
      "setProtocolFee(uint256)": {
        "details": "protocol fee in basis point",
        "params": {
          "_feeBps": "the fee in percentage basis point"
        }
      },
      "swap(bytes32,uint256,address,bytes)": {
        "details": "perform a swap",
        "params": {
          "amount": "the total amount without the protocol fee for the swap",
          "payload": "the encoded swap data to foward to the router",
          "routeId": "the identifier of the router to use",
          "tokenA": "the token to swap into another token (tokenB)"
        }
      },
      "sweep(address,uint256)": {
        "details": "withdraw any stucked tokens in the contract",
        "params": {
          "amount": "the amount to move out",
          "token": "the token address to withdraw"
        }
      },
      "transferOwnership(address)": {
        "details": "Transfers ownership of the contract to a new account (`newOwner`). Can only be called by the current owner."
      }
    },
    "version": 1
  },
  "userdoc": {
    "kind": "user",
    "methods": {
      "getSwapGasInfo(bytes32,uint256,address,bytes)": {
        "notice": "getSwapGasFee"
      }
    },
    "version": 1
  },
  "storageLayout": {
    "storage": [
      {
        "astId": 797,
        "contract": "contracts/Factory.sol:Factory",
        "label": "PROTOCOL_FEE",
        "offset": 0,
        "slot": "0",
        "type": "t_uint256"
      },
      {
        "astId": 799,
        "contract": "contracts/Factory.sol:Factory",
        "label": "FEE_WALLET",
        "offset": 0,
        "slot": "1",
        "type": "t_address"
      },
      {
        "astId": 805,
        "contract": "contracts/Factory.sol:Factory",
        "label": "UNI_V3",
        "offset": 0,
        "slot": "2",
        "type": "t_bytes32"
      },
      {
        "astId": 813,
        "contract": "contracts/Factory.sol:Factory",
        "label": "routes",
        "offset": 0,
        "slot": "3",
        "type": "t_mapping(t_bytes32,t_struct(RouteParams)833_storage)"
      },
      {
        "astId": 816,
        "contract": "contracts/Factory.sol:Factory",
        "label": "routesIds",
        "offset": 0,
        "slot": "4",
        "type": "t_array(t_bytes32)dyn_storage"
      },
      {
        "astId": 8,
        "contract": "contracts/Factory.sol:Factory",
        "label": "_owner",
        "offset": 0,
        "slot": "5",
        "type": "t_address"
      },
      {
        "astId": 619,
        "contract": "contracts/Factory.sol:Factory",
        "label": "_status",
        "offset": 0,
        "slot": "6",
        "type": "t_uint256"
      },
      {
        "astId": 1044,
        "contract": "contracts/Factory.sol:Factory",
        "label": "isPaused",
        "offset": 0,
        "slot": "7",
        "type": "t_bool"
      }
    ],
    "types": {
      "t_address": {
        "encoding": "inplace",
        "label": "address",
        "numberOfBytes": "20"
      },
      "t_address_payable": {
        "encoding": "inplace",
        "label": "address payable",
        "numberOfBytes": "20"
      },
      "t_array(t_bytes32)dyn_storage": {
        "base": "t_bytes32",
        "encoding": "dynamic_array",
        "label": "bytes32[]",
        "numberOfBytes": "32"
      },
      "t_bool": {
        "encoding": "inplace",
        "label": "bool",
        "numberOfBytes": "1"
      },
      "t_bytes32": {
        "encoding": "inplace",
        "label": "bytes32",
        "numberOfBytes": "32"
      },
      "t_mapping(t_bytes32,t_struct(RouteParams)833_storage)": {
        "encoding": "mapping",
        "key": "t_bytes32",
        "label": "mapping(bytes32 => struct Defs.RouteParams)",
        "numberOfBytes": "32",
        "value": "t_struct(RouteParams)833_storage"
      },
      "t_struct(RouteParams)833_storage": {
        "encoding": "inplace",
        "label": "struct Defs.RouteParams",
        "members": [
          {
            "astId": 818,
            "contract": "contracts/Factory.sol:Factory",
            "label": "id",
            "offset": 0,
            "slot": "0",
            "type": "t_bytes32"
          },
          {
            "astId": 820,
            "contract": "contracts/Factory.sol:Factory",
            "label": "group",
            "offset": 0,
            "slot": "1",
            "type": "t_bytes32"
          },
          {
            "astId": 822,
            "contract": "contracts/Factory.sol:Factory",
            "label": "router",
            "offset": 0,
            "slot": "2",
            "type": "t_address_payable"
          },
          {
            "astId": 824,
            "contract": "contracts/Factory.sol:Factory",
            "label": "factory",
            "offset": 0,
            "slot": "3",
            "type": "t_address"
          },
          {
            "astId": 826,
            "contract": "contracts/Factory.sol:Factory",
            "label": "weth",
            "offset": 0,
            "slot": "4",
            "type": "t_address"
          },
          {
            "astId": 828,
            "contract": "contracts/Factory.sol:Factory",
            "label": "quoter",
            "offset": 0,
            "slot": "5",
            "type": "t_address"
          },
          {
            "astId": 830,
            "contract": "contracts/Factory.sol:Factory",
            "label": "createdAt",
            "offset": 0,
            "slot": "6",
            "type": "t_uint256"
          },
          {
            "astId": 832,
            "contract": "contracts/Factory.sol:Factory",
            "label": "enabled",
            "offset": 0,
            "slot": "7",
            "type": "t_bool"
          }
        ],
        "numberOfBytes": "256"
      },
      "t_uint256": {
        "encoding": "inplace",
        "label": "uint256",
        "numberOfBytes": "32"
      }
    }
  }
}