{
  "address": "0xBB937f6937d3aaE8a649f2cCa94b8a3629bd1669",
  "abi": [
    {
      "inputs": [
        {
          "internalType": "uint256",
          "name": "protocolFee",
          "type": "uint256"
        },
        {
          "internalType": "address",
          "name": "feeWallet",
          "type": "address"
        }
      ],
      "stateMutability": "nonpayable",
      "type": "constructor"
    },
    {
      "inputs": [
        {
          "internalType": "address",
          "name": "target",
          "type": "address"
        }
      ],
      "name": "AddressEmptyCode",
      "type": "error"
    },
    {
      "inputs": [
        {
          "internalType": "address",
          "name": "account",
          "type": "address"
        }
      ],
      "name": "AddressInsufficientBalance",
      "type": "error"
    },
    {
      "inputs": [],
      "name": "FailedInnerCall",
      "type": "error"
    },
    {
      "inputs": [
        {
          "internalType": "address",
          "name": "owner",
          "type": "address"
        }
      ],
      "name": "OwnableInvalidOwner",
      "type": "error"
    },
    {
      "inputs": [
        {
          "internalType": "address",
          "name": "account",
          "type": "address"
        }
      ],
      "name": "OwnableUnauthorizedAccount",
      "type": "error"
    },
    {
      "inputs": [],
      "name": "ReentrancyGuardReentrantCall",
      "type": "error"
    },
    {
      "anonymous": false,
      "inputs": [
        {
          "indexed": true,
          "internalType": "address",
          "name": "previousOwner",
          "type": "address"
        },
        {
          "indexed": true,
          "internalType": "address",
          "name": "newOwner",
          "type": "address"
        }
      ],
      "name": "OwnershipTransferred",
      "type": "event"
    },
    {
      "anonymous": false,
      "inputs": [
        {
          "indexed": false,
          "internalType": "address",
          "name": "addr",
          "type": "address"
        }
      ],
      "name": "SetFeeWallet",
      "type": "event"
    },
    {
      "anonymous": false,
      "inputs": [
        {
          "indexed": false,
          "internalType": "uint256",
          "name": "",
          "type": "uint256"
        }
      ],
      "name": "SetProtocolFee",
      "type": "event"
    },
    {
      "anonymous": false,
      "inputs": [
        {
          "indexed": false,
          "internalType": "bytes32",
          "name": "routerId",
          "type": "bytes32"
        },
        {
          "indexed": false,
          "internalType": "uint256",
          "name": "amount",
          "type": "uint256"
        },
        {
          "indexed": false,
          "internalType": "address",
          "name": "tokenA",
          "type": "address"
        },
        {
          "indexed": false,
          "internalType": "uint256",
          "name": "feeBps",
          "type": "uint256"
        },
        {
          "indexed": false,
          "internalType": "address",
          "name": "account",
          "type": "address"
        }
      ],
      "name": "Swap",
      "type": "event"
    },
    {
      "stateMutability": "payable",
      "type": "fallback"
    },
    {
      "inputs": [
        {
          "internalType": "bytes32",
          "name": "id",
          "type": "bytes32"
        },
        {
          "internalType": "bytes32",
          "name": "group",
          "type": "bytes32"
        },
        {
          "internalType": "address payable",
          "name": "router",
          "type": "address"
        },
        {
          "internalType": "address",
          "name": "factory",
          "type": "address"
        },
        {
          "internalType": "address",
          "name": "weth",
          "type": "address"
        },
        {
          "internalType": "address",
          "name": "quoter",
          "type": "address"
        },
        {
          "internalType": "bool",
          "name": "enabled",
          "type": "bool"
        }
      ],
      "name": "addRoute",
      "outputs": [],
      "stateMutability": "nonpayable",
      "type": "function"
    },
    {
      "inputs": [
        {
          "internalType": "uint256",
          "name": "amount",
          "type": "uint256"
        },
        {
          "internalType": "uint256",
          "name": "bps",
          "type": "uint256"
        }
      ],
      "name": "calPercentage",
      "outputs": [
        {
          "internalType": "uint256",
          "name": "",
          "type": "uint256"
        }
      ],
      "stateMutability": "pure",
      "type": "function"
    },
    {
      "inputs": [
        {
          "internalType": "bytes32",
          "name": "id",
          "type": "bytes32"
        },
        {
          "internalType": "bool",
          "name": "opt",
          "type": "bool"
        }
      ],
      "name": "enableRoute",
      "outputs": [],
      "stateMutability": "nonpayable",
      "type": "function"
    },
    {
      "inputs": [],
      "name": "getAllRoutes",
      "outputs": [
        {
          "components": [
            {
              "internalType": "bytes32",
              "name": "id",
              "type": "bytes32"
            },
            {
              "internalType": "bytes32",
              "name": "group",
              "type": "bytes32"
            },
            {
              "internalType": "address payable",
              "name": "router",
              "type": "address"
            },
            {
              "internalType": "address",
              "name": "factory",
              "type": "address"
            },
            {
              "internalType": "address",
              "name": "weth",
              "type": "address"
            },
            {
              "internalType": "address",
              "name": "quoter",
              "type": "address"
            },
            {
              "internalType": "uint256",
              "name": "createdAt",
              "type": "uint256"
            },
            {
              "internalType": "bool",
              "name": "enabled",
              "type": "bool"
            }
          ],
          "internalType": "struct Defs.RouteParams[]",
          "name": "rp",
          "type": "tuple[]"
        }
      ],
      "stateMutability": "view",
      "type": "function"
    },
    {
      "inputs": [
        {
          "internalType": "bytes[]",
          "name": "data",
          "type": "bytes[]"
        }
      ],
      "name": "multicall",
      "outputs": [
        {
          "internalType": "bytes[]",
          "name": "results",
          "type": "bytes[]"
        }
      ],
      "stateMutability": "nonpayable",
      "type": "function"
    },
    {
      "inputs": [],
      "name": "owner",
      "outputs": [
        {
          "internalType": "address",
          "name": "",
          "type": "address"
        }
      ],
      "stateMutability": "view",
      "type": "function"
    },
    {
      "inputs": [
        {
          "internalType": "bool",
          "name": "opt",
          "type": "bool"
        }
      ],
      "name": "pauseSwap",
      "outputs": [],
      "stateMutability": "nonpayable",
      "type": "function"
    },
    {
      "inputs": [],
      "name": "renounceOwnership",
      "outputs": [],
      "stateMutability": "nonpayable",
      "type": "function"
    },
    {
      "inputs": [
        {
          "internalType": "bytes32",
          "name": "",
          "type": "bytes32"
        }
      ],
      "name": "routes",
      "outputs": [
        {
          "internalType": "bytes32",
          "name": "id",
          "type": "bytes32"
        },
        {
          "internalType": "bytes32",
          "name": "group",
          "type": "bytes32"
        },
        {
          "internalType": "address payable",
          "name": "router",
          "type": "address"
        },
        {
          "internalType": "address",
          "name": "factory",
          "type": "address"
        },
        {
          "internalType": "address",
          "name": "weth",
          "type": "address"
        },
        {
          "internalType": "address",
          "name": "quoter",
          "type": "address"
        },
        {
          "internalType": "uint256",
          "name": "createdAt",
          "type": "uint256"
        },
        {
          "internalType": "bool",
          "name": "enabled",
          "type": "bool"
        }
      ],
      "stateMutability": "view",
      "type": "function"
    },
    {
      "inputs": [
        {
          "internalType": "uint256",
          "name": "",
          "type": "uint256"
        }
      ],
      "name": "routesIds",
      "outputs": [
        {
          "internalType": "bytes32",
          "name": "",
          "type": "bytes32"
        }
      ],
      "stateMutability": "view",
      "type": "function"
    },
    {
      "inputs": [
        {
          "internalType": "address",
          "name": "addr",
          "type": "address"
        }
      ],
      "name": "setFeeWallet",
      "outputs": [],
      "stateMutability": "nonpayable",
      "type": "function"
    },
    {
      "inputs": [
        {
          "internalType": "uint256",
          "name": "_feeBps",
          "type": "uint256"
        }
      ],
      "name": "setProtocolFee",
      "outputs": [],
      "stateMutability": "nonpayable",
      "type": "function"
    },
    {
      "inputs": [
        {
          "internalType": "bytes32",
          "name": "routeId",
          "type": "bytes32"
        },
        {
          "internalType": "uint256",
          "name": "amount",
          "type": "uint256"
        },
        {
          "internalType": "address",
          "name": "tokenA",
          "type": "address"
        },
        {
          "internalType": "bytes",
          "name": "payload",
          "type": "bytes"
        }
      ],
      "name": "swap",
      "outputs": [],
      "stateMutability": "payable",
      "type": "function"
    },
    {
      "inputs": [
        {
          "internalType": "address",
          "name": "token",
          "type": "address"
        },
        {
          "internalType": "uint256",
          "name": "amount",
          "type": "uint256"
        }
      ],
      "name": "sweep",
      "outputs": [],
      "stateMutability": "nonpayable",
      "type": "function"
    },
    {
      "inputs": [
        {
          "internalType": "address",
          "name": "newOwner",
          "type": "address"
        }
      ],
      "name": "transferOwnership",
      "outputs": [],
      "stateMutability": "nonpayable",
      "type": "function"
    },
    {
      "stateMutability": "payable",
      "type": "receive"
    }
  ],
  "transactionHash": "0x87db2cd2037eaed4eddfe91c57c08a01bc9fb9740a9791a98cea854f218bb016",
  "args": [
    80,
    "0x45C7D5104D69C8FD6e3a6fFdf3Baf61eB6B8dAAf"
  ],
  "numDeployments": 1,
  "solcInputHash": "72b5c8347a74edbba99fc58a39c41ffa",
  "bytecode": "0x60806040527f756e695f763300000000000000000000000000000000000000000000000000006002553480156200003557600080fd5b50604051620038283803806200382883398181016040528101906200005b919062000357565b6200006b6200012460201b60201c565b600073ffffffffffffffffffffffffffffffffffffffff168173ffffffffffffffffffffffffffffffffffffffff1603620000e05760006040517f1e4fbdf7000000000000000000000000000000000000000000000000000000008152600401620000d79190620003af565b60405180910390fd5b620000f1816200012c60201b60201c565b5060016006819055506200010b82620001f260201b60201c565b6200011c816200023560201b60201c565b5050620003fa565b600033905090565b6000600560009054906101000a900473ffffffffffffffffffffffffffffffffffffffff16905081600560006101000a81548173ffffffffffffffffffffffffffffffffffffffff021916908373ffffffffffffffffffffffffffffffffffffffff1602179055508173ffffffffffffffffffffffffffffffffffffffff168173ffffffffffffffffffffffffffffffffffffffff167f8be0079c531659141344cd1fd0a4f28419497f9722a3daafe3b4186f6b6457e060405160405180910390a35050565b806000819055507fdc0410a296e1e33943a772020d333d5f99319d7fcad932a484c53889f7aaa2b1816040516200022a9190620003dd565b60405180910390a150565b80600160006101000a81548173ffffffffffffffffffffffffffffffffffffffff021916908373ffffffffffffffffffffffffffffffffffffffff1602179055507f3d21e5a2b633291bd1ff5f9c654e402d063783c95759d2ea521b31fb30e4da4181604051620002a79190620003af565b60405180910390a150565b600080fd5b6000819050919050565b620002cc81620002b7565b8114620002d857600080fd5b50565b600081519050620002ec81620002c1565b92915050565b600073ffffffffffffffffffffffffffffffffffffffff82169050919050565b60006200031f82620002f2565b9050919050565b620003318162000312565b81146200033d57600080fd5b50565b600081519050620003518162000326565b92915050565b60008060408385031215620003715762000370620002b2565b5b60006200038185828601620002db565b9250506020620003948582860162000340565b9150509250929050565b620003a98162000312565b82525050565b6000602082019050620003c660008301846200039e565b92915050565b620003d781620002b7565b82525050565b6000602082019050620003f46000830184620003cc565b92915050565b61341e806200040a6000396000f3fe6080604052600436106100ec5760003560e01c8063715018a61161008a5780638da5cb5b116100595780638da5cb5b146102de57806390d49b9d14610309578063ac9650d814610332578063f2fde38b1461036f576100f3565b8063715018a614610238578063787dce3d1461024f5780637c249d29146102785780638ca78528146102b5576100f3565b80631f696924116100c65780631f6969241461019f57806339691ed9146101ca5780636ea056a9146101f35780636f8e61761461021c576100f3565b8063066e9481146100f55780630dd3ca83146101395780631b80b51014610162576100f3565b366100f357005b005b34801561010157600080fd5b5061011c60048036038101906101179190611ed1565b610398565b604051610130989796959493929190611fa3565b60405180910390f35b34801561014557600080fd5b50610160600480360381019061015b919061204d565b61046d565b005b34801561016e57600080fd5b50610189600480360381019061018491906120b9565b6104f8565b60405161019691906120f9565b60405180910390f35b3480156101ab57600080fd5b506101b4610535565b6040516101c191906122b1565b60405180910390f35b3480156101d657600080fd5b506101f160048036038101906101ec91906122d3565b6107a5565b005b3480156101ff57600080fd5b5061021a6004803603810190610215919061232c565b6107ca565b005b610236600480360381019061023191906123d1565b6107e9565b005b34801561024457600080fd5b5061024d6110a4565b005b34801561025b57600080fd5b5061027660048036038101906102719190612459565b6110b8565b005b34801561028457600080fd5b5061029f600480360381019061029a9190612459565b6110cc565b6040516102ac9190612486565b60405180910390f35b3480156102c157600080fd5b506102dc60048036038101906102d791906124cd565b6110f0565b005b3480156102ea57600080fd5b506102f361153f565b604051610300919061256f565b60405180910390f35b34801561031557600080fd5b50610330600480360381019061032b919061258a565b611569565b005b34801561033e57600080fd5b506103596004803603810190610354919061260d565b61157d565b60405161036691906127ac565b60405180910390f35b34801561037b57600080fd5b506103966004803603810190610391919061258a565b611689565b005b60036020528060005260406000206000915090508060000154908060010154908060020160009054906101000a900473ffffffffffffffffffffffffffffffffffffffff16908060030160009054906101000a900473ffffffffffffffffffffffffffffffffffffffff16908060040160009054906101000a900473ffffffffffffffffffffffffffffffffffffffff16908060050160009054906101000a900473ffffffffffffffffffffffffffffffffffffffff16908060060154908060070160009054906101000a900460ff16905088565b60006003600084815260200190815260200160002060060154116104c6576040517f08c379a00000000000000000000000000000000000000000000000000000000081526004016104bd90612851565b60405180910390fd5b806003600084815260200190815260200160002060070160006101000a81548160ff0219169083151502179055505050565b6000612710828461050991906128a0565b101561051457600080fd5b612710828461052391906128a0565b61052d9190612911565b905092915050565b606060048054905067ffffffffffffffff81111561055657610555612942565b5b60405190808252806020026020018201604052801561058f57816020015b61057c611dec565b8152602001906001900390816105745790505b50905060005b6004805490508110156107a15760036000600483815481106105ba576105b9612971565b5b906000526020600020015481526020019081526020016000206040518061010001604052908160008201548152602001600182015481526020016002820160009054906101000a900473ffffffffffffffffffffffffffffffffffffffff1673ffffffffffffffffffffffffffffffffffffffff1673ffffffffffffffffffffffffffffffffffffffff1681526020016003820160009054906101000a900473ffffffffffffffffffffffffffffffffffffffff1673ffffffffffffffffffffffffffffffffffffffff1673ffffffffffffffffffffffffffffffffffffffff1681526020016004820160009054906101000a900473ffffffffffffffffffffffffffffffffffffffff1673ffffffffffffffffffffffffffffffffffffffff1673ffffffffffffffffffffffffffffffffffffffff1681526020016005820160009054906101000a900473ffffffffffffffffffffffffffffffffffffffff1673ffffffffffffffffffffffffffffffffffffffff1673ffffffffffffffffffffffffffffffffffffffff168152602001600682015481526020016007820160009054906101000a900460ff16151515158152505082828151811061078357610782612971565b5b60200260200101819052508080610799906129a0565b915050610595565b5090565b6107ad61170f565b80600760006101000a81548160ff02191690831515021790555050565b6107d261170f565b6107e582306107df611796565b8461179e565b5050565b846000600360008381526020019081526020016000206006015411610843576040517f08c379a000000000000000000000000000000000000000000000000000000000815260040161083a90612a5a565b60405180910390fd5b6003600082815260200190815260200160002060070160009054906101000a900460ff166108a6576040517f08c379a000000000000000000000000000000000000000000000000000000000815260040161089d90612aec565b60405180910390fd5b6108ae611807565b600760009054906101000a900460ff16156108fe576040517f08c379a00000000000000000000000000000000000000000000000000000000081526004016108f590612b58565b60405180910390fd5b6000600360008881526020019081526020016000206040518061010001604052908160008201548152602001600182015481526020016002820160009054906101000a900473ffffffffffffffffffffffffffffffffffffffff1673ffffffffffffffffffffffffffffffffffffffff1673ffffffffffffffffffffffffffffffffffffffff1681526020016003820160009054906101000a900473ffffffffffffffffffffffffffffffffffffffff1673ffffffffffffffffffffffffffffffffffffffff1673ffffffffffffffffffffffffffffffffffffffff1681526020016004820160009054906101000a900473ffffffffffffffffffffffffffffffffffffffff1673ffffffffffffffffffffffffffffffffffffffff1673ffffffffffffffffffffffffffffffffffffffff1681526020016005820160009054906101000a900473ffffffffffffffffffffffffffffffffffffffff1673ffffffffffffffffffffffffffffffffffffffff1673ffffffffffffffffffffffffffffffffffffffff168152602001600682015481526020016007820160009054906101000a900460ff161515151581525050905060008160c0015111610af9576040517f08c379a0000000000000000000000000000000000000000000000000000000008152600401610af090612bc4565b60405180910390fd5b60008484905011610b3f576040517f08c379a0000000000000000000000000000000000000000000000000000000008152600401610b3690612c30565b60405180910390fd5b600073ffffffffffffffffffffffffffffffffffffffff168573ffffffffffffffffffffffffffffffffffffffff1603610bae576040517f08c379a0000000000000000000000000000000000000000000000000000000008152600401610ba590612c9c565b60405180910390fd5b73eeeeeeeeeeeeeeeeeeeeeeeeeeeeeeeeeeeeeeee73ffffffffffffffffffffffffffffffffffffffff168573ffffffffffffffffffffffffffffffffffffffff1603610c3c57853414610c37576040517f08c379a0000000000000000000000000000000000000000000000000000000008152600401610c2e90612d08565b60405180910390fd5b610d13565b858573ffffffffffffffffffffffffffffffffffffffff166370a08231610c61611796565b6040518263ffffffff1660e01b8152600401610c7d919061256f565b602060405180830381865afa158015610c9a573d6000803e3d6000fd5b505050506040513d601f19601f82011682018060405250810190610cbe9190612d3d565b1015610cff576040517f08c379a0000000000000000000000000000000000000000000000000000000008152600401610cf690612d08565b60405180910390fd5b610d1285610d0b611796565b308961179e565b5b6000816040015190506000806000541115610d6c57610d34886000546104f8565b9050610d6b87610d42611796565b600160009054906101000a900473ffffffffffffffffffffffffffffffffffffffff168461179e565b5b60008189610d7a9190612d6a565b905073eeeeeeeeeeeeeeeeeeeeeeeeeeeeeeeeeeeeeeee73ffffffffffffffffffffffffffffffffffffffff168873ffffffffffffffffffffffffffffffffffffffff16148015610dd15750600254846020015114155b15610e4b57610e4587878080601f016020809104026020016040519081016040528093929190818152602001838380828437600081840152601f19601f82011690508083019250505050505050828573ffffffffffffffffffffffffffffffffffffffff1661184d9092919063ffffffff16565b50611048565b600073eeeeeeeeeeeeeeeeeeeeeeeeeeeeeeeeeeeeeeee73ffffffffffffffffffffffffffffffffffffffff168973ffffffffffffffffffffffffffffffffffffffff16148015610ea157506002548560200151145b15610f1757846080015173ffffffffffffffffffffffffffffffffffffffff1663d0e30db0836040518263ffffffff1660e01b81526004016000604051808303818588803b158015610ef257600080fd5b505af1158015610f06573d6000803e3d6000fd5b505050505084608001519050610f1b565b8890505b8073ffffffffffffffffffffffffffffffffffffffff1663095ea7b385846040518363ffffffff1660e01b8152600401610f56929190612d9e565b6020604051808303816000875af1158015610f75573d6000803e3d6000fd5b505050506040513d601f19601f82011682018060405250810190610f999190612ddc565b610fd8576040517f08c379a0000000000000000000000000000000000000000000000000000000008152600401610fcf90612e7b565b60405180910390fd5b61104588888080601f016020809104026020016040519081016040528093929190818152602001838380828437600081840152601f19601f820116905080830192505050505050508573ffffffffffffffffffffffffffffffffffffffff1661191a90919063ffffffff16565b50505b7fa1cf747ad001476b442e3c9c4a2b2180fbc1b3a710b44c90e2f2d23d2f2710c28a8a8a600054611077611796565b604051611088959493929190612e9b565b60405180910390a15050505061109c611930565b505050505050565b6110ac61170f565b6110b6600061193a565b565b6110c061170f565b6110c981611a00565b50565b600481815481106110dc57600080fd5b906000526020600020016000915090505481565b6110f861170f565b600073ffffffffffffffffffffffffffffffffffffffff168573ffffffffffffffffffffffffffffffffffffffff1603611167576040517f08c379a000000000000000000000000000000000000000000000000000000000815260040161115e90612f60565b60405180910390fd5b61117085611a41565b6111af576040517f08c379a00000000000000000000000000000000000000000000000000000000081526004016111a690612ff2565b60405180910390fd5b6111b884611a41565b6111f7576040517f08c379a00000000000000000000000000000000000000000000000000000000081526004016111ee90613084565b60405180910390fd5b61120083611a41565b61123f576040517f08c379a000000000000000000000000000000000000000000000000000000000815260040161123690613116565b60405180910390fd5b600073ffffffffffffffffffffffffffffffffffffffff168273ffffffffffffffffffffffffffffffffffffffff16146112bc5761127c82611a41565b6112bb576040517f08c379a00000000000000000000000000000000000000000000000000000000081526004016112b2906131a8565b60405180910390fd5b5b600080600360008a8152602001908152602001600020600601541490506000816112fc57600360008a8152602001908152602001600020600601546112fe565b425b90506040518061010001604052808a81526020018981526020018873ffffffffffffffffffffffffffffffffffffffff1681526020018773ffffffffffffffffffffffffffffffffffffffff1681526020018673ffffffffffffffffffffffffffffffffffffffff1681526020018573ffffffffffffffffffffffffffffffffffffffff168152602001828152602001841515815250600360008b8152602001908152602001600020600082015181600001556020820151816001015560408201518160020160006101000a81548173ffffffffffffffffffffffffffffffffffffffff021916908373ffffffffffffffffffffffffffffffffffffffff16021790555060608201518160030160006101000a81548173ffffffffffffffffffffffffffffffffffffffff021916908373ffffffffffffffffffffffffffffffffffffffff16021790555060808201518160040160006101000a81548173ffffffffffffffffffffffffffffffffffffffff021916908373ffffffffffffffffffffffffffffffffffffffff16021790555060a08201518160050160006101000a81548173ffffffffffffffffffffffffffffffffffffffff021916908373ffffffffffffffffffffffffffffffffffffffff16021790555060c0820151816006015560e08201518160070160006101000a81548160ff02191690831515021790555090505081156115345760048990806001815401808255809150506001900390600052602060002001600090919091909150555b505050505050505050565b6000600560009054906101000a900473ffffffffffffffffffffffffffffffffffffffff16905090565b61157161170f565b61157a81611a54565b50565b60608282905067ffffffffffffffff81111561159c5761159b612942565b5b6040519080825280602002602001820160405280156115cf57816020015b60608152602001906001900390816115ba5790505b50905060005b8383905081101561168257611651308585848181106115f7576115f6612971565b5b905060200281019061160991906131d7565b8080601f016020809104026020016040519081016040528093929190818152602001838380828437600081840152601f19601f82011690508083019250505050505050611acf565b82828151811061166457611663612971565b5b6020026020010181905250808061167a906129a0565b9150506115d5565b5092915050565b61169161170f565b600073ffffffffffffffffffffffffffffffffffffffff168173ffffffffffffffffffffffffffffffffffffffff16036117035760006040517f1e4fbdf70000000000000000000000000000000000000000000000000000000081526004016116fa919061256f565b60405180910390fd5b61170c8161193a565b50565b611717611796565b73ffffffffffffffffffffffffffffffffffffffff1661173561153f565b73ffffffffffffffffffffffffffffffffffffffff161461179457611758611796565b6040517f118cdaa700000000000000000000000000000000000000000000000000000000815260040161178b919061256f565b60405180910390fd5b565b600033905090565b73eeeeeeeeeeeeeeeeeeeeeeeeeeeeeeeeeeeeeeee73ffffffffffffffffffffffffffffffffffffffff168473ffffffffffffffffffffffffffffffffffffffff16036117f4576117ef8282611b53565b611801565b61180084848484611c53565b5b50505050565b600260065403611843576040517f3ee5aeb500000000000000000000000000000000000000000000000000000000815260040160405180910390fd5b6002600681905550565b60608147101561189457306040517fcd78605900000000000000000000000000000000000000000000000000000000815260040161188b919061256f565b60405180910390fd5b6000808573ffffffffffffffffffffffffffffffffffffffff1684866040516118bd9190613276565b60006040518083038185875af1925050503d80600081146118fa576040519150601f19603f3d011682016040523d82523d6000602084013e6118ff565b606091505b509150915061190f868383611d18565b925050509392505050565b60606119288383600061184d565b905092915050565b6001600681905550565b6000600560009054906101000a900473ffffffffffffffffffffffffffffffffffffffff16905081600560006101000a81548173ffffffffffffffffffffffffffffffffffffffff021916908373ffffffffffffffffffffffffffffffffffffffff1602179055508173ffffffffffffffffffffffffffffffffffffffff168173ffffffffffffffffffffffffffffffffffffffff167f8be0079c531659141344cd1fd0a4f28419497f9722a3daafe3b4186f6b6457e060405160405180910390a35050565b806000819055507fdc0410a296e1e33943a772020d333d5f99319d7fcad932a484c53889f7aaa2b181604051611a3691906120f9565b60405180910390a150565b600080823b905060008111915050919050565b80600160006101000a81548173ffffffffffffffffffffffffffffffffffffffff021916908373ffffffffffffffffffffffffffffffffffffffff1602179055507f3d21e5a2b633291bd1ff5f9c654e402d063783c95759d2ea521b31fb30e4da4181604051611ac4919061256f565b60405180910390a150565b60606000808473ffffffffffffffffffffffffffffffffffffffff1684604051611af99190613276565b600060405180830381855af49150503d8060008114611b34576040519150601f19603f3d011682016040523d82523d6000602084013e611b39565b606091505b5091509150611b49858383611d18565b9250505092915050565b60008273ffffffffffffffffffffffffffffffffffffffff1682600067ffffffffffffffff811115611b8857611b87612942565b5b6040519080825280601f01601f191660200182016040528015611bba5781602001600182028036833780820191505090505b50604051611bc89190613276565b60006040518083038185875af1925050503d8060008114611c05576040519150601f19603f3d011682016040523d82523d6000602084013e611c0a565b606091505b5050905080611c4e576040517f08c379a0000000000000000000000000000000000000000000000000000000008152600401611c45906132ff565b60405180910390fd5b505050565b8373ffffffffffffffffffffffffffffffffffffffff166323b872dd8484846040518463ffffffff1660e01b8152600401611c909392919061331f565b6020604051808303816000875af1158015611caf573d6000803e3d6000fd5b505050506040513d601f19601f82011682018060405250810190611cd39190612ddc565b611d12576040517f08c379a0000000000000000000000000000000000000000000000000000000008152600401611d09906133c8565b60405180910390fd5b50505050565b606082611d2d57611d2882611da7565b611d9f565b60008251148015611d55575060008473ffffffffffffffffffffffffffffffffffffffff163b145b15611d9757836040517f9996b315000000000000000000000000000000000000000000000000000000008152600401611d8e919061256f565b60405180910390fd5b819050611da0565b5b9392505050565b600081511115611dba5780518082602001fd5b6040517f1425ea4200000000000000000000000000000000000000000000000000000000815260040160405180910390fd5b6040518061010001604052806000801916815260200160008019168152602001600073ffffffffffffffffffffffffffffffffffffffff168152602001600073ffffffffffffffffffffffffffffffffffffffff168152602001600073ffffffffffffffffffffffffffffffffffffffff168152602001600073ffffffffffffffffffffffffffffffffffffffff168152602001600081526020016000151581525090565b600080fd5b600080fd5b6000819050919050565b611eae81611e9b565b8114611eb957600080fd5b50565b600081359050611ecb81611ea5565b92915050565b600060208284031215611ee757611ee6611e91565b5b6000611ef584828501611ebc565b91505092915050565b611f0781611e9b565b82525050565b600073ffffffffffffffffffffffffffffffffffffffff82169050919050565b6000611f3882611f0d565b9050919050565b611f4881611f2d565b82525050565b6000611f5982611f0d565b9050919050565b611f6981611f4e565b82525050565b6000819050919050565b611f8281611f6f565b82525050565b60008115159050919050565b611f9d81611f88565b82525050565b600061010082019050611fb9600083018b611efe565b611fc6602083018a611efe565b611fd36040830189611f3f565b611fe06060830188611f60565b611fed6080830187611f60565b611ffa60a0830186611f60565b61200760c0830185611f79565b61201460e0830184611f94565b9998505050505050505050565b61202a81611f88565b811461203557600080fd5b50565b60008135905061204781612021565b92915050565b6000806040838503121561206457612063611e91565b5b600061207285828601611ebc565b925050602061208385828601612038565b9150509250929050565b61209681611f6f565b81146120a157600080fd5b50565b6000813590506120b38161208d565b92915050565b600080604083850312156120d0576120cf611e91565b5b60006120de858286016120a4565b92505060206120ef858286016120a4565b9150509250929050565b600060208201905061210e6000830184611f79565b92915050565b600081519050919050565b600082825260208201905092915050565b6000819050602082019050919050565b61214981611e9b565b82525050565b61215881611f2d565b82525050565b61216781611f4e565b82525050565b61217681611f6f565b82525050565b61218581611f88565b82525050565b610100820160008201516121a26000850182612140565b5060208201516121b56020850182612140565b5060408201516121c8604085018261214f565b5060608201516121db606085018261215e565b5060808201516121ee608085018261215e565b5060a082015161220160a085018261215e565b5060c082015161221460c085018261216d565b5060e082015161222760e085018261217c565b50505050565b6000612239838361218b565b6101008301905092915050565b6000602082019050919050565b600061225e82612114565b612268818561211f565b935061227383612130565b8060005b838110156122a457815161228b888261222d565b975061229683612246565b925050600181019050612277565b5085935050505092915050565b600060208201905081810360008301526122cb8184612253565b905092915050565b6000602082840312156122e9576122e8611e91565b5b60006122f784828501612038565b91505092915050565b61230981611f4e565b811461231457600080fd5b50565b60008135905061232681612300565b92915050565b6000806040838503121561234357612342611e91565b5b600061235185828601612317565b9250506020612362858286016120a4565b9150509250929050565b600080fd5b600080fd5b600080fd5b60008083601f8401126123915761239061236c565b5b8235905067ffffffffffffffff8111156123ae576123ad612371565b5b6020830191508360018202830111156123ca576123c9612376565b5b9250929050565b6000806000806000608086880312156123ed576123ec611e91565b5b60006123fb88828901611ebc565b955050602061240c888289016120a4565b945050604061241d88828901612317565b935050606086013567ffffffffffffffff81111561243e5761243d611e96565b5b61244a8882890161237b565b92509250509295509295909350565b60006020828403121561246f5761246e611e91565b5b600061247d848285016120a4565b91505092915050565b600060208201905061249b6000830184611efe565b92915050565b6124aa81611f2d565b81146124b557600080fd5b50565b6000813590506124c7816124a1565b92915050565b600080600080600080600060e0888a0312156124ec576124eb611e91565b5b60006124fa8a828b01611ebc565b975050602061250b8a828b01611ebc565b965050604061251c8a828b016124b8565b955050606061252d8a828b01612317565b945050608061253e8a828b01612317565b93505060a061254f8a828b01612317565b92505060c06125608a828b01612038565b91505092959891949750929550565b60006020820190506125846000830184611f60565b92915050565b6000602082840312156125a05761259f611e91565b5b60006125ae84828501612317565b91505092915050565b60008083601f8401126125cd576125cc61236c565b5b8235905067ffffffffffffffff8111156125ea576125e9612371565b5b60208301915083602082028301111561260657612605612376565b5b9250929050565b6000806020838503121561262457612623611e91565b5b600083013567ffffffffffffffff81111561264257612641611e96565b5b61264e858286016125b7565b92509250509250929050565b600081519050919050565b600082825260208201905092915050565b6000819050602082019050919050565b600081519050919050565b600082825260208201905092915050565b60005b838110156126c05780820151818401526020810190506126a5565b60008484015250505050565b6000601f19601f8301169050919050565b60006126e882612686565b6126f28185612691565b93506127028185602086016126a2565b61270b816126cc565b840191505092915050565b600061272283836126dd565b905092915050565b6000602082019050919050565b60006127428261265a565b61274c8185612665565b93508360208202850161275e85612676565b8060005b8581101561279a578484038952815161277b8582612716565b94506127868361272a565b925060208a01995050600181019050612762565b50829750879550505050505092915050565b600060208201905081810360008301526127c68184612737565b905092915050565b600082825260208201905092915050565b7f426f7446693a53776170456e67696e6523656e61626c65526f757465723a204960008201527f4e56414c49445f524f5554450000000000000000000000000000000000000000602082015250565b600061283b602c836127ce565b9150612846826127df565b604082019050919050565b6000602082019050818103600083015261286a8161282e565b9050919050565b7f4e487b7100000000000000000000000000000000000000000000000000000000600052601160045260246000fd5b60006128ab82611f6f565b91506128b683611f6f565b92508282026128c481611f6f565b915082820484148315176128db576128da612871565b5b5092915050565b7f4e487b7100000000000000000000000000000000000000000000000000000000600052601260045260246000fd5b600061291c82611f6f565b915061292783611f6f565b925082612937576129366128e2565b5b828204905092915050565b7f4e487b7100000000000000000000000000000000000000000000000000000000600052604160045260246000fd5b7f4e487b7100000000000000000000000000000000000000000000000000000000600052603260045260246000fd5b60006129ab82611f6f565b91507fffffffffffffffffffffffffffffffffffffffffffffffffffffffffffffffff82036129dd576129dc612871565b5b600182019050919050565b7f426f7446692353776170456e67696e652376616c6964617465526f757465723a60008201527f20554e4b4e4f574e5f524f555445525f49440000000000000000000000000000602082015250565b6000612a446032836127ce565b9150612a4f826129e8565b604082019050919050565b60006020820190508181036000830152612a7381612a37565b9050919050565b7f426f7446692353776170456e67696e652376616c6964617465526f757465723a60008201527f20524f555445525f4e4f545f454e41424c454400000000000000000000000000602082015250565b6000612ad66033836127ce565b9150612ae182612a7a565b604082019050919050565b60006020820190508181036000830152612b0581612ac9565b9050919050565b7f426f74466923737761704e6f745061757365643a20535741505f504155534544600082015250565b6000612b426020836127ce565b9150612b4d82612b0c565b602082019050919050565b60006020820190508181036000830152612b7181612b35565b9050919050565b7f426f74466923537761703a2020554e535550504f525445445f44455800000000600082015250565b6000612bae601c836127ce565b9150612bb982612b78565b602082019050919050565b60006020820190508181036000830152612bdd81612ba1565b9050919050565b7f426f74466923537761703a20205041594c4f41445f5245515549524544000000600082015250565b6000612c1a601d836127ce565b9150612c2582612be4565b602082019050919050565b60006020820190508181036000830152612c4981612c0d565b9050919050565b7f426f74466923537761703a20205a45524f5f544f4b454e415f41444452000000600082015250565b6000612c86601d836127ce565b9150612c9182612c50565b602082019050919050565b60006020820190508181036000830152612cb581612c79565b9050919050565b7f426f74466923537761703a20494e53554646494349454e545f42414c414e4345600082015250565b6000612cf26020836127ce565b9150612cfd82612cbc565b602082019050919050565b60006020820190508181036000830152612d2181612ce5565b9050919050565b600081519050612d378161208d565b92915050565b600060208284031215612d5357612d52611e91565b5b6000612d6184828501612d28565b91505092915050565b6000612d7582611f6f565b9150612d8083611f6f565b9250828203905081811115612d9857612d97612871565b5b92915050565b6000604082019050612db36000830185611f60565b612dc06020830184611f79565b9392505050565b600081519050612dd681612021565b92915050565b600060208284031215612df257612df1611e91565b5b6000612e0084828501612dc7565b91505092915050565b7f426f7446692353776170456e67696e653a20544f4b454e415f415050524f564160008201527f4c5f4641494c4544000000000000000000000000000000000000000000000000602082015250565b6000612e656028836127ce565b9150612e7082612e09565b604082019050919050565b60006020820190508181036000830152612e9481612e58565b9050919050565b600060a082019050612eb06000830188611efe565b612ebd6020830187611f79565b612eca6040830186611f60565b612ed76060830185611f79565b612ee46080830184611f60565b9695505050505050565b7f426f7446692353776170456e67696e6523616464526f757465723a205a45524f60008201527f5f524f555445525f414444524553530000000000000000000000000000000000602082015250565b6000612f4a602f836127ce565b9150612f5582612eee565b604082019050919050565b60006020820190508181036000830152612f7981612f3d565b9050919050565b7f426f7446692353776170456e67696e6523616464526f757465723a20524f555460008201527f45525f4e4f545f415f434f4e5452414354000000000000000000000000000000602082015250565b6000612fdc6031836127ce565b9150612fe782612f80565b604082019050919050565b6000602082019050818103600083015261300b81612fcf565b9050919050565b7f426f7446692353776170456e67696e6523616464526f757465723a204641435460008201527f4f52595f4e4f545f415f434f4e54524143540000000000000000000000000000602082015250565b600061306e6032836127ce565b915061307982613012565b604082019050919050565b6000602082019050818103600083015261309d81613061565b9050919050565b7f426f7446692353776170456e67696e6523616464526f757465723a205745544860008201527f5f4e4f545f415f434f4e54524143540000000000000000000000000000000000602082015250565b6000613100602f836127ce565b915061310b826130a4565b604082019050919050565b6000602082019050818103600083015261312f816130f3565b9050919050565b7f426f7446692353776170456e67696e6523616464526f757465723a2051554f5460008201527f45525f4e4f545f415f434f4e5452414354000000000000000000000000000000602082015250565b60006131926031836127ce565b915061319d82613136565b604082019050919050565b600060208201905081810360008301526131c181613185565b9050919050565b600080fd5b600080fd5b600080fd5b600080833560016020038436030381126131f4576131f36131c8565b5b80840192508235915067ffffffffffffffff821115613216576132156131cd565b5b602083019250600182023603831315613232576132316131d2565b5b509250929050565b600081905092915050565b600061325082612686565b61325a818561323a565b935061326a8185602086016126a2565b80840191505092915050565b60006132828284613245565b915081905092915050565b7f426f744669235472616e7366657248656c7065723a204554485f5452414e534660008201527f45525f4641494c45440000000000000000000000000000000000000000000000602082015250565b60006132e96029836127ce565b91506132f48261328d565b604082019050919050565b60006020820190508181036000830152613318816132dc565b9050919050565b60006060820190506133346000830186611f60565b6133416020830185611f60565b61334e6040830184611f79565b949350505050565b7f426f744669235472616e7366657248656c7065723a20544f4b454e5f5452414e60008201527f534645525f4641494c4544000000000000000000000000000000000000000000602082015250565b60006133b2602b836127ce565b91506133bd82613356565b604082019050919050565b600060208201905081810360008301526133e1816133a5565b905091905056fea264697066735822122094f373ce84dd04e23b9abbeea377bf5a7f189d3de2168cd8ee75e8c88e692d0064736f6c63430008140033",
  "devdoc": {
    "errors": {
      "AddressEmptyCode(address)": [
        {
          "details": "There's no code at `target` (it is not a contract)."
        }
      ],
      "AddressInsufficientBalance(address)": [
        {
          "details": "The ETH balance of the account is not enough to perform the operation."
        }
      ],
      "FailedInnerCall()": [
        {
          "details": "A call to an address target failed. The target may have reverted."
        }
      ],
      "OwnableInvalidOwner(address)": [
        {
          "details": "The owner is not a valid owner account. (eg. `address(0)`)"
        }
      ],
      "OwnableUnauthorizedAccount(address)": [
        {
          "details": "The caller account is not authorized to perform an operation."
        }
      ],
      "ReentrancyGuardReentrantCall()": [
        {
          "details": "Unauthorized reentrant call."
        }
      ]
    },
    "kind": "dev",
    "methods": {
      "addRoute(bytes32,bytes32,address,address,address,address,bool)": {
        "details": "addRouter add a router params",
        "params": {
          "enabled": "is the router enabled or not",
          "factory": "the factory address",
          "group": "router group - uni_v2, uni_v3 ....",
          "id": "router id",
          "quoter": "swap quoter ",
          "router": "the router address ",
          "weth": "wrapped ether or wrapped native token"
        }
      },
      "calPercentage(uint256,uint256)": {
        "details": "convert percentage in basis point of a value ",
        "params": {
          "amount": "the amount to be calculated on",
          "bps": "percentage value in basis point"
        }
      },
      "enableRoute(bytes32,bool)": {
        "details": "enable or disable a route",
        "params": {
          "id": "the router id",
          "opt": "true or false"
        }
      },
      "getAllRoutes()": {
        "details": "getAllRoutes get all the routers returns array "
      },
      "multicall(bytes[])": {
        "custom:oz-upgrades-unsafe-allow-reachable": "delegatecall",
        "details": "Receives and executes a batch of function calls on this contract."
      },
      "owner()": {
        "details": "Returns the address of the current owner."
      },
      "pauseSwap(bool)": {
        "details": "pause the swap operation for the contract",
        "params": {
          "opt": "true or false "
        }
      },
      "renounceOwnership()": {
        "details": "Leaves the contract without owner. It will not be possible to call `onlyOwner` functions. Can only be called by the current owner. NOTE: Renouncing ownership will leave the contract without an owner, thereby disabling any functionality that is only available to the owner."
      },
      "setFeeWallet(address)": {
        "details": "set the address for taking the protocol fees",
        "params": {
          "addr": "the fee in percentage basis point"
        }
      },
      "setProtocolFee(uint256)": {
        "details": "protocol fee in basis point",
        "params": {
          "_feeBps": "the fee in percentage basis point"
        }
      },
      "swap(bytes32,uint256,address,bytes)": {
        "details": "perform a swap",
        "params": {
          "amount": "the total amount without the protocol fee for the swap",
          "payload": "the encoded swap data to foward to the router",
          "routeId": "the identifier of the router to use",
          "tokenA": "the token to swap into another token (tokenB)"
        }
      },
      "sweep(address,uint256)": {
        "details": "withdraw any stucked tokens in the contract",
        "params": {
          "amount": "the amount to move out",
          "token": "the token address to withdraw"
        }
      },
      "transferOwnership(address)": {
        "details": "Transfers ownership of the contract to a new account (`newOwner`). Can only be called by the current owner."
      }
    },
    "version": 1
  },
  "userdoc": {
    "kind": "user",
    "methods": {},
    "version": 1
  },
  "storageLayout": {
    "storage": [
      {
        "astId": 749,
        "contract": "contracts/Factory.sol:Factory",
        "label": "PROTOCOL_FEE",
        "offset": 0,
        "slot": "0",
        "type": "t_uint256"
      },
      {
        "astId": 751,
        "contract": "contracts/Factory.sol:Factory",
        "label": "FEE_WALLET",
        "offset": 0,
        "slot": "1",
        "type": "t_address"
      },
      {
        "astId": 757,
        "contract": "contracts/Factory.sol:Factory",
        "label": "UNI_V3",
        "offset": 0,
        "slot": "2",
        "type": "t_bytes32"
      },
      {
        "astId": 765,
        "contract": "contracts/Factory.sol:Factory",
        "label": "routes",
        "offset": 0,
        "slot": "3",
        "type": "t_mapping(t_bytes32,t_struct(RouteParams)785_storage)"
      },
      {
        "astId": 768,
        "contract": "contracts/Factory.sol:Factory",
        "label": "routesIds",
        "offset": 0,
        "slot": "4",
        "type": "t_array(t_bytes32)dyn_storage"
      },
      {
        "astId": 8,
        "contract": "contracts/Factory.sol:Factory",
        "label": "_owner",
        "offset": 0,
        "slot": "5",
        "type": "t_address"
      },
      {
        "astId": 571,
        "contract": "contracts/Factory.sol:Factory",
        "label": "_status",
        "offset": 0,
        "slot": "6",
        "type": "t_uint256"
      },
      {
        "astId": 972,
        "contract": "contracts/Factory.sol:Factory",
        "label": "isPaused",
        "offset": 0,
        "slot": "7",
        "type": "t_bool"
      }
    ],
    "types": {
      "t_address": {
        "encoding": "inplace",
        "label": "address",
        "numberOfBytes": "20"
      },
      "t_address_payable": {
        "encoding": "inplace",
        "label": "address payable",
        "numberOfBytes": "20"
      },
      "t_array(t_bytes32)dyn_storage": {
        "base": "t_bytes32",
        "encoding": "dynamic_array",
        "label": "bytes32[]",
        "numberOfBytes": "32"
      },
      "t_bool": {
        "encoding": "inplace",
        "label": "bool",
        "numberOfBytes": "1"
      },
      "t_bytes32": {
        "encoding": "inplace",
        "label": "bytes32",
        "numberOfBytes": "32"
      },
      "t_mapping(t_bytes32,t_struct(RouteParams)785_storage)": {
        "encoding": "mapping",
        "key": "t_bytes32",
        "label": "mapping(bytes32 => struct Defs.RouteParams)",
        "numberOfBytes": "32",
        "value": "t_struct(RouteParams)785_storage"
      },
      "t_struct(RouteParams)785_storage": {
        "encoding": "inplace",
        "label": "struct Defs.RouteParams",
        "members": [
          {
            "astId": 770,
            "contract": "contracts/Factory.sol:Factory",
            "label": "id",
            "offset": 0,
            "slot": "0",
            "type": "t_bytes32"
          },
          {
            "astId": 772,
            "contract": "contracts/Factory.sol:Factory",
            "label": "group",
            "offset": 0,
            "slot": "1",
            "type": "t_bytes32"
          },
          {
            "astId": 774,
            "contract": "contracts/Factory.sol:Factory",
            "label": "router",
            "offset": 0,
            "slot": "2",
            "type": "t_address_payable"
          },
          {
            "astId": 776,
            "contract": "contracts/Factory.sol:Factory",
            "label": "factory",
            "offset": 0,
            "slot": "3",
            "type": "t_address"
          },
          {
            "astId": 778,
            "contract": "contracts/Factory.sol:Factory",
            "label": "weth",
            "offset": 0,
            "slot": "4",
            "type": "t_address"
          },
          {
            "astId": 780,
            "contract": "contracts/Factory.sol:Factory",
            "label": "quoter",
            "offset": 0,
            "slot": "5",
            "type": "t_address"
          },
          {
            "astId": 782,
            "contract": "contracts/Factory.sol:Factory",
            "label": "createdAt",
            "offset": 0,
            "slot": "6",
            "type": "t_uint256"
          },
          {
            "astId": 784,
            "contract": "contracts/Factory.sol:Factory",
            "label": "enabled",
            "offset": 0,
            "slot": "7",
            "type": "t_bool"
          }
        ],
        "numberOfBytes": "256"
      },
      "t_uint256": {
        "encoding": "inplace",
        "label": "uint256",
        "numberOfBytes": "32"
      }
    }
  }
}